{
  "_format": "hh-sol-artifact-1",
  "contractName": "LandRegistry",
  "sourceName": "contracts/LandRegistry.sol",
  "abi": [
    {
      "inputs": [],
      "stateMutability": "nonpayable",
      "type": "constructor"
    },
    {
      "inputs": [
        {
          "internalType": "address",
          "name": "sender",
          "type": "address"
        },
        {
          "internalType": "uint256",
          "name": "tokenId",
          "type": "uint256"
        },
        {
          "internalType": "address",
          "name": "owner",
          "type": "address"
        }
      ],
      "name": "ERC721IncorrectOwner",
      "type": "error"
    },
    {
      "inputs": [
        {
          "internalType": "address",
          "name": "operator",
          "type": "address"
        },
        {
          "internalType": "uint256",
          "name": "tokenId",
          "type": "uint256"
        }
      ],
      "name": "ERC721InsufficientApproval",
      "type": "error"
    },
    {
      "inputs": [
        {
          "internalType": "address",
          "name": "approver",
          "type": "address"
        }
      ],
      "name": "ERC721InvalidApprover",
      "type": "error"
    },
    {
      "inputs": [
        {
          "internalType": "address",
          "name": "operator",
          "type": "address"
        }
      ],
      "name": "ERC721InvalidOperator",
      "type": "error"
    },
    {
      "inputs": [
        {
          "internalType": "address",
          "name": "owner",
          "type": "address"
        }
      ],
      "name": "ERC721InvalidOwner",
      "type": "error"
    },
    {
      "inputs": [
        {
          "internalType": "address",
          "name": "receiver",
          "type": "address"
        }
      ],
      "name": "ERC721InvalidReceiver",
      "type": "error"
    },
    {
      "inputs": [
        {
          "internalType": "address",
          "name": "sender",
          "type": "address"
        }
      ],
      "name": "ERC721InvalidSender",
      "type": "error"
    },
    {
      "inputs": [
        {
          "internalType": "uint256",
          "name": "tokenId",
          "type": "uint256"
        }
      ],
      "name": "ERC721NonexistentToken",
      "type": "error"
    },
    {
      "inputs": [
        {
          "internalType": "address",
          "name": "owner",
          "type": "address"
        }
      ],
      "name": "OwnableInvalidOwner",
      "type": "error"
    },
    {
      "inputs": [
        {
          "internalType": "address",
          "name": "account",
          "type": "address"
        }
      ],
      "name": "OwnableUnauthorizedAccount",
      "type": "error"
    },
    {
      "anonymous": false,
      "inputs": [
        {
          "indexed": true,
          "internalType": "address",
          "name": "owner",
          "type": "address"
        },
        {
          "indexed": true,
          "internalType": "address",
          "name": "approved",
          "type": "address"
        },
        {
          "indexed": true,
          "internalType": "uint256",
          "name": "tokenId",
          "type": "uint256"
        }
      ],
      "name": "Approval",
      "type": "event"
    },
    {
      "anonymous": false,
      "inputs": [
        {
          "indexed": true,
          "internalType": "address",
          "name": "owner",
          "type": "address"
        },
        {
          "indexed": true,
          "internalType": "address",
          "name": "operator",
          "type": "address"
        },
        {
          "indexed": false,
          "internalType": "bool",
          "name": "approved",
          "type": "bool"
        }
      ],
      "name": "ApprovalForAll",
      "type": "event"
    },
    {
      "anonymous": false,
      "inputs": [
        {
          "indexed": false,
          "internalType": "uint256",
          "name": "_fromTokenId",
          "type": "uint256"
        },
        {
          "indexed": false,
          "internalType": "uint256",
          "name": "_toTokenId",
          "type": "uint256"
        }
      ],
      "name": "BatchMetadataUpdate",
      "type": "event"
    },
    {
      "anonymous": false,
      "inputs": [
        {
          "indexed": true,
          "internalType": "uint256",
          "name": "landId",
          "type": "uint256"
        },
        {
          "indexed": false,
          "internalType": "uint256",
          "name": "priceWei",
          "type": "uint256"
        }
      ],
      "name": "LandListed",
      "type": "event"
    },
    {
      "anonymous": false,
      "inputs": [
        {
          "indexed": true,
          "internalType": "uint256",
          "name": "landId",
          "type": "uint256"
        },
        {
          "indexed": true,
          "internalType": "address",
          "name": "newOwner",
          "type": "address"
        }
      ],
      "name": "LandOwnershipTransferred",
      "type": "event"
    },
    {
      "anonymous": false,
      "inputs": [
        {
          "indexed": true,
          "internalType": "uint256",
          "name": "landId",
          "type": "uint256"
        },
        {
          "indexed": true,
          "internalType": "address",
          "name": "owner",
          "type": "address"
        },
        {
          "indexed": false,
          "internalType": "string",
          "name": "metadataCID",
          "type": "string"
        }
      ],
      "name": "LandRegistered",
      "type": "event"
    },
    {
      "anonymous": false,
      "inputs": [
        {
          "indexed": true,
          "internalType": "uint256",
          "name": "landId",
          "type": "uint256"
        },
        {
          "indexed": false,
          "internalType": "enum LandRegistry.LandStatus",
          "name": "newStatus",
          "type": "uint8"
        }
      ],
      "name": "LandStatusUpdated",
      "type": "event"
    },
    {
      "anonymous": false,
      "inputs": [
        {
          "indexed": false,
          "internalType": "uint256",
          "name": "_tokenId",
          "type": "uint256"
        }
      ],
      "name": "MetadataUpdate",
      "type": "event"
    },
    {
      "anonymous": false,
      "inputs": [
        {
          "indexed": true,
          "internalType": "address",
          "name": "previousOwner",
          "type": "address"
        },
        {
          "indexed": true,
          "internalType": "address",
          "name": "newOwner",
          "type": "address"
        }
      ],
      "name": "OwnershipTransferred",
      "type": "event"
    },
    {
      "anonymous": false,
      "inputs": [
        {
          "indexed": true,
          "internalType": "uint256",
          "name": "landId",
          "type": "uint256"
        },
        {
          "indexed": true,
          "internalType": "address",
          "name": "buyer",
          "type": "address"
        }
      ],
      "name": "PurchaseRequested",
      "type": "event"
    },
    {
      "anonymous": false,
      "inputs": [
        {
          "indexed": true,
          "internalType": "address",
          "name": "from",
          "type": "address"
        },
        {
          "indexed": true,
          "internalType": "address",
          "name": "to",
          "type": "address"
        },
        {
          "indexed": true,
          "internalType": "uint256",
          "name": "tokenId",
          "type": "uint256"
        }
      ],
      "name": "Transfer",
      "type": "event"
    },
    {
      "anonymous": false,
      "inputs": [
        {
          "indexed": true,
          "internalType": "address",
          "name": "user",
          "type": "address"
        },
        {
          "indexed": false,
          "internalType": "string",
          "name": "metadataCID",
          "type": "string"
        }
      ],
      "name": "UserRegistered",
      "type": "event"
    },
    {
      "inputs": [
        {
          "internalType": "address",
          "name": "to",
          "type": "address"
        },
        {
          "internalType": "uint256",
          "name": "tokenId",
          "type": "uint256"
        }
      ],
      "name": "approve",
      "outputs": [],
      "stateMutability": "nonpayable",
      "type": "function"
    },
    {
      "inputs": [
        {
          "internalType": "address",
          "name": "owner",
          "type": "address"
        }
      ],
      "name": "balanceOf",
      "outputs": [
        {
          "internalType": "uint256",
          "name": "",
          "type": "uint256"
        }
      ],
      "stateMutability": "view",
      "type": "function"
    },
    {
      "inputs": [],
      "name": "getAllLandIds",
      "outputs": [
        {
          "internalType": "uint256[]",
          "name": "",
          "type": "uint256[]"
        }
      ],
      "stateMutability": "view",
      "type": "function"
    },
    {
      "inputs": [
        {
          "internalType": "uint256",
          "name": "tokenId",
          "type": "uint256"
        }
      ],
      "name": "getApproved",
      "outputs": [
        {
          "internalType": "address",
          "name": "",
          "type": "address"
        }
      ],
      "stateMutability": "view",
      "type": "function"
    },
    {
      "inputs": [
        {
          "internalType": "uint256",
          "name": "landId",
          "type": "uint256"
        }
      ],
      "name": "getLand",
      "outputs": [
        {
          "components": [
            {
              "internalType": "uint256",
              "name": "landId",
              "type": "uint256"
            },
            {
              "internalType": "enum LandRegistry.LandStatus",
              "name": "status",
              "type": "uint8"
            },
            {
              "internalType": "string",
              "name": "metadataCID",
              "type": "string"
            }
          ],
          "internalType": "struct LandRegistry.Land",
          "name": "land",
          "type": "tuple"
        },
        {
          "internalType": "address",
          "name": "owner",
          "type": "address"
        }
      ],
      "stateMutability": "view",
      "type": "function"
    },
    {
      "inputs": [
        {
          "internalType": "address",
          "name": "owner",
          "type": "address"
        }
      ],
      "name": "getOwnedLands",
      "outputs": [
        {
          "internalType": "uint256[]",
          "name": "",
          "type": "uint256[]"
        }
      ],
      "stateMutability": "view",
      "type": "function"
    },
    {
      "inputs": [
        {
          "internalType": "address",
          "name": "owner",
          "type": "address"
        },
        {
          "internalType": "address",
          "name": "operator",
          "type": "address"
        }
      ],
      "name": "isApprovedForAll",
      "outputs": [
        {
          "internalType": "bool",
          "name": "",
          "type": "bool"
        }
      ],
      "stateMutability": "view",
      "type": "function"
    },
    {
      "inputs": [
        {
          "internalType": "uint256",
          "name": "",
          "type": "uint256"
        }
      ],
      "name": "landPrices",
      "outputs": [
        {
          "internalType": "uint256",
          "name": "",
          "type": "uint256"
        }
      ],
      "stateMutability": "view",
      "type": "function"
    },
    {
      "inputs": [
        {
          "internalType": "uint256",
          "name": "",
          "type": "uint256"
        }
      ],
      "name": "lands",
      "outputs": [
        {
          "internalType": "uint256",
          "name": "landId",
          "type": "uint256"
        },
        {
          "internalType": "enum LandRegistry.LandStatus",
          "name": "status",
          "type": "uint8"
        },
        {
          "internalType": "string",
          "name": "metadataCID",
          "type": "string"
        }
      ],
      "stateMutability": "view",
      "type": "function"
    },
    {
      "inputs": [],
      "name": "name",
      "outputs": [
        {
          "internalType": "string",
          "name": "",
          "type": "string"
        }
      ],
      "stateMutability": "view",
      "type": "function"
    },
    {
      "inputs": [],
      "name": "owner",
      "outputs": [
        {
          "internalType": "address",
          "name": "",
          "type": "address"
        }
      ],
      "stateMutability": "view",
      "type": "function"
    },
    {
      "inputs": [
        {
          "internalType": "uint256",
          "name": "tokenId",
          "type": "uint256"
        }
      ],
      "name": "ownerOf",
      "outputs": [
        {
          "internalType": "address",
          "name": "",
          "type": "address"
        }
      ],
      "stateMutability": "view",
      "type": "function"
    },
    {
      "inputs": [
        {
          "internalType": "address",
          "name": "",
          "type": "address"
        },
        {
          "internalType": "uint256",
          "name": "",
          "type": "uint256"
        }
      ],
      "name": "ownerToLandIds",
      "outputs": [
        {
          "internalType": "uint256",
          "name": "",
          "type": "uint256"
        }
      ],
      "stateMutability": "view",
      "type": "function"
    },
    {
      "inputs": [
        {
          "internalType": "uint256",
          "name": "",
          "type": "uint256"
        }
      ],
      "name": "pendingBuyer",
      "outputs": [
        {
          "internalType": "address",
          "name": "",
          "type": "address"
        }
      ],
      "stateMutability": "view",
      "type": "function"
    },
    {
      "inputs": [
        {
          "internalType": "address",
          "name": "to",
          "type": "address"
        },
        {
          "internalType": "string",
          "name": "metadataCID",
          "type": "string"
        },
        {
          "internalType": "uint256",
          "name": "priceWei",
          "type": "uint256"
        }
      ],
      "name": "registerLand",
      "outputs": [],
      "stateMutability": "nonpayable",
      "type": "function"
    },
    {
      "inputs": [
        {
          "internalType": "string",
          "name": "cid",
          "type": "string"
        }
      ],
      "name": "registerUserWithCID",
      "outputs": [],
      "stateMutability": "nonpayable",
      "type": "function"
    },
    {
      "inputs": [],
      "name": "renounceOwnership",
      "outputs": [],
      "stateMutability": "nonpayable",
      "type": "function"
    },
    {
      "inputs": [
        {
          "internalType": "uint256",
          "name": "landId",
          "type": "uint256"
        }
      ],
      "name": "requestToBuy",
      "outputs": [],
      "stateMutability": "payable",
      "type": "function"
    },
    {
      "inputs": [
        {
          "internalType": "address",
          "name": "",
          "type": "address"
        }
      ],
      "name": "roles",
      "outputs": [
        {
          "internalType": "enum LandRegistry.Role",
          "name": "",
          "type": "uint8"
        }
      ],
      "stateMutability": "view",
      "type": "function"
    },
    {
      "inputs": [
        {
          "internalType": "address",
          "name": "from",
          "type": "address"
        },
        {
          "internalType": "address",
          "name": "to",
          "type": "address"
        },
        {
          "internalType": "uint256",
          "name": "tokenId",
          "type": "uint256"
        }
      ],
      "name": "safeTransferFrom",
      "outputs": [],
      "stateMutability": "nonpayable",
      "type": "function"
    },
    {
      "inputs": [
        {
          "internalType": "address",
          "name": "from",
          "type": "address"
        },
        {
          "internalType": "address",
          "name": "to",
          "type": "address"
        },
        {
          "internalType": "uint256",
          "name": "tokenId",
          "type": "uint256"
        },
        {
          "internalType": "bytes",
          "name": "data",
          "type": "bytes"
        }
      ],
      "name": "safeTransferFrom",
      "outputs": [],
      "stateMutability": "nonpayable",
      "type": "function"
    },
    {
      "inputs": [],
      "name": "selfRegisterUser",
      "outputs": [],
      "stateMutability": "nonpayable",
      "type": "function"
    },
    {
      "inputs": [
        {
          "internalType": "address",
          "name": "operator",
          "type": "address"
        },
        {
          "internalType": "bool",
          "name": "approved",
          "type": "bool"
        }
      ],
      "name": "setApprovalForAll",
      "outputs": [],
      "stateMutability": "nonpayable",
      "type": "function"
    },
    {
      "inputs": [
        {
          "internalType": "bytes4",
          "name": "interfaceId",
          "type": "bytes4"
        }
      ],
      "name": "supportsInterface",
      "outputs": [
        {
          "internalType": "bool",
          "name": "",
          "type": "bool"
        }
      ],
      "stateMutability": "view",
      "type": "function"
    },
    {
      "inputs": [],
      "name": "symbol",
      "outputs": [
        {
          "internalType": "string",
          "name": "",
          "type": "string"
        }
      ],
      "stateMutability": "view",
      "type": "function"
    },
    {
      "inputs": [
        {
          "internalType": "uint256",
          "name": "tokenId",
          "type": "uint256"
        }
      ],
      "name": "tokenURI",
      "outputs": [
        {
          "internalType": "string",
          "name": "",
          "type": "string"
        }
      ],
      "stateMutability": "view",
      "type": "function"
    },
    {
      "inputs": [
        {
          "internalType": "address",
          "name": "from",
          "type": "address"
        },
        {
          "internalType": "address",
          "name": "to",
          "type": "address"
        },
        {
          "internalType": "uint256",
          "name": "tokenId",
          "type": "uint256"
        }
      ],
      "name": "transferFrom",
      "outputs": [],
      "stateMutability": "nonpayable",
      "type": "function"
    },
    {
      "inputs": [
        {
          "internalType": "uint256",
          "name": "landId",
          "type": "uint256"
        },
        {
          "internalType": "address",
          "name": "newOwner",
          "type": "address"
        },
        {
          "internalType": "string",
          "name": "newMetadataCID",
          "type": "string"
        }
      ],
      "name": "transferLandOwnership",
      "outputs": [],
      "stateMutability": "nonpayable",
      "type": "function"
    },
    {
      "inputs": [
        {
          "internalType": "address",
          "name": "newOwner",
          "type": "address"
        }
      ],
      "name": "transferOwnership",
      "outputs": [],
      "stateMutability": "nonpayable",
      "type": "function"
    },
    {
      "inputs": [
        {
          "internalType": "uint256",
          "name": "landId",
          "type": "uint256"
        },
        {
          "internalType": "enum LandRegistry.LandStatus",
          "name": "newStatus",
          "type": "uint8"
        }
      ],
      "name": "updateLandStatus",
      "outputs": [],
      "stateMutability": "nonpayable",
      "type": "function"
    },
    {
      "inputs": [
        {
          "internalType": "address",
          "name": "",
          "type": "address"
        }
      ],
      "name": "userMetadataCID",
      "outputs": [
        {
          "internalType": "string",
          "name": "",
          "type": "string"
        }
      ],
      "stateMutability": "view",
      "type": "function"
    }
  ],
  "bytecode": "0x6080604052600160085534801561001557600080fd5b50336040518060400160405280600781526020017f476f764c616e64000000000000000000000000000000000000000000000000008152506040518060400160405280600381526020017f4d4c4e000000000000000000000000000000000000000000000000000000000081525081600090816100929190610442565b5080600190816100a29190610442565b505050600073ffffffffffffffffffffffffffffffffffffffff168173ffffffffffffffffffffffffffffffffffffffff16036101175760006040517f1e4fbdf700000000000000000000000000000000000000000000000000000000815260040161010e9190610555565b60405180910390fd5b6101268161012c60201b60201c565b50610570565b6000600760009054906101000a900473ffffffffffffffffffffffffffffffffffffffff16905081600760006101000a81548173ffffffffffffffffffffffffffffffffffffffff021916908373ffffffffffffffffffffffffffffffffffffffff1602179055508173ffffffffffffffffffffffffffffffffffffffff168173ffffffffffffffffffffffffffffffffffffffff167f8be0079c531659141344cd1fd0a4f28419497f9722a3daafe3b4186f6b6457e060405160405180910390a35050565b600081519050919050565b7f4e487b7100000000000000000000000000000000000000000000000000000000600052604160045260246000fd5b7f4e487b7100000000000000000000000000000000000000000000000000000000600052602260045260246000fd5b6000600282049050600182168061027357607f821691505b6020821081036102865761028561022c565b5b50919050565b60008190508160005260206000209050919050565b60006020601f8301049050919050565b600082821b905092915050565b6000600883026102ee7fffffffffffffffffffffffffffffffffffffffffffffffffffffffffffffffff826102b1565b6102f886836102b1565b95508019841693508086168417925050509392505050565b6000819050919050565b6000819050919050565b600061033f61033a61033584610310565b61031a565b610310565b9050919050565b6000819050919050565b61035983610324565b61036d61036582610346565b8484546102be565b825550505050565b600090565b610382610375565b61038d818484610350565b505050565b5b818110156103b1576103a660008261037a565b600181019050610393565b5050565b601f8211156103f6576103c78161028c565b6103d0846102a1565b810160208510156103df578190505b6103f36103eb856102a1565b830182610392565b50505b505050565b600082821c905092915050565b6000610419600019846008026103fb565b1980831691505092915050565b60006104328383610408565b9150826002028217905092915050565b61044b826101f2565b67ffffffffffffffff811115610464576104636101fd565b5b61046e825461025b565b6104798282856103b5565b600060209050601f8311600181146104ac576000841561049a578287015190505b6104a48582610426565b86555061050c565b601f1984166104ba8661028c565b60005b828110156104e2578489015182556001820191506020850194506020810190506104bd565b868310156104ff57848901516104fb601f891682610408565b8355505b6001600288020188555050505b505050505050565b600073ffffffffffffffffffffffffffffffffffffffff82169050919050565b600061053f82610514565b9050919050565b61054f81610534565b82525050565b600060208201905061056a6000830184610546565b92915050565b61482f8061057f6000396000f3fe6080604052600436106101d85760003560e01c8063715018a611610102578063b88d4fde11610095578063e261f1e511610064578063e261f1e5146106e3578063e985e9c514610722578063f02dd53f1461075f578063f2fde38b1461079d576101d8565b8063b88d4fde14610629578063bee4918c14610652578063c87b56dd1461067b578063d7dee192146106b8576101d8565b806395d89b41116100d157806395d89b411461056f578063993746421461059a578063a22cb465146105d7578063aa2a906b14610600576101d8565b8063715018a6146104d9578063772afef4146104f05780637bb2d6db146105075780638da5cb5b14610544576101d8565b80634bde01f71161017a5780636352211e116101495780636352211e146103e55780636480a5d21461042257806366f487ed1461045f57806370a082311461049c576101d8565b80634bde01f714610326578063519ea7051461034f5780635b48d9ae1461038c5780635c7b0308146103c9576101d8565b8063095ea7b3116101b6578063095ea7b314610282578063174a8fe7146102ab57806323b872dd146102d457806342842e0e146102fd576101d8565b806301ffc9a7146101dd57806306fdde031461021a578063081812fc14610245575b600080fd5b3480156101e957600080fd5b5061020460048036038101906101ff919061317a565b6107c6565b60405161021191906131c2565b60405180910390f35b34801561022657600080fd5b5061022f610827565b60405161023c919061326d565b60405180910390f35b34801561025157600080fd5b5061026c600480360381019061026791906132c5565b6108b9565b6040516102799190613333565b60405180910390f35b34801561028e57600080fd5b506102a960048036038101906102a4919061337a565b6108d5565b005b3480156102b757600080fd5b506102d260048036038101906102cd91906133df565b6108eb565b005b3480156102e057600080fd5b506102fb60048036038101906102f6919061341f565b610ad6565b005b34801561030957600080fd5b50610324600480360381019061031f919061341f565b610bd8565b005b34801561033257600080fd5b5061034d600480360381019061034891906135a7565b610bf8565b005b34801561035b57600080fd5b5061037660048036038101906103719190613616565b610ea8565b6040516103839190613701565b60405180910390f35b34801561039857600080fd5b506103b360048036038101906103ae9190613616565b610f3f565b6040516103c0919061326d565b60405180910390f35b6103e360048036038101906103de91906132c5565b610fdf565b005b3480156103f157600080fd5b5061040c600480360381019061040791906132c5565b611282565b6040516104199190613333565b60405180910390f35b34801561042e57600080fd5b50610449600480360381019061044491906132c5565b611294565b6040516104569190613333565b60405180910390f35b34801561046b57600080fd5b506104866004803603810190610481919061337a565b6112c7565b6040516104939190613732565b60405180910390f35b3480156104a857600080fd5b506104c360048036038101906104be9190613616565b6112f8565b6040516104d09190613732565b60405180910390f35b3480156104e557600080fd5b506104ee6113b2565b005b3480156104fc57600080fd5b506105056113c6565b005b34801561051357600080fd5b5061052e600480360381019061052991906132c5565b61152f565b60405161053b9190613732565b60405180910390f35b34801561055057600080fd5b50610559611547565b6040516105669190613333565b60405180910390f35b34801561057b57600080fd5b50610584611571565b604051610591919061326d565b60405180910390f35b3480156105a657600080fd5b506105c160048036038101906105bc9190613616565b611603565b6040516105ce91906137c4565b60405180910390f35b3480156105e357600080fd5b506105fe60048036038101906105f9919061380b565b611623565b005b34801561060c57600080fd5b50610627600480360381019061062291906138ab565b611639565b005b34801561063557600080fd5b50610650600480360381019061064b91906139c0565b611a0e565b005b34801561065e57600080fd5b5061067960048036038101906106749190613a43565b611a33565b005b34801561068757600080fd5b506106a2600480360381019061069d91906132c5565b611bec565b6040516106af919061326d565b60405180910390f35b3480156106c457600080fd5b506106cd611c72565b6040516106da9190613701565b60405180910390f35b3480156106ef57600080fd5b5061070a600480360381019061070591906132c5565b611d21565b60405161071993929190613ad4565b60405180910390f35b34801561072e57600080fd5b5061074960048036038101906107449190613b12565b611de0565b60405161075691906131c2565b60405180910390f35b34801561076b57600080fd5b50610786600480360381019061078191906132c5565b611e74565b604051610794929190613bfb565b60405180910390f35b3480156107a957600080fd5b506107c460048036038101906107bf9190613616565b611fd0565b005b6000634906490660e01b7bffffffffffffffffffffffffffffffffffffffffffffffffffffffff1916827bffffffffffffffffffffffffffffffffffffffffffffffffffffffff19161480610820575061081f82612056565b5b9050919050565b60606000805461083690613c5a565b80601f016020809104026020016040519081016040528092919081815260200182805461086290613c5a565b80156108af5780601f10610884576101008083540402835291602001916108af565b820191906000526020600020905b81548152906001019060200180831161089257829003601f168201915b5050505050905090565b60006108c482612138565b506108ce826121c0565b9050919050565b6108e782826108e26121fd565b612205565b5050565b600160028111156108ff576108fe61374d565b5b600a60003373ffffffffffffffffffffffffffffffffffffffff1673ffffffffffffffffffffffffffffffffffffffff16815260200190815260200160002060009054906101000a900460ff16600281111561095e5761095d61374d565b5b1461099e576040517f08c379a000000000000000000000000000000000000000000000000000000000815260040161099590613cd7565b60405180910390fd5b6109a782612217565b6109e6576040517f08c379a00000000000000000000000000000000000000000000000000000000081526004016109dd90613d43565b60405180910390fd5b3373ffffffffffffffffffffffffffffffffffffffff16610a0683611282565b73ffffffffffffffffffffffffffffffffffffffff1614610a5c576040517f08c379a0000000000000000000000000000000000000000000000000000000008152600401610a5390613daf565b60405180910390fd5b80600b600084815260200190815260200160002060010160006101000a81548160ff02191690836003811115610a9557610a9461374d565b5b0217905550817f6d63dff809eaa3125b19b928b3955c261658ff6781148e3d3e6a939b7bee2ba982604051610aca9190613dcf565b60405180910390a25050565b600073ffffffffffffffffffffffffffffffffffffffff168273ffffffffffffffffffffffffffffffffffffffff1603610b485760006040517f64a0ae92000000000000000000000000000000000000000000000000000000008152600401610b3f9190613333565b60405180910390fd5b6000610b5c8383610b576121fd565b612258565b90508373ffffffffffffffffffffffffffffffffffffffff168173ffffffffffffffffffffffffffffffffffffffff1614610bd2578382826040517f64283d7b000000000000000000000000000000000000000000000000000000008152600401610bc993929190613dea565b60405180910390fd5b50505050565b610bf383838360405180602001604052806000815250611a0e565b505050565b60016002811115610c0c57610c0b61374d565b5b600a60003373ffffffffffffffffffffffffffffffffffffffff1673ffffffffffffffffffffffffffffffffffffffff16815260200190815260200160002060009054906101000a900460ff166002811115610c6b57610c6a61374d565b5b14610cab576040517f08c379a0000000000000000000000000000000000000000000000000000000008152600401610ca290613cd7565b60405180910390fd5b600060086000815480929190610cc090613e50565b919050559050610cd08482612472565b604051806060016040528082815260200160016003811115610cf557610cf461374d565b5b815260200184815250600b60008381526020019081526020016000206000820151816000015560208201518160010160006101000a81548160ff02191690836003811115610d4657610d4561374d565b5b02179055506040820151816002019081610d609190614044565b50905050600c60008573ffffffffffffffffffffffffffffffffffffffff1673ffffffffffffffffffffffffffffffffffffffff1681526020019081526020016000208190806001815401808255809150506001900390600052602060002001600090919091909150558373ffffffffffffffffffffffffffffffffffffffff16817f9c4ad74928fec1ee86181680df0e76bf575b79ea2a0347f7ed270884bdd26ad785604051610e11919061326d565b60405180910390a381600d600083815260200190815260200160002081905550807f6d63dff809eaa3125b19b928b3955c261658ff6781148e3d3e6a939b7bee2ba96001604051610e629190613dcf565b60405180910390a2807f2f9b23898410304c2b8c29547330c8ef08ad5f7c80b5204df939744931e2752083604051610e9a9190613732565b60405180910390a250505050565b6060600c60008373ffffffffffffffffffffffffffffffffffffffff1673ffffffffffffffffffffffffffffffffffffffff168152602001908152602001600020805480602002602001604051908101604052809291908181526020018280548015610f3357602002820191906000526020600020905b815481526020019060010190808311610f1f575b50505050509050919050565b60096020528060005260406000206000915090508054610f5e90613c5a565b80601f0160208091040260200160405190810160405280929190818152602001828054610f8a90613c5a565b8015610fd75780601f10610fac57610100808354040283529160200191610fd7565b820191906000526020600020905b815481529060010190602001808311610fba57829003601f168201915b505050505081565b60016002811115610ff357610ff261374d565b5b600a60003373ffffffffffffffffffffffffffffffffffffffff1673ffffffffffffffffffffffffffffffffffffffff16815260200190815260200160002060009054906101000a900460ff1660028111156110525761105161374d565b5b14611092576040517f08c379a000000000000000000000000000000000000000000000000000000000815260040161108990613cd7565b60405180910390fd5b600160038111156110a6576110a561374d565b5b600b600083815260200190815260200160002060010160009054906101000a900460ff1660038111156110dc576110db61374d565b5b1461111c576040517f08c379a000000000000000000000000000000000000000000000000000000000815260040161111390614162565b60405180910390fd5b600d6000828152602001908152602001600020543414611171576040517f08c379a0000000000000000000000000000000000000000000000000000000008152600401611168906141ce565b60405180910390fd5b33600e600083815260200190815260200160002060006101000a81548173ffffffffffffffffffffffffffffffffffffffff021916908373ffffffffffffffffffffffffffffffffffffffff1602179055506002600b600083815260200190815260200160002060010160006101000a81548160ff021916908360038111156111fd576111fc61374d565b5b0217905550807f6d63dff809eaa3125b19b928b3955c261658ff6781148e3d3e6a939b7bee2ba960026040516112339190613dcf565b60405180910390a23373ffffffffffffffffffffffffffffffffffffffff16817fc09888d0d13bc8be6e776deb914e6e8696b8167f87668e53dc967dd7ebb8a50060405160405180910390a350565b600061128d82612138565b9050919050565b600e6020528060005260406000206000915054906101000a900473ffffffffffffffffffffffffffffffffffffffff1681565b600c60205281600052604060002081815481106112e357600080fd5b90600052602060002001600091509150505481565b60008073ffffffffffffffffffffffffffffffffffffffff168273ffffffffffffffffffffffffffffffffffffffff160361136b5760006040517f89c62b640000000000000000000000000000000000000000000000000000000081526004016113629190613333565b60405180910390fd5b600360008373ffffffffffffffffffffffffffffffffffffffff1673ffffffffffffffffffffffffffffffffffffffff168152602001908152602001600020549050919050565b6113ba612490565b6113c46000612517565b565b600060028111156113da576113d961374d565b5b600a60003373ffffffffffffffffffffffffffffffffffffffff1673ffffffffffffffffffffffffffffffffffffffff16815260200190815260200160002060009054906101000a900460ff1660028111156114395761143861374d565b5b14611479576040517f08c379a00000000000000000000000000000000000000000000000000000000081526004016114709061423a565b60405180910390fd5b6001600a60003373ffffffffffffffffffffffffffffffffffffffff1673ffffffffffffffffffffffffffffffffffffffff16815260200190815260200160002060006101000a81548160ff021916908360028111156114dc576114db61374d565b5b02179055503373ffffffffffffffffffffffffffffffffffffffff167f48cac28ad4dc618e15f4c2dd5e97751182f166de97b25618318b2112aa951a2f60405161152590614280565b60405180910390a2565b600d6020528060005260406000206000915090505481565b6000600760009054906101000a900473ffffffffffffffffffffffffffffffffffffffff16905090565b60606001805461158090613c5a565b80601f01602080910402602001604051908101604052809291908181526020018280546115ac90613c5a565b80156115f95780601f106115ce576101008083540402835291602001916115f9565b820191906000526020600020905b8154815290600101906020018083116115dc57829003601f168201915b5050505050905090565b600a6020528060005260406000206000915054906101000a900460ff1681565b61163561162e6121fd565b83836125dd565b5050565b6001600281111561164d5761164c61374d565b5b600a60003373ffffffffffffffffffffffffffffffffffffffff1673ffffffffffffffffffffffffffffffffffffffff16815260200190815260200160002060009054906101000a900460ff1660028111156116ac576116ab61374d565b5b146116ec576040517f08c379a00000000000000000000000000000000000000000000000000000000081526004016116e390613cd7565b60405180910390fd5b60006116f785611282565b90503373ffffffffffffffffffffffffffffffffffffffff168173ffffffffffffffffffffffffffffffffffffffff1614611767576040517f08c379a000000000000000000000000000000000000000000000000000000000815260040161175e906142ec565b60405180910390fd5b8373ffffffffffffffffffffffffffffffffffffffff16600e600087815260200190815260200160002060009054906101000a900473ffffffffffffffffffffffffffffffffffffffff1673ffffffffffffffffffffffffffffffffffffffff1614611808576040517f08c379a00000000000000000000000000000000000000000000000000000000081526004016117ff90614358565b60405180910390fd5b611812818661274c565b600c60008573ffffffffffffffffffffffffffffffffffffffff1673ffffffffffffffffffffffffffffffffffffffff168152602001908152602001600020859080600181540180825580915050600190039060005260206000200160009091909190915055611883818587612853565b8282600b600088815260200190815260200160002060020191826118a8929190614383565b506118f78584848080601f016020809104026020016040519081016040528093929190818152602001838380828437600081840152601f19601f820116905080830192505050505050506129c0565b6000600d60008781526020019081526020016000205490506000600e600088815260200190815260200160002060006101000a81548173ffffffffffffffffffffffffffffffffffffffff021916908373ffffffffffffffffffffffffffffffffffffffff1602179055506000600d6000888152602001908152602001600020819055508173ffffffffffffffffffffffffffffffffffffffff166108fc829081150290604051600060405180830381858888f193505050501580156119c1573d6000803e3d6000fd5b508473ffffffffffffffffffffffffffffffffffffffff16867f5e569b537d45304a15b956ec8cb2aaa2dfcff5385fdb4828e7c914a388e805cf60405160405180910390a3505050505050565b611a19848484610ad6565b611a2d611a246121fd565b85858585612a1c565b50505050565b60006002811115611a4757611a4661374d565b5b600a60003373ffffffffffffffffffffffffffffffffffffffff1673ffffffffffffffffffffffffffffffffffffffff16815260200190815260200160002060009054906101000a900460ff166002811115611aa657611aa561374d565b5b14611ae6576040517f08c379a0000000000000000000000000000000000000000000000000000000008152600401611add9061423a565b60405180910390fd5b6001600a60003373ffffffffffffffffffffffffffffffffffffffff1673ffffffffffffffffffffffffffffffffffffffff16815260200190815260200160002060006101000a81548160ff02191690836002811115611b4957611b4861374d565b5b021790555080600960003373ffffffffffffffffffffffffffffffffffffffff1673ffffffffffffffffffffffffffffffffffffffff1681526020019081526020016000209081611b9a9190614044565b503373ffffffffffffffffffffffffffffffffffffffff167f48cac28ad4dc618e15f4c2dd5e97751182f166de97b25618318b2112aa951a2f82604051611be1919061326d565b60405180910390a250565b6060611bf782612217565b611c36576040517f08c379a0000000000000000000000000000000000000000000000000000000008152600401611c2d9061449f565b60405180910390fd5b600b6000838152602001908152602001600020600201604051602001611c5c9190614599565b6040516020818303038152906040529050919050565b606060006001600854611c8591906145bb565b905060008167ffffffffffffffff811115611ca357611ca261347c565b5b604051908082528060200260200182016040528015611cd15781602001602082028036833780820191505090505b50905060005b82811015611d1857600181611cec91906145ef565b828281518110611cff57611cfe614623565b5b6020026020010181815250508080600101915050611cd7565b50809250505090565b600b6020528060005260406000206000915090508060000154908060010160009054906101000a900460ff1690806002018054611d5d90613c5a565b80601f0160208091040260200160405190810160405280929190818152602001828054611d8990613c5a565b8015611dd65780601f10611dab57610100808354040283529160200191611dd6565b820191906000526020600020905b815481529060010190602001808311611db957829003601f168201915b5050505050905083565b6000600560008473ffffffffffffffffffffffffffffffffffffffff1673ffffffffffffffffffffffffffffffffffffffff16815260200190815260200160002060008373ffffffffffffffffffffffffffffffffffffffff1673ffffffffffffffffffffffffffffffffffffffff16815260200190815260200160002060009054906101000a900460ff16905092915050565b611e7c6130db565b6000611e8783612217565b611ec6576040517f08c379a0000000000000000000000000000000000000000000000000000000008152600401611ebd9061469e565b60405180910390fd5b600b6000848152602001908152602001600020611ee284611282565b81604051806060016040529081600082015481526020016001820160009054906101000a900460ff166003811115611f1d57611f1c61374d565b5b6003811115611f2f57611f2e61374d565b5b8152602001600282018054611f4390613c5a565b80601f0160208091040260200160405190810160405280929190818152602001828054611f6f90613c5a565b8015611fbc5780601f10611f9157610100808354040283529160200191611fbc565b820191906000526020600020905b815481529060010190602001808311611f9f57829003601f168201915b505050505081525050915091509150915091565b611fd8612490565b600073ffffffffffffffffffffffffffffffffffffffff168173ffffffffffffffffffffffffffffffffffffffff160361204a5760006040517f1e4fbdf70000000000000000000000000000000000000000000000000000000081526004016120419190613333565b60405180910390fd5b61205381612517565b50565b60007f80ac58cd000000000000000000000000000000000000000000000000000000007bffffffffffffffffffffffffffffffffffffffffffffffffffffffff1916827bffffffffffffffffffffffffffffffffffffffffffffffffffffffff1916148061212157507f5b5e139f000000000000000000000000000000000000000000000000000000007bffffffffffffffffffffffffffffffffffffffffffffffffffffffff1916827bffffffffffffffffffffffffffffffffffffffffffffffffffffffff1916145b80612131575061213082612bcd565b5b9050919050565b60008061214483612c37565b9050600073ffffffffffffffffffffffffffffffffffffffff168173ffffffffffffffffffffffffffffffffffffffff16036121b757826040517f7e2732890000000000000000000000000000000000000000000000000000000081526004016121ae9190613732565b60405180910390fd5b80915050919050565b60006004600083815260200190815260200160002060009054906101000a900473ffffffffffffffffffffffffffffffffffffffff169050919050565b600033905090565b6122128383836001612c74565b505050565b60008073ffffffffffffffffffffffffffffffffffffffff1661223983612c37565b73ffffffffffffffffffffffffffffffffffffffff1614159050919050565b60008061226484612c37565b9050600073ffffffffffffffffffffffffffffffffffffffff168373ffffffffffffffffffffffffffffffffffffffff16146122a6576122a5818486612e39565b5b600073ffffffffffffffffffffffffffffffffffffffff168173ffffffffffffffffffffffffffffffffffffffff1614612337576122e8600085600080612c74565b6001600360008373ffffffffffffffffffffffffffffffffffffffff1673ffffffffffffffffffffffffffffffffffffffff168152602001908152602001600020600082825403925050819055505b600073ffffffffffffffffffffffffffffffffffffffff168573ffffffffffffffffffffffffffffffffffffffff16146123ba576001600360008773ffffffffffffffffffffffffffffffffffffffff1673ffffffffffffffffffffffffffffffffffffffff168152602001908152602001600020600082825401925050819055505b846002600086815260200190815260200160002060006101000a81548173ffffffffffffffffffffffffffffffffffffffff021916908373ffffffffffffffffffffffffffffffffffffffff160217905550838573ffffffffffffffffffffffffffffffffffffffff168273ffffffffffffffffffffffffffffffffffffffff167fddf252ad1be2c89b69c2b068fc378daa952ba7f163c4a11628f55a4df523b3ef60405160405180910390a4809150509392505050565b61248c828260405180602001604052806000815250612efd565b5050565b6124986121fd565b73ffffffffffffffffffffffffffffffffffffffff166124b6611547565b73ffffffffffffffffffffffffffffffffffffffff1614612515576124d96121fd565b6040517f118cdaa700000000000000000000000000000000000000000000000000000000815260040161250c9190613333565b60405180910390fd5b565b6000600760009054906101000a900473ffffffffffffffffffffffffffffffffffffffff16905081600760006101000a81548173ffffffffffffffffffffffffffffffffffffffff021916908373ffffffffffffffffffffffffffffffffffffffff1602179055508173ffffffffffffffffffffffffffffffffffffffff168173ffffffffffffffffffffffffffffffffffffffff167f8be0079c531659141344cd1fd0a4f28419497f9722a3daafe3b4186f6b6457e060405160405180910390a35050565b600073ffffffffffffffffffffffffffffffffffffffff168273ffffffffffffffffffffffffffffffffffffffff160361264e57816040517f5b08ba180000000000000000000000000000000000000000000000000000000081526004016126459190613333565b60405180910390fd5b80600560008573ffffffffffffffffffffffffffffffffffffffff1673ffffffffffffffffffffffffffffffffffffffff16815260200190815260200160002060008473ffffffffffffffffffffffffffffffffffffffff1673ffffffffffffffffffffffffffffffffffffffff16815260200190815260200160002060006101000a81548160ff0219169083151502179055508173ffffffffffffffffffffffffffffffffffffffff168373ffffffffffffffffffffffffffffffffffffffff167f17307eab39ab6107e8899845ad3d59bd9653f200f220920489ca2b5937696c318360405161273f91906131c2565b60405180910390a3505050565b6000600c60008473ffffffffffffffffffffffffffffffffffffffff1673ffffffffffffffffffffffffffffffffffffffff168152602001908152602001600020905060005b818054905081101561284c57828282815481106127b2576127b1614623565b5b90600052602060002001540361283f5781600183805490506127d491906145bb565b815481106127e5576127e4614623565b5b906000526020600020015482828154811061280357612802614623565b5b906000526020600020018190555081805480612822576128216146be565b5b60019003818190600052602060002001600090559055505061284f565b8080600101915050612792565b50505b5050565b600073ffffffffffffffffffffffffffffffffffffffff168273ffffffffffffffffffffffffffffffffffffffff16036128c55760006040517f64a0ae920000000000000000000000000000000000000000000000000000000081526004016128bc9190613333565b60405180910390fd5b60006128d383836000612258565b9050600073ffffffffffffffffffffffffffffffffffffffff168173ffffffffffffffffffffffffffffffffffffffff160361294657816040517f7e27328900000000000000000000000000000000000000000000000000000000815260040161293d9190613732565b60405180910390fd5b8373ffffffffffffffffffffffffffffffffffffffff168173ffffffffffffffffffffffffffffffffffffffff16146129ba578382826040517f64283d7b0000000000000000000000000000000000000000000000000000000081526004016129b193929190613dea565b60405180910390fd5b50505050565b806006600084815260200190815260200160002090816129e09190614044565b507ff8e1a15aba9398e019f0b49df1a4fde98ee17ae345cb5f6b5e2c27f5033e8ce782604051612a109190613732565b60405180910390a15050565b60008373ffffffffffffffffffffffffffffffffffffffff163b1115612bc6578273ffffffffffffffffffffffffffffffffffffffff1663150b7a02868685856040518563ffffffff1660e01b8152600401612a7b9493929190614742565b6020604051808303816000875af1925050508015612ab757506040513d601f19601f82011682018060405250810190612ab491906147a3565b60015b612b3b573d8060008114612ae7576040519150601f19603f3d011682016040523d82523d6000602084013e612aec565b606091505b506000815103612b3357836040517f64a0ae92000000000000000000000000000000000000000000000000000000008152600401612b2a9190613333565b60405180910390fd5b805181602001fd5b63150b7a0260e01b7bffffffffffffffffffffffffffffffffffffffffffffffffffffffff1916817bffffffffffffffffffffffffffffffffffffffffffffffffffffffff191614612bc457836040517f64a0ae92000000000000000000000000000000000000000000000000000000008152600401612bbb9190613333565b60405180910390fd5b505b5050505050565b60007f01ffc9a7000000000000000000000000000000000000000000000000000000007bffffffffffffffffffffffffffffffffffffffffffffffffffffffff1916827bffffffffffffffffffffffffffffffffffffffffffffffffffffffff1916149050919050565b60006002600083815260200190815260200160002060009054906101000a900473ffffffffffffffffffffffffffffffffffffffff169050919050565b8080612cad5750600073ffffffffffffffffffffffffffffffffffffffff168273ffffffffffffffffffffffffffffffffffffffff1614155b15612de1576000612cbd84612138565b9050600073ffffffffffffffffffffffffffffffffffffffff168373ffffffffffffffffffffffffffffffffffffffff1614158015612d2857508273ffffffffffffffffffffffffffffffffffffffff168173ffffffffffffffffffffffffffffffffffffffff1614155b8015612d3b5750612d398184611de0565b155b15612d7d57826040517fa9fbf51f000000000000000000000000000000000000000000000000000000008152600401612d749190613333565b60405180910390fd5b8115612ddf57838573ffffffffffffffffffffffffffffffffffffffff168273ffffffffffffffffffffffffffffffffffffffff167f8c5be1e5ebec7d5bd14f71427d1e84f3dd0314c0f7b2291e5b200ac8c7c3b92560405160405180910390a45b505b836004600085815260200190815260200160002060006101000a81548173ffffffffffffffffffffffffffffffffffffffff021916908373ffffffffffffffffffffffffffffffffffffffff16021790555050505050565b612e44838383612f21565b612ef857600073ffffffffffffffffffffffffffffffffffffffff168373ffffffffffffffffffffffffffffffffffffffff1603612eb957806040517f7e273289000000000000000000000000000000000000000000000000000000008152600401612eb09190613732565b60405180910390fd5b81816040517f177e802f000000000000000000000000000000000000000000000000000000008152600401612eef9291906147d0565b60405180910390fd5b505050565b612f078383612fe2565b612f1c612f126121fd565b6000858585612a1c565b505050565b60008073ffffffffffffffffffffffffffffffffffffffff168373ffffffffffffffffffffffffffffffffffffffff1614158015612fd957508273ffffffffffffffffffffffffffffffffffffffff168473ffffffffffffffffffffffffffffffffffffffff161480612f9a5750612f998484611de0565b5b80612fd857508273ffffffffffffffffffffffffffffffffffffffff16612fc0836121c0565b73ffffffffffffffffffffffffffffffffffffffff16145b5b90509392505050565b600073ffffffffffffffffffffffffffffffffffffffff168273ffffffffffffffffffffffffffffffffffffffff16036130545760006040517f64a0ae9200000000000000000000000000000000000000000000000000000000815260040161304b9190613333565b60405180910390fd5b600061306283836000612258565b9050600073ffffffffffffffffffffffffffffffffffffffff168173ffffffffffffffffffffffffffffffffffffffff16146130d65760006040517f73c6ac6e0000000000000000000000000000000000000000000000000000000081526004016130cd9190613333565b60405180910390fd5b505050565b604051806060016040528060008152602001600060038111156131015761310061374d565b5b8152602001606081525090565b6000604051905090565b600080fd5b600080fd5b60007fffffffff0000000000000000000000000000000000000000000000000000000082169050919050565b61315781613122565b811461316257600080fd5b50565b6000813590506131748161314e565b92915050565b6000602082840312156131905761318f613118565b5b600061319e84828501613165565b91505092915050565b60008115159050919050565b6131bc816131a7565b82525050565b60006020820190506131d760008301846131b3565b92915050565b600081519050919050565b600082825260208201905092915050565b60005b838110156132175780820151818401526020810190506131fc565b60008484015250505050565b6000601f19601f8301169050919050565b600061323f826131dd565b61324981856131e8565b93506132598185602086016131f9565b61326281613223565b840191505092915050565b600060208201905081810360008301526132878184613234565b905092915050565b6000819050919050565b6132a28161328f565b81146132ad57600080fd5b50565b6000813590506132bf81613299565b92915050565b6000602082840312156132db576132da613118565b5b60006132e9848285016132b0565b91505092915050565b600073ffffffffffffffffffffffffffffffffffffffff82169050919050565b600061331d826132f2565b9050919050565b61332d81613312565b82525050565b60006020820190506133486000830184613324565b92915050565b61335781613312565b811461336257600080fd5b50565b6000813590506133748161334e565b92915050565b6000806040838503121561339157613390613118565b5b600061339f85828601613365565b92505060206133b0858286016132b0565b9150509250929050565b600481106133c757600080fd5b50565b6000813590506133d9816133ba565b92915050565b600080604083850312156133f6576133f5613118565b5b6000613404858286016132b0565b9250506020613415858286016133ca565b9150509250929050565b60008060006060848603121561343857613437613118565b5b600061344686828701613365565b935050602061345786828701613365565b9250506040613468868287016132b0565b9150509250925092565b600080fd5b600080fd5b7f4e487b7100000000000000000000000000000000000000000000000000000000600052604160045260246000fd5b6134b482613223565b810181811067ffffffffffffffff821117156134d3576134d261347c565b5b80604052505050565b60006134e661310e565b90506134f282826134ab565b919050565b600067ffffffffffffffff8211156135125761351161347c565b5b61351b82613223565b9050602081019050919050565b82818337600083830152505050565b600061354a613545846134f7565b6134dc565b90508281526020810184848401111561356657613565613477565b5b613571848285613528565b509392505050565b600082601f83011261358e5761358d613472565b5b813561359e848260208601613537565b91505092915050565b6000806000606084860312156135c0576135bf613118565b5b60006135ce86828701613365565b935050602084013567ffffffffffffffff8111156135ef576135ee61311d565b5b6135fb86828701613579565b925050604061360c868287016132b0565b9150509250925092565b60006020828403121561362c5761362b613118565b5b600061363a84828501613365565b91505092915050565b600081519050919050565b600082825260208201905092915050565b6000819050602082019050919050565b6136788161328f565b82525050565b600061368a838361366f565b60208301905092915050565b6000602082019050919050565b60006136ae82613643565b6136b8818561364e565b93506136c38361365f565b8060005b838110156136f45781516136db888261367e565b97506136e683613696565b9250506001810190506136c7565b5085935050505092915050565b6000602082019050818103600083015261371b81846136a3565b905092915050565b61372c8161328f565b82525050565b60006020820190506137476000830184613723565b92915050565b7f4e487b7100000000000000000000000000000000000000000000000000000000600052602160045260246000fd5b6003811061378d5761378c61374d565b5b50565b600081905061379e8261377c565b919050565b60006137ae82613790565b9050919050565b6137be816137a3565b82525050565b60006020820190506137d960008301846137b5565b92915050565b6137e8816131a7565b81146137f357600080fd5b50565b600081359050613805816137df565b92915050565b6000806040838503121561382257613821613118565b5b600061383085828601613365565b9250506020613841858286016137f6565b9150509250929050565b600080fd5b600080fd5b60008083601f84011261386b5761386a613472565b5b8235905067ffffffffffffffff8111156138885761388761384b565b5b6020830191508360018202830111156138a4576138a3613850565b5b9250929050565b600080600080606085870312156138c5576138c4613118565b5b60006138d3878288016132b0565b94505060206138e487828801613365565b935050604085013567ffffffffffffffff8111156139055761390461311d565b5b61391187828801613855565b925092505092959194509250565b600067ffffffffffffffff82111561393a5761393961347c565b5b61394382613223565b9050602081019050919050565b600061396361395e8461391f565b6134dc565b90508281526020810184848401111561397f5761397e613477565b5b61398a848285613528565b509392505050565b600082601f8301126139a7576139a6613472565b5b81356139b7848260208601613950565b91505092915050565b600080600080608085870312156139da576139d9613118565b5b60006139e887828801613365565b94505060206139f987828801613365565b9350506040613a0a878288016132b0565b925050606085013567ffffffffffffffff811115613a2b57613a2a61311d565b5b613a3787828801613992565b91505092959194509250565b600060208284031215613a5957613a58613118565b5b600082013567ffffffffffffffff811115613a7757613a7661311d565b5b613a8384828501613579565b91505092915050565b60048110613a9d57613a9c61374d565b5b50565b6000819050613aae82613a8c565b919050565b6000613abe82613aa0565b9050919050565b613ace81613ab3565b82525050565b6000606082019050613ae96000830186613723565b613af66020830185613ac5565b8181036040830152613b088184613234565b9050949350505050565b60008060408385031215613b2957613b28613118565b5b6000613b3785828601613365565b9250506020613b4885828601613365565b9150509250929050565b613b5b81613ab3565b82525050565b600082825260208201905092915050565b6000613b7d826131dd565b613b878185613b61565b9350613b978185602086016131f9565b613ba081613223565b840191505092915050565b6000606083016000830151613bc3600086018261366f565b506020830151613bd66020860182613b52565b5060408301518482036040860152613bee8282613b72565b9150508091505092915050565b60006040820190508181036000830152613c158185613bab565b9050613c246020830184613324565b9392505050565b7f4e487b7100000000000000000000000000000000000000000000000000000000600052602260045260246000fd5b60006002820490506001821680613c7257607f821691505b602082108103613c8557613c84613c2b565b5b50919050565b7f4f6e6c792072656769737465726564207573657273207065726d697474656400600082015250565b6000613cc1601f836131e8565b9150613ccc82613c8b565b602082019050919050565b60006020820190508181036000830152613cf081613cb4565b9050919050565b7f4c616e64206e6f7420666f756e64000000000000000000000000000000000000600082015250565b6000613d2d600e836131e8565b9150613d3882613cf7565b602082019050919050565b60006020820190508181036000830152613d5c81613d20565b9050919050565b7f4f6e6c79206f776e65722063616e207570646174652073746174757300000000600082015250565b6000613d99601c836131e8565b9150613da482613d63565b602082019050919050565b60006020820190508181036000830152613dc881613d8c565b9050919050565b6000602082019050613de46000830184613ac5565b92915050565b6000606082019050613dff6000830186613324565b613e0c6020830185613723565b613e196040830184613324565b949350505050565b7f4e487b7100000000000000000000000000000000000000000000000000000000600052601160045260246000fd5b6000613e5b8261328f565b91507fffffffffffffffffffffffffffffffffffffffffffffffffffffffffffffffff8203613e8d57613e8c613e21565b5b600182019050919050565b60008190508160005260206000209050919050565b60006020601f8301049050919050565b600082821b905092915050565b600060088302613efa7fffffffffffffffffffffffffffffffffffffffffffffffffffffffffffffffff82613ebd565b613f048683613ebd565b95508019841693508086168417925050509392505050565b6000819050919050565b6000613f41613f3c613f378461328f565b613f1c565b61328f565b9050919050565b6000819050919050565b613f5b83613f26565b613f6f613f6782613f48565b848454613eca565b825550505050565b600090565b613f84613f77565b613f8f818484613f52565b505050565b5b81811015613fb357613fa8600082613f7c565b600181019050613f95565b5050565b601f821115613ff857613fc981613e98565b613fd284613ead565b81016020851015613fe1578190505b613ff5613fed85613ead565b830182613f94565b50505b505050565b600082821c905092915050565b600061401b60001984600802613ffd565b1980831691505092915050565b6000614034838361400a565b9150826002028217905092915050565b61404d826131dd565b67ffffffffffffffff8111156140665761406561347c565b5b6140708254613c5a565b61407b828285613fb7565b600060209050601f8311600181146140ae576000841561409c578287015190505b6140a68582614028565b86555061410e565b601f1984166140bc86613e98565b60005b828110156140e4578489015182556001820191506020850194506020810190506140bf565b8683101561410157848901516140fd601f89168261400a565b8355505b6001600288020188555050505b505050505050565b7f4c616e64206e6f7420666f722073616c65000000000000000000000000000000600082015250565b600061414c6011836131e8565b915061415782614116565b602082019050919050565b6000602082019050818103600083015261417b8161413f565b9050919050565b7f496e636f7272656374207061796d656e7420616d6f756e740000000000000000600082015250565b60006141b86018836131e8565b91506141c382614182565b602082019050919050565b600060208201905081810360008301526141e7816141ab565b9050919050565b7f416c726561647920726567697374657265640000000000000000000000000000600082015250565b60006142246012836131e8565b915061422f826141ee565b602082019050919050565b6000602082019050818103600083015261425381614217565b9050919050565b50565b600061426a6000836131e8565b91506142758261425a565b600082019050919050565b600060208201905081810360008301526142998161425d565b9050919050565b7f4f6e6c79206f776e65722063616e20617070726f7665207472616e7366657200600082015250565b60006142d6601f836131e8565b91506142e1826142a0565b602082019050919050565b60006020820190508181036000830152614305816142c9565b9050919050565b7f4275796572206d69736d61746368000000000000000000000000000000000000600082015250565b6000614342600e836131e8565b915061434d8261430c565b602082019050919050565b6000602082019050818103600083015261437181614335565b9050919050565b600082905092915050565b61438d8383614378565b67ffffffffffffffff8111156143a6576143a561347c565b5b6143b08254613c5a565b6143bb828285613fb7565b6000601f8311600181146143ea57600084156143d8578287013590505b6143e28582614028565b86555061444a565b601f1984166143f886613e98565b60005b82811015614420578489013582556001820191506020850194506020810190506143fb565b8683101561443d5784890135614439601f89168261400a565b8355505b6001600288020188555050505b50505050505050565b7f546f6b656e20646f6573206e6f74206578697374000000000000000000000000600082015250565b60006144896014836131e8565b915061449482614453565b602082019050919050565b600060208201905081810360008301526144b88161447c565b9050919050565b600081905092915050565b7f697066733a2f2f00000000000000000000000000000000000000000000000000600082015250565b60006145006007836144bf565b915061450b826144ca565b600782019050919050565b6000815461452381613c5a565b61452d81866144bf565b94506001821660008114614548576001811461455d57614590565b60ff1983168652811515820286019350614590565b61456685613e98565b60005b8381101561458857815481890152600182019150602081019050614569565b838801955050505b50505092915050565b60006145a4826144f3565b91506145b08284614516565b915081905092915050565b60006145c68261328f565b91506145d18361328f565b92508282039050818111156145e9576145e8613e21565b5b92915050565b60006145fa8261328f565b91506146058361328f565b925082820190508082111561461d5761461c613e21565b5b92915050565b7f4e487b7100000000000000000000000000000000000000000000000000000000600052603260045260246000fd5b7f4c616e6420646f6573206e6f7420657869737400000000000000000000000000600082015250565b60006146886013836131e8565b915061469382614652565b602082019050919050565b600060208201905081810360008301526146b78161467b565b9050919050565b7f4e487b7100000000000000000000000000000000000000000000000000000000600052603160045260246000fd5b600081519050919050565b600082825260208201905092915050565b6000614714826146ed565b61471e81856146f8565b935061472e8185602086016131f9565b61473781613223565b840191505092915050565b60006080820190506147576000830187613324565b6147646020830186613324565b6147716040830185613723565b81810360608301526147838184614709565b905095945050505050565b60008151905061479d8161314e565b92915050565b6000602082840312156147b9576147b8613118565b5b60006147c78482850161478e565b91505092915050565b60006040820190506147e56000830185613324565b6147f26020830184613723565b939250505056fea264697066735822122093a97ac710753596785ed535efe8bec86fffe8bbfcc1f3e3b533da0b594710a664736f6c634300081c0033",
  "linkReferences": {},
  "deployedLinkReferences": {}
}