{
  "_format": "hh-sol-artifact-1",
  "contractName": "LandRegistry",
  "sourceName": "contracts/LandRegistry.sol",
  "abi": [
    {
      "inputs": [],
      "stateMutability": "nonpayable",
      "type": "constructor"
    },
    {
      "inputs": [
        {
          "internalType": "address",
          "name": "sender",
          "type": "address"
        },
        {
          "internalType": "uint256",
          "name": "tokenId",
          "type": "uint256"
        },
        {
          "internalType": "address",
          "name": "owner",
          "type": "address"
        }
      ],
      "name": "ERC721IncorrectOwner",
      "type": "error"
    },
    {
      "inputs": [
        {
          "internalType": "address",
          "name": "operator",
          "type": "address"
        },
        {
          "internalType": "uint256",
          "name": "tokenId",
          "type": "uint256"
        }
      ],
      "name": "ERC721InsufficientApproval",
      "type": "error"
    },
    {
      "inputs": [
        {
          "internalType": "address",
          "name": "approver",
          "type": "address"
        }
      ],
      "name": "ERC721InvalidApprover",
      "type": "error"
    },
    {
      "inputs": [
        {
          "internalType": "address",
          "name": "operator",
          "type": "address"
        }
      ],
      "name": "ERC721InvalidOperator",
      "type": "error"
    },
    {
      "inputs": [
        {
          "internalType": "address",
          "name": "owner",
          "type": "address"
        }
      ],
      "name": "ERC721InvalidOwner",
      "type": "error"
    },
    {
      "inputs": [
        {
          "internalType": "address",
          "name": "receiver",
          "type": "address"
        }
      ],
      "name": "ERC721InvalidReceiver",
      "type": "error"
    },
    {
      "inputs": [
        {
          "internalType": "address",
          "name": "sender",
          "type": "address"
        }
      ],
      "name": "ERC721InvalidSender",
      "type": "error"
    },
    {
      "inputs": [
        {
          "internalType": "uint256",
          "name": "tokenId",
          "type": "uint256"
        }
      ],
      "name": "ERC721NonexistentToken",
      "type": "error"
    },
    {
      "inputs": [
        {
          "internalType": "address",
          "name": "owner",
          "type": "address"
        }
      ],
      "name": "OwnableInvalidOwner",
      "type": "error"
    },
    {
      "inputs": [
        {
          "internalType": "address",
          "name": "account",
          "type": "address"
        }
      ],
      "name": "OwnableUnauthorizedAccount",
      "type": "error"
    },
    {
      "anonymous": false,
      "inputs": [
        {
          "indexed": true,
          "internalType": "address",
          "name": "owner",
          "type": "address"
        },
        {
          "indexed": true,
          "internalType": "address",
          "name": "approved",
          "type": "address"
        },
        {
          "indexed": true,
          "internalType": "uint256",
          "name": "tokenId",
          "type": "uint256"
        }
      ],
      "name": "Approval",
      "type": "event"
    },
    {
      "anonymous": false,
      "inputs": [
        {
          "indexed": true,
          "internalType": "address",
          "name": "owner",
          "type": "address"
        },
        {
          "indexed": true,
          "internalType": "address",
          "name": "operator",
          "type": "address"
        },
        {
          "indexed": false,
          "internalType": "bool",
          "name": "approved",
          "type": "bool"
        }
      ],
      "name": "ApprovalForAll",
      "type": "event"
    },
    {
      "anonymous": false,
      "inputs": [
        {
          "indexed": false,
          "internalType": "uint256",
          "name": "_fromTokenId",
          "type": "uint256"
        },
        {
          "indexed": false,
          "internalType": "uint256",
          "name": "_toTokenId",
          "type": "uint256"
        }
      ],
      "name": "BatchMetadataUpdate",
      "type": "event"
    },
    {
      "anonymous": false,
      "inputs": [
        {
          "indexed": true,
          "internalType": "uint256",
          "name": "landId",
          "type": "uint256"
        },
        {
          "indexed": false,
          "internalType": "uint256",
          "name": "priceWei",
          "type": "uint256"
        }
      ],
      "name": "LandListed",
      "type": "event"
    },
    {
      "anonymous": false,
      "inputs": [
        {
          "indexed": true,
          "internalType": "uint256",
          "name": "landId",
          "type": "uint256"
        },
        {
          "indexed": true,
          "internalType": "address",
          "name": "newOwner",
          "type": "address"
        }
      ],
      "name": "LandOwnershipTransferred",
      "type": "event"
    },
    {
      "anonymous": false,
      "inputs": [
        {
          "indexed": true,
          "internalType": "uint256",
          "name": "landId",
          "type": "uint256"
        },
        {
          "indexed": true,
          "internalType": "address",
          "name": "owner",
          "type": "address"
        },
        {
          "indexed": false,
          "internalType": "string",
          "name": "metadataCID",
          "type": "string"
        }
      ],
      "name": "LandRegistered",
      "type": "event"
    },
    {
      "anonymous": false,
      "inputs": [
        {
          "indexed": true,
          "internalType": "uint256",
          "name": "landId",
          "type": "uint256"
        },
        {
          "indexed": false,
          "internalType": "enum LandRegistry.LandStatus",
          "name": "newStatus",
          "type": "uint8"
        }
      ],
      "name": "LandStatusUpdated",
      "type": "event"
    },
    {
      "anonymous": false,
      "inputs": [
        {
          "indexed": false,
          "internalType": "uint256",
          "name": "_tokenId",
          "type": "uint256"
        }
      ],
      "name": "MetadataUpdate",
      "type": "event"
    },
    {
      "anonymous": false,
      "inputs": [
        {
          "indexed": true,
          "internalType": "address",
          "name": "previousOwner",
          "type": "address"
        },
        {
          "indexed": true,
          "internalType": "address",
          "name": "newOwner",
          "type": "address"
        }
      ],
      "name": "OwnershipTransferred",
      "type": "event"
    },
    {
      "anonymous": false,
      "inputs": [
        {
          "indexed": true,
          "internalType": "uint256",
          "name": "landId",
          "type": "uint256"
        },
        {
          "indexed": true,
          "internalType": "address",
          "name": "buyer",
          "type": "address"
        }
      ],
      "name": "PurchaseRequested",
      "type": "event"
    },
    {
      "anonymous": false,
      "inputs": [
        {
          "indexed": true,
          "internalType": "address",
          "name": "from",
          "type": "address"
        },
        {
          "indexed": true,
          "internalType": "address",
          "name": "to",
          "type": "address"
        },
        {
          "indexed": true,
          "internalType": "uint256",
          "name": "tokenId",
          "type": "uint256"
        }
      ],
      "name": "Transfer",
      "type": "event"
    },
    {
      "anonymous": false,
      "inputs": [
        {
          "indexed": true,
          "internalType": "address",
          "name": "user",
          "type": "address"
        },
        {
          "indexed": false,
          "internalType": "string",
          "name": "metadataCID",
          "type": "string"
        }
      ],
      "name": "UserRegistered",
      "type": "event"
    },
    {
      "inputs": [
        {
          "internalType": "address",
          "name": "to",
          "type": "address"
        },
        {
          "internalType": "uint256",
          "name": "tokenId",
          "type": "uint256"
        }
      ],
      "name": "approve",
      "outputs": [],
      "stateMutability": "nonpayable",
      "type": "function"
    },
    {
      "inputs": [
        {
          "internalType": "address",
          "name": "owner",
          "type": "address"
        }
      ],
      "name": "balanceOf",
      "outputs": [
        {
          "internalType": "uint256",
          "name": "",
          "type": "uint256"
        }
      ],
      "stateMutability": "view",
      "type": "function"
    },
    {
      "inputs": [],
      "name": "getAllLandIds",
      "outputs": [
        {
          "internalType": "uint256[]",
          "name": "",
          "type": "uint256[]"
        }
      ],
      "stateMutability": "view",
      "type": "function"
    },
    {
      "inputs": [
        {
          "internalType": "uint256",
          "name": "tokenId",
          "type": "uint256"
        }
      ],
      "name": "getApproved",
      "outputs": [
        {
          "internalType": "address",
          "name": "",
          "type": "address"
        }
      ],
      "stateMutability": "view",
      "type": "function"
    },
    {
      "inputs": [
        {
          "internalType": "uint256",
          "name": "landId",
          "type": "uint256"
        }
      ],
      "name": "getLand",
      "outputs": [
        {
          "components": [
            {
              "internalType": "uint256",
              "name": "landId",
              "type": "uint256"
            },
            {
              "internalType": "enum LandRegistry.LandStatus",
              "name": "status",
              "type": "uint8"
            },
            {
              "internalType": "string",
              "name": "metadataCID",
              "type": "string"
            }
          ],
          "internalType": "struct LandRegistry.Land",
          "name": "land",
          "type": "tuple"
        },
        {
          "internalType": "address",
          "name": "owner",
          "type": "address"
        }
      ],
      "stateMutability": "view",
      "type": "function"
    },
    {
      "inputs": [
        {
          "internalType": "address",
          "name": "owner",
          "type": "address"
        }
      ],
      "name": "getOwnedLands",
      "outputs": [
        {
          "internalType": "uint256[]",
          "name": "",
          "type": "uint256[]"
        }
      ],
      "stateMutability": "view",
      "type": "function"
    },
    {
      "inputs": [
        {
          "internalType": "address",
          "name": "owner",
          "type": "address"
        },
        {
          "internalType": "address",
          "name": "operator",
          "type": "address"
        }
      ],
      "name": "isApprovedForAll",
      "outputs": [
        {
          "internalType": "bool",
          "name": "",
          "type": "bool"
        }
      ],
      "stateMutability": "view",
      "type": "function"
    },
    {
      "inputs": [
        {
          "internalType": "uint256",
          "name": "",
          "type": "uint256"
        }
      ],
      "name": "landPrices",
      "outputs": [
        {
          "internalType": "uint256",
          "name": "",
          "type": "uint256"
        }
      ],
      "stateMutability": "view",
      "type": "function"
    },
    {
      "inputs": [
        {
          "internalType": "uint256",
          "name": "",
          "type": "uint256"
        }
      ],
      "name": "lands",
      "outputs": [
        {
          "internalType": "uint256",
          "name": "landId",
          "type": "uint256"
        },
        {
          "internalType": "enum LandRegistry.LandStatus",
          "name": "status",
          "type": "uint8"
        },
        {
          "internalType": "string",
          "name": "metadataCID",
          "type": "string"
        }
      ],
      "stateMutability": "view",
      "type": "function"
    },
    {
      "inputs": [],
      "name": "name",
      "outputs": [
        {
          "internalType": "string",
          "name": "",
          "type": "string"
        }
      ],
      "stateMutability": "view",
      "type": "function"
    },
    {
      "inputs": [],
      "name": "owner",
      "outputs": [
        {
          "internalType": "address",
          "name": "",
          "type": "address"
        }
      ],
      "stateMutability": "view",
      "type": "function"
    },
    {
      "inputs": [
        {
          "internalType": "uint256",
          "name": "tokenId",
          "type": "uint256"
        }
      ],
      "name": "ownerOf",
      "outputs": [
        {
          "internalType": "address",
          "name": "",
          "type": "address"
        }
      ],
      "stateMutability": "view",
      "type": "function"
    },
    {
      "inputs": [
        {
          "internalType": "address",
          "name": "",
          "type": "address"
        },
        {
          "internalType": "uint256",
          "name": "",
          "type": "uint256"
        }
      ],
      "name": "ownerToLandIds",
      "outputs": [
        {
          "internalType": "uint256",
          "name": "",
          "type": "uint256"
        }
      ],
      "stateMutability": "view",
      "type": "function"
    },
    {
      "inputs": [
        {
          "internalType": "uint256",
          "name": "",
          "type": "uint256"
        }
      ],
      "name": "pendingBuyer",
      "outputs": [
        {
          "internalType": "address",
          "name": "",
          "type": "address"
        }
      ],
      "stateMutability": "view",
      "type": "function"
    },
    {
      "inputs": [
        {
          "internalType": "address",
          "name": "to",
          "type": "address"
        },
        {
          "internalType": "string",
          "name": "metadataCID",
          "type": "string"
        },
        {
          "internalType": "uint256",
          "name": "priceWei",
          "type": "uint256"
        }
      ],
      "name": "registerLand",
      "outputs": [],
      "stateMutability": "nonpayable",
      "type": "function"
    },
    {
      "inputs": [
        {
          "internalType": "string",
          "name": "cid",
          "type": "string"
        }
      ],
      "name": "registerUserWithCID",
      "outputs": [],
      "stateMutability": "nonpayable",
      "type": "function"
    },
    {
      "inputs": [],
      "name": "renounceOwnership",
      "outputs": [],
      "stateMutability": "nonpayable",
      "type": "function"
    },
    {
      "inputs": [
        {
          "internalType": "uint256",
          "name": "landId",
          "type": "uint256"
        }
      ],
      "name": "requestToBuy",
      "outputs": [],
      "stateMutability": "payable",
      "type": "function"
    },
    {
      "inputs": [
        {
          "internalType": "address",
          "name": "",
          "type": "address"
        }
      ],
      "name": "roles",
      "outputs": [
        {
          "internalType": "enum LandRegistry.Role",
          "name": "",
          "type": "uint8"
        }
      ],
      "stateMutability": "view",
      "type": "function"
    },
    {
      "inputs": [
        {
          "internalType": "address",
          "name": "from",
          "type": "address"
        },
        {
          "internalType": "address",
          "name": "to",
          "type": "address"
        },
        {
          "internalType": "uint256",
          "name": "tokenId",
          "type": "uint256"
        }
      ],
      "name": "safeTransferFrom",
      "outputs": [],
      "stateMutability": "nonpayable",
      "type": "function"
    },
    {
      "inputs": [
        {
          "internalType": "address",
          "name": "from",
          "type": "address"
        },
        {
          "internalType": "address",
          "name": "to",
          "type": "address"
        },
        {
          "internalType": "uint256",
          "name": "tokenId",
          "type": "uint256"
        },
        {
          "internalType": "bytes",
          "name": "data",
          "type": "bytes"
        }
      ],
      "name": "safeTransferFrom",
      "outputs": [],
      "stateMutability": "nonpayable",
      "type": "function"
    },
    {
      "inputs": [],
      "name": "selfRegisterUser",
      "outputs": [],
      "stateMutability": "nonpayable",
      "type": "function"
    },
    {
      "inputs": [
        {
          "internalType": "address",
          "name": "operator",
          "type": "address"
        },
        {
          "internalType": "bool",
          "name": "approved",
          "type": "bool"
        }
      ],
      "name": "setApprovalForAll",
      "outputs": [],
      "stateMutability": "nonpayable",
      "type": "function"
    },
    {
      "inputs": [
        {
          "internalType": "bytes4",
          "name": "interfaceId",
          "type": "bytes4"
        }
      ],
      "name": "supportsInterface",
      "outputs": [
        {
          "internalType": "bool",
          "name": "",
          "type": "bool"
        }
      ],
      "stateMutability": "view",
      "type": "function"
    },
    {
      "inputs": [],
      "name": "symbol",
      "outputs": [
        {
          "internalType": "string",
          "name": "",
          "type": "string"
        }
      ],
      "stateMutability": "view",
      "type": "function"
    },
    {
      "inputs": [
        {
          "internalType": "uint256",
          "name": "tokenId",
          "type": "uint256"
        }
      ],
      "name": "tokenURI",
      "outputs": [
        {
          "internalType": "string",
          "name": "",
          "type": "string"
        }
      ],
      "stateMutability": "view",
      "type": "function"
    },
    {
      "inputs": [
        {
          "internalType": "address",
          "name": "from",
          "type": "address"
        },
        {
          "internalType": "address",
          "name": "to",
          "type": "address"
        },
        {
          "internalType": "uint256",
          "name": "tokenId",
          "type": "uint256"
        }
      ],
      "name": "transferFrom",
      "outputs": [],
      "stateMutability": "nonpayable",
      "type": "function"
    },
    {
      "inputs": [
        {
          "internalType": "uint256",
          "name": "landId",
          "type": "uint256"
        },
        {
          "internalType": "address",
          "name": "newOwner",
          "type": "address"
        },
        {
          "internalType": "string",
          "name": "newMetadataCID",
          "type": "string"
        }
      ],
      "name": "transferLandOwnership",
      "outputs": [],
      "stateMutability": "nonpayable",
      "type": "function"
    },
    {
      "inputs": [
        {
          "internalType": "address",
          "name": "newOwner",
          "type": "address"
        }
      ],
      "name": "transferOwnership",
      "outputs": [],
      "stateMutability": "nonpayable",
      "type": "function"
    },
    {
      "inputs": [
        {
          "internalType": "uint256",
          "name": "landId",
          "type": "uint256"
        },
        {
          "internalType": "enum LandRegistry.LandStatus",
          "name": "newStatus",
          "type": "uint8"
        }
      ],
      "name": "updateLandStatus",
      "outputs": [],
      "stateMutability": "nonpayable",
      "type": "function"
    },
    {
      "inputs": [
        {
          "internalType": "address",
          "name": "",
          "type": "address"
        }
      ],
      "name": "userMetadataCID",
      "outputs": [
        {
          "internalType": "string",
          "name": "",
          "type": "string"
        }
      ],
      "stateMutability": "view",
      "type": "function"
    }
  ],
  "bytecode": "0x6080604052600160085534801561001557600080fd5b50336040518060400160405280600781526020017f476f764c616e64000000000000000000000000000000000000000000000000008152506040518060400160405280600381526020017f4d4c4e000000000000000000000000000000000000000000000000000000000081525081600090816100929190610442565b5080600190816100a29190610442565b505050600073ffffffffffffffffffffffffffffffffffffffff168173ffffffffffffffffffffffffffffffffffffffff16036101175760006040517f1e4fbdf700000000000000000000000000000000000000000000000000000000815260040161010e9190610555565b60405180910390fd5b6101268161012c60201b60201c565b50610570565b6000600760009054906101000a900473ffffffffffffffffffffffffffffffffffffffff16905081600760006101000a81548173ffffffffffffffffffffffffffffffffffffffff021916908373ffffffffffffffffffffffffffffffffffffffff1602179055508173ffffffffffffffffffffffffffffffffffffffff168173ffffffffffffffffffffffffffffffffffffffff167f8be0079c531659141344cd1fd0a4f28419497f9722a3daafe3b4186f6b6457e060405160405180910390a35050565b600081519050919050565b7f4e487b7100000000000000000000000000000000000000000000000000000000600052604160045260246000fd5b7f4e487b7100000000000000000000000000000000000000000000000000000000600052602260045260246000fd5b6000600282049050600182168061027357607f821691505b6020821081036102865761028561022c565b5b50919050565b60008190508160005260206000209050919050565b60006020601f8301049050919050565b600082821b905092915050565b6000600883026102ee7fffffffffffffffffffffffffffffffffffffffffffffffffffffffffffffffff826102b1565b6102f886836102b1565b95508019841693508086168417925050509392505050565b6000819050919050565b6000819050919050565b600061033f61033a61033584610310565b61031a565b610310565b9050919050565b6000819050919050565b61035983610324565b61036d61036582610346565b8484546102be565b825550505050565b600090565b610382610375565b61038d818484610350565b505050565b5b818110156103b1576103a660008261037a565b600181019050610393565b5050565b601f8211156103f6576103c78161028c565b6103d0846102a1565b810160208510156103df578190505b6103f36103eb856102a1565b830182610392565b50505b505050565b600082821c905092915050565b6000610419600019846008026103fb565b1980831691505092915050565b60006104328383610408565b9150826002028217905092915050565b61044b826101f2565b67ffffffffffffffff811115610464576104636101fd565b5b61046e825461025b565b6104798282856103b5565b600060209050601f8311600181146104ac576000841561049a578287015190505b6104a48582610426565b86555061050c565b601f1984166104ba8661028c565b60005b828110156104e2578489015182556001820191506020850194506020810190506104bd565b868310156104ff57848901516104fb601f891682610408565b8355505b6001600288020188555050505b505050505050565b600073ffffffffffffffffffffffffffffffffffffffff82169050919050565b600061053f82610514565b9050919050565b61054f81610534565b82525050565b600060208201905061056a6000830184610546565b92915050565b6148a78061057f6000396000f3fe6080604052600436106101d85760003560e01c8063715018a611610102578063b88d4fde11610095578063e261f1e511610064578063e261f1e5146106e3578063e985e9c514610722578063f02dd53f1461075f578063f2fde38b1461079d576101d8565b8063b88d4fde14610629578063bee4918c14610652578063c87b56dd1461067b578063d7dee192146106b8576101d8565b806395d89b41116100d157806395d89b411461056f578063993746421461059a578063a22cb465146105d7578063aa2a906b14610600576101d8565b8063715018a6146104d9578063772afef4146104f05780637bb2d6db146105075780638da5cb5b14610544576101d8565b80634bde01f71161017a5780636352211e116101495780636352211e146103e55780636480a5d21461042257806366f487ed1461045f57806370a082311461049c576101d8565b80634bde01f714610326578063519ea7051461034f5780635b48d9ae1461038c5780635c7b0308146103c9576101d8565b8063095ea7b3116101b6578063095ea7b314610282578063174a8fe7146102ab57806323b872dd146102d457806342842e0e146102fd576101d8565b806301ffc9a7146101dd57806306fdde031461021a578063081812fc14610245575b600080fd5b3480156101e957600080fd5b5061020460048036038101906101ff91906131f2565b6107c6565b604051610211919061323a565b60405180910390f35b34801561022657600080fd5b5061022f610827565b60405161023c91906132e5565b60405180910390f35b34801561025157600080fd5b5061026c6004803603810190610267919061333d565b6108b9565b60405161027991906133ab565b60405180910390f35b34801561028e57600080fd5b506102a960048036038101906102a491906133f2565b6108d5565b005b3480156102b757600080fd5b506102d260048036038101906102cd9190613457565b6108eb565b005b3480156102e057600080fd5b506102fb60048036038101906102f69190613497565b610ad6565b005b34801561030957600080fd5b50610324600480360381019061031f9190613497565b610bd8565b005b34801561033257600080fd5b5061034d6004803603810190610348919061361f565b610bf8565b005b34801561035b57600080fd5b506103766004803603810190610371919061368e565b610ea8565b6040516103839190613779565b60405180910390f35b34801561039857600080fd5b506103b360048036038101906103ae919061368e565b610f3f565b6040516103c091906132e5565b60405180910390f35b6103e360048036038101906103de919061333d565b610fdf565b005b3480156103f157600080fd5b5061040c6004803603810190610407919061333d565b611282565b60405161041991906133ab565b60405180910390f35b34801561042e57600080fd5b506104496004803603810190610444919061333d565b611294565b60405161045691906133ab565b60405180910390f35b34801561046b57600080fd5b50610486600480360381019061048191906133f2565b6112c7565b60405161049391906137aa565b60405180910390f35b3480156104a857600080fd5b506104c360048036038101906104be919061368e565b6112f8565b6040516104d091906137aa565b60405180910390f35b3480156104e557600080fd5b506104ee6113b2565b005b3480156104fc57600080fd5b506105056113c6565b005b34801561051357600080fd5b5061052e6004803603810190610529919061333d565b61152f565b60405161053b91906137aa565b60405180910390f35b34801561055057600080fd5b50610559611547565b60405161056691906133ab565b60405180910390f35b34801561057b57600080fd5b50610584611571565b60405161059191906132e5565b60405180910390f35b3480156105a657600080fd5b506105c160048036038101906105bc919061368e565b611603565b6040516105ce919061383c565b60405180910390f35b3480156105e357600080fd5b506105fe60048036038101906105f99190613883565b611623565b005b34801561060c57600080fd5b5061062760048036038101906106229190613923565b611639565b005b34801561063557600080fd5b50610650600480360381019061064b9190613a38565b611a86565b005b34801561065e57600080fd5b5061067960048036038101906106749190613abb565b611aab565b005b34801561068757600080fd5b506106a2600480360381019061069d919061333d565b611c64565b6040516106af91906132e5565b60405180910390f35b3480156106c457600080fd5b506106cd611cea565b6040516106da9190613779565b60405180910390f35b3480156106ef57600080fd5b5061070a6004803603810190610705919061333d565b611d99565b60405161071993929190613b4c565b60405180910390f35b34801561072e57600080fd5b5061074960048036038101906107449190613b8a565b611e58565b604051610756919061323a565b60405180910390f35b34801561076b57600080fd5b506107866004803603810190610781919061333d565b611eec565b604051610794929190613c73565b60405180910390f35b3480156107a957600080fd5b506107c460048036038101906107bf919061368e565b612048565b005b6000634906490660e01b7bffffffffffffffffffffffffffffffffffffffffffffffffffffffff1916827bffffffffffffffffffffffffffffffffffffffffffffffffffffffff19161480610820575061081f826120ce565b5b9050919050565b60606000805461083690613cd2565b80601f016020809104026020016040519081016040528092919081815260200182805461086290613cd2565b80156108af5780601f10610884576101008083540402835291602001916108af565b820191906000526020600020905b81548152906001019060200180831161089257829003601f168201915b5050505050905090565b60006108c4826121b0565b506108ce82612238565b9050919050565b6108e782826108e2612275565b61227d565b5050565b600160028111156108ff576108fe6137c5565b5b600a60003373ffffffffffffffffffffffffffffffffffffffff1673ffffffffffffffffffffffffffffffffffffffff16815260200190815260200160002060009054906101000a900460ff16600281111561095e5761095d6137c5565b5b1461099e576040517f08c379a000000000000000000000000000000000000000000000000000000000815260040161099590613d4f565b60405180910390fd5b6109a78261228f565b6109e6576040517f08c379a00000000000000000000000000000000000000000000000000000000081526004016109dd90613dbb565b60405180910390fd5b3373ffffffffffffffffffffffffffffffffffffffff16610a0683611282565b73ffffffffffffffffffffffffffffffffffffffff1614610a5c576040517f08c379a0000000000000000000000000000000000000000000000000000000008152600401610a5390613e27565b60405180910390fd5b80600b600084815260200190815260200160002060010160006101000a81548160ff02191690836004811115610a9557610a946137c5565b5b0217905550817f6d63dff809eaa3125b19b928b3955c261658ff6781148e3d3e6a939b7bee2ba982604051610aca9190613e47565b60405180910390a25050565b600073ffffffffffffffffffffffffffffffffffffffff168273ffffffffffffffffffffffffffffffffffffffff1603610b485760006040517f64a0ae92000000000000000000000000000000000000000000000000000000008152600401610b3f91906133ab565b60405180910390fd5b6000610b5c8383610b57612275565b6122d0565b90508373ffffffffffffffffffffffffffffffffffffffff168173ffffffffffffffffffffffffffffffffffffffff1614610bd2578382826040517f64283d7b000000000000000000000000000000000000000000000000000000008152600401610bc993929190613e62565b60405180910390fd5b50505050565b610bf383838360405180602001604052806000815250611a86565b505050565b60016002811115610c0c57610c0b6137c5565b5b600a60003373ffffffffffffffffffffffffffffffffffffffff1673ffffffffffffffffffffffffffffffffffffffff16815260200190815260200160002060009054906101000a900460ff166002811115610c6b57610c6a6137c5565b5b14610cab576040517f08c379a0000000000000000000000000000000000000000000000000000000008152600401610ca290613d4f565b60405180910390fd5b600060086000815480929190610cc090613ec8565b919050559050610cd084826124ea565b604051806060016040528082815260200160016004811115610cf557610cf46137c5565b5b815260200184815250600b60008381526020019081526020016000206000820151816000015560208201518160010160006101000a81548160ff02191690836004811115610d4657610d456137c5565b5b02179055506040820151816002019081610d6091906140bc565b50905050600c60008573ffffffffffffffffffffffffffffffffffffffff1673ffffffffffffffffffffffffffffffffffffffff1681526020019081526020016000208190806001815401808255809150506001900390600052602060002001600090919091909150558373ffffffffffffffffffffffffffffffffffffffff16817f9c4ad74928fec1ee86181680df0e76bf575b79ea2a0347f7ed270884bdd26ad785604051610e1191906132e5565b60405180910390a381600d600083815260200190815260200160002081905550807f6d63dff809eaa3125b19b928b3955c261658ff6781148e3d3e6a939b7bee2ba96001604051610e629190613e47565b60405180910390a2807f2f9b23898410304c2b8c29547330c8ef08ad5f7c80b5204df939744931e2752083604051610e9a91906137aa565b60405180910390a250505050565b6060600c60008373ffffffffffffffffffffffffffffffffffffffff1673ffffffffffffffffffffffffffffffffffffffff168152602001908152602001600020805480602002602001604051908101604052809291908181526020018280548015610f3357602002820191906000526020600020905b815481526020019060010190808311610f1f575b50505050509050919050565b60096020528060005260406000206000915090508054610f5e90613cd2565b80601f0160208091040260200160405190810160405280929190818152602001828054610f8a90613cd2565b8015610fd75780601f10610fac57610100808354040283529160200191610fd7565b820191906000526020600020905b815481529060010190602001808311610fba57829003601f168201915b505050505081565b60016002811115610ff357610ff26137c5565b5b600a60003373ffffffffffffffffffffffffffffffffffffffff1673ffffffffffffffffffffffffffffffffffffffff16815260200190815260200160002060009054906101000a900460ff166002811115611052576110516137c5565b5b14611092576040517f08c379a000000000000000000000000000000000000000000000000000000000815260040161108990613d4f565b60405180910390fd5b600160048111156110a6576110a56137c5565b5b600b600083815260200190815260200160002060010160009054906101000a900460ff1660048111156110dc576110db6137c5565b5b1461111c576040517f08c379a0000000000000000000000000000000000000000000000000000000008152600401611113906141da565b60405180910390fd5b600d6000828152602001908152602001600020543414611171576040517f08c379a000000000000000000000000000000000000000000000000000000000815260040161116890614246565b60405180910390fd5b33600e600083815260200190815260200160002060006101000a81548173ffffffffffffffffffffffffffffffffffffffff021916908373ffffffffffffffffffffffffffffffffffffffff1602179055506002600b600083815260200190815260200160002060010160006101000a81548160ff021916908360048111156111fd576111fc6137c5565b5b0217905550807f6d63dff809eaa3125b19b928b3955c261658ff6781148e3d3e6a939b7bee2ba960026040516112339190613e47565b60405180910390a23373ffffffffffffffffffffffffffffffffffffffff16817fc09888d0d13bc8be6e776deb914e6e8696b8167f87668e53dc967dd7ebb8a50060405160405180910390a350565b600061128d826121b0565b9050919050565b600e6020528060005260406000206000915054906101000a900473ffffffffffffffffffffffffffffffffffffffff1681565b600c60205281600052604060002081815481106112e357600080fd5b90600052602060002001600091509150505481565b60008073ffffffffffffffffffffffffffffffffffffffff168273ffffffffffffffffffffffffffffffffffffffff160361136b5760006040517f89c62b6400000000000000000000000000000000000000000000000000000000815260040161136291906133ab565b60405180910390fd5b600360008373ffffffffffffffffffffffffffffffffffffffff1673ffffffffffffffffffffffffffffffffffffffff168152602001908152602001600020549050919050565b6113ba612508565b6113c4600061258f565b565b600060028111156113da576113d96137c5565b5b600a60003373ffffffffffffffffffffffffffffffffffffffff1673ffffffffffffffffffffffffffffffffffffffff16815260200190815260200160002060009054906101000a900460ff166002811115611439576114386137c5565b5b14611479576040517f08c379a0000000000000000000000000000000000000000000000000000000008152600401611470906142b2565b60405180910390fd5b6001600a60003373ffffffffffffffffffffffffffffffffffffffff1673ffffffffffffffffffffffffffffffffffffffff16815260200190815260200160002060006101000a81548160ff021916908360028111156114dc576114db6137c5565b5b02179055503373ffffffffffffffffffffffffffffffffffffffff167f48cac28ad4dc618e15f4c2dd5e97751182f166de97b25618318b2112aa951a2f604051611525906142f8565b60405180910390a2565b600d6020528060005260406000206000915090505481565b6000600760009054906101000a900473ffffffffffffffffffffffffffffffffffffffff16905090565b60606001805461158090613cd2565b80601f01602080910402602001604051908101604052809291908181526020018280546115ac90613cd2565b80156115f95780601f106115ce576101008083540402835291602001916115f9565b820191906000526020600020905b8154815290600101906020018083116115dc57829003601f168201915b5050505050905090565b600a6020528060005260406000206000915054906101000a900460ff1681565b61163561162e612275565b8383612655565b5050565b6001600281111561164d5761164c6137c5565b5b600a60003373ffffffffffffffffffffffffffffffffffffffff1673ffffffffffffffffffffffffffffffffffffffff16815260200190815260200160002060009054906101000a900460ff1660028111156116ac576116ab6137c5565b5b146116ec576040517f08c379a00000000000000000000000000000000000000000000000000000000081526004016116e390613d4f565b60405180910390fd5b60006116f785611282565b90503373ffffffffffffffffffffffffffffffffffffffff168173ffffffffffffffffffffffffffffffffffffffff1614611767576040517f08c379a000000000000000000000000000000000000000000000000000000000815260040161175e90614364565b60405180910390fd5b8373ffffffffffffffffffffffffffffffffffffffff16600e600087815260200190815260200160002060009054906101000a900473ffffffffffffffffffffffffffffffffffffffff1673ffffffffffffffffffffffffffffffffffffffff1614611808576040517f08c379a00000000000000000000000000000000000000000000000000000000081526004016117ff906143d0565b60405180910390fd5b61181281866127c4565b600c60008573ffffffffffffffffffffffffffffffffffffffff1673ffffffffffffffffffffffffffffffffffffffff1681526020019081526020016000208590806001815401808255809150506001900390600052602060002001600090919091909150556118838185876128cb565b8282600b600088815260200190815260200160002060020191826118a89291906143fb565b506118f78584848080601f016020809104026020016040519081016040528093929190818152602001838380828437600081840152601f19601f82011690508083019250505050505050612a38565b6003600b600087815260200190815260200160002060010160006101000a81548160ff02191690836004811115611931576119306137c5565b5b0217905550847f6d63dff809eaa3125b19b928b3955c261658ff6781148e3d3e6a939b7bee2ba960036040516119679190613e47565b60405180910390a26000600d60008781526020019081526020016000205490506000600e600088815260200190815260200160002060006101000a81548173ffffffffffffffffffffffffffffffffffffffff021916908373ffffffffffffffffffffffffffffffffffffffff1602179055506000600d6000888152602001908152602001600020819055508173ffffffffffffffffffffffffffffffffffffffff166108fc829081150290604051600060405180830381858888f19350505050158015611a39573d6000803e3d6000fd5b508473ffffffffffffffffffffffffffffffffffffffff16867f5e569b537d45304a15b956ec8cb2aaa2dfcff5385fdb4828e7c914a388e805cf60405160405180910390a3505050505050565b611a91848484610ad6565b611aa5611a9c612275565b85858585612a94565b50505050565b60006002811115611abf57611abe6137c5565b5b600a60003373ffffffffffffffffffffffffffffffffffffffff1673ffffffffffffffffffffffffffffffffffffffff16815260200190815260200160002060009054906101000a900460ff166002811115611b1e57611b1d6137c5565b5b14611b5e576040517f08c379a0000000000000000000000000000000000000000000000000000000008152600401611b55906142b2565b60405180910390fd5b6001600a60003373ffffffffffffffffffffffffffffffffffffffff1673ffffffffffffffffffffffffffffffffffffffff16815260200190815260200160002060006101000a81548160ff02191690836002811115611bc157611bc06137c5565b5b021790555080600960003373ffffffffffffffffffffffffffffffffffffffff1673ffffffffffffffffffffffffffffffffffffffff1681526020019081526020016000209081611c1291906140bc565b503373ffffffffffffffffffffffffffffffffffffffff167f48cac28ad4dc618e15f4c2dd5e97751182f166de97b25618318b2112aa951a2f82604051611c5991906132e5565b60405180910390a250565b6060611c6f8261228f565b611cae576040517f08c379a0000000000000000000000000000000000000000000000000000000008152600401611ca590614517565b60405180910390fd5b600b6000838152602001908152602001600020600201604051602001611cd49190614611565b6040516020818303038152906040529050919050565b606060006001600854611cfd9190614633565b905060008167ffffffffffffffff811115611d1b57611d1a6134f4565b5b604051908082528060200260200182016040528015611d495781602001602082028036833780820191505090505b50905060005b82811015611d9057600181611d649190614667565b828281518110611d7757611d7661469b565b5b6020026020010181815250508080600101915050611d4f565b50809250505090565b600b6020528060005260406000206000915090508060000154908060010160009054906101000a900460ff1690806002018054611dd590613cd2565b80601f0160208091040260200160405190810160405280929190818152602001828054611e0190613cd2565b8015611e4e5780601f10611e2357610100808354040283529160200191611e4e565b820191906000526020600020905b815481529060010190602001808311611e3157829003601f168201915b5050505050905083565b6000600560008473ffffffffffffffffffffffffffffffffffffffff1673ffffffffffffffffffffffffffffffffffffffff16815260200190815260200160002060008373ffffffffffffffffffffffffffffffffffffffff1673ffffffffffffffffffffffffffffffffffffffff16815260200190815260200160002060009054906101000a900460ff16905092915050565b611ef4613153565b6000611eff8361228f565b611f3e576040517f08c379a0000000000000000000000000000000000000000000000000000000008152600401611f3590614716565b60405180910390fd5b600b6000848152602001908152602001600020611f5a84611282565b81604051806060016040529081600082015481526020016001820160009054906101000a900460ff166004811115611f9557611f946137c5565b5b6004811115611fa757611fa66137c5565b5b8152602001600282018054611fbb90613cd2565b80601f0160208091040260200160405190810160405280929190818152602001828054611fe790613cd2565b80156120345780601f1061200957610100808354040283529160200191612034565b820191906000526020600020905b81548152906001019060200180831161201757829003601f168201915b505050505081525050915091509150915091565b612050612508565b600073ffffffffffffffffffffffffffffffffffffffff168173ffffffffffffffffffffffffffffffffffffffff16036120c25760006040517f1e4fbdf70000000000000000000000000000000000000000000000000000000081526004016120b991906133ab565b60405180910390fd5b6120cb8161258f565b50565b60007f80ac58cd000000000000000000000000000000000000000000000000000000007bffffffffffffffffffffffffffffffffffffffffffffffffffffffff1916827bffffffffffffffffffffffffffffffffffffffffffffffffffffffff1916148061219957507f5b5e139f000000000000000000000000000000000000000000000000000000007bffffffffffffffffffffffffffffffffffffffffffffffffffffffff1916827bffffffffffffffffffffffffffffffffffffffffffffffffffffffff1916145b806121a957506121a882612c45565b5b9050919050565b6000806121bc83612caf565b9050600073ffffffffffffffffffffffffffffffffffffffff168173ffffffffffffffffffffffffffffffffffffffff160361222f57826040517f7e27328900000000000000000000000000000000000000000000000000000000815260040161222691906137aa565b60405180910390fd5b80915050919050565b60006004600083815260200190815260200160002060009054906101000a900473ffffffffffffffffffffffffffffffffffffffff169050919050565b600033905090565b61228a8383836001612cec565b505050565b60008073ffffffffffffffffffffffffffffffffffffffff166122b183612caf565b73ffffffffffffffffffffffffffffffffffffffff1614159050919050565b6000806122dc84612caf565b9050600073ffffffffffffffffffffffffffffffffffffffff168373ffffffffffffffffffffffffffffffffffffffff161461231e5761231d818486612eb1565b5b600073ffffffffffffffffffffffffffffffffffffffff168173ffffffffffffffffffffffffffffffffffffffff16146123af57612360600085600080612cec565b6001600360008373ffffffffffffffffffffffffffffffffffffffff1673ffffffffffffffffffffffffffffffffffffffff168152602001908152602001600020600082825403925050819055505b600073ffffffffffffffffffffffffffffffffffffffff168573ffffffffffffffffffffffffffffffffffffffff1614612432576001600360008773ffffffffffffffffffffffffffffffffffffffff1673ffffffffffffffffffffffffffffffffffffffff168152602001908152602001600020600082825401925050819055505b846002600086815260200190815260200160002060006101000a81548173ffffffffffffffffffffffffffffffffffffffff021916908373ffffffffffffffffffffffffffffffffffffffff160217905550838573ffffffffffffffffffffffffffffffffffffffff168273ffffffffffffffffffffffffffffffffffffffff167fddf252ad1be2c89b69c2b068fc378daa952ba7f163c4a11628f55a4df523b3ef60405160405180910390a4809150509392505050565b612504828260405180602001604052806000815250612f75565b5050565b612510612275565b73ffffffffffffffffffffffffffffffffffffffff1661252e611547565b73ffffffffffffffffffffffffffffffffffffffff161461258d57612551612275565b6040517f118cdaa700000000000000000000000000000000000000000000000000000000815260040161258491906133ab565b60405180910390fd5b565b6000600760009054906101000a900473ffffffffffffffffffffffffffffffffffffffff16905081600760006101000a81548173ffffffffffffffffffffffffffffffffffffffff021916908373ffffffffffffffffffffffffffffffffffffffff1602179055508173ffffffffffffffffffffffffffffffffffffffff168173ffffffffffffffffffffffffffffffffffffffff167f8be0079c531659141344cd1fd0a4f28419497f9722a3daafe3b4186f6b6457e060405160405180910390a35050565b600073ffffffffffffffffffffffffffffffffffffffff168273ffffffffffffffffffffffffffffffffffffffff16036126c657816040517f5b08ba180000000000000000000000000000000000000000000000000000000081526004016126bd91906133ab565b60405180910390fd5b80600560008573ffffffffffffffffffffffffffffffffffffffff1673ffffffffffffffffffffffffffffffffffffffff16815260200190815260200160002060008473ffffffffffffffffffffffffffffffffffffffff1673ffffffffffffffffffffffffffffffffffffffff16815260200190815260200160002060006101000a81548160ff0219169083151502179055508173ffffffffffffffffffffffffffffffffffffffff168373ffffffffffffffffffffffffffffffffffffffff167f17307eab39ab6107e8899845ad3d59bd9653f200f220920489ca2b5937696c31836040516127b7919061323a565b60405180910390a3505050565b6000600c60008473ffffffffffffffffffffffffffffffffffffffff1673ffffffffffffffffffffffffffffffffffffffff168152602001908152602001600020905060005b81805490508110156128c4578282828154811061282a5761282961469b565b5b9060005260206000200154036128b757816001838054905061284c9190614633565b8154811061285d5761285c61469b565b5b906000526020600020015482828154811061287b5761287a61469b565b5b90600052602060002001819055508180548061289a57612899614736565b5b6001900381819060005260206000200160009055905550506128c7565b808060010191505061280a565b50505b5050565b600073ffffffffffffffffffffffffffffffffffffffff168273ffffffffffffffffffffffffffffffffffffffff160361293d5760006040517f64a0ae9200000000000000000000000000000000000000000000000000000000815260040161293491906133ab565b60405180910390fd5b600061294b838360006122d0565b9050600073ffffffffffffffffffffffffffffffffffffffff168173ffffffffffffffffffffffffffffffffffffffff16036129be57816040517f7e2732890000000000000000000000000000000000000000000000000000000081526004016129b591906137aa565b60405180910390fd5b8373ffffffffffffffffffffffffffffffffffffffff168173ffffffffffffffffffffffffffffffffffffffff1614612a32578382826040517f64283d7b000000000000000000000000000000000000000000000000000000008152600401612a2993929190613e62565b60405180910390fd5b50505050565b80600660008481526020019081526020016000209081612a5891906140bc565b507ff8e1a15aba9398e019f0b49df1a4fde98ee17ae345cb5f6b5e2c27f5033e8ce782604051612a8891906137aa565b60405180910390a15050565b60008373ffffffffffffffffffffffffffffffffffffffff163b1115612c3e578273ffffffffffffffffffffffffffffffffffffffff1663150b7a02868685856040518563ffffffff1660e01b8152600401612af394939291906147ba565b6020604051808303816000875af1925050508015612b2f57506040513d601f19601f82011682018060405250810190612b2c919061481b565b60015b612bb3573d8060008114612b5f576040519150601f19603f3d011682016040523d82523d6000602084013e612b64565b606091505b506000815103612bab57836040517f64a0ae92000000000000000000000000000000000000000000000000000000008152600401612ba291906133ab565b60405180910390fd5b805181602001fd5b63150b7a0260e01b7bffffffffffffffffffffffffffffffffffffffffffffffffffffffff1916817bffffffffffffffffffffffffffffffffffffffffffffffffffffffff191614612c3c57836040517f64a0ae92000000000000000000000000000000000000000000000000000000008152600401612c3391906133ab565b60405180910390fd5b505b5050505050565b60007f01ffc9a7000000000000000000000000000000000000000000000000000000007bffffffffffffffffffffffffffffffffffffffffffffffffffffffff1916827bffffffffffffffffffffffffffffffffffffffffffffffffffffffff1916149050919050565b60006002600083815260200190815260200160002060009054906101000a900473ffffffffffffffffffffffffffffffffffffffff169050919050565b8080612d255750600073ffffffffffffffffffffffffffffffffffffffff168273ffffffffffffffffffffffffffffffffffffffff1614155b15612e59576000612d35846121b0565b9050600073ffffffffffffffffffffffffffffffffffffffff168373ffffffffffffffffffffffffffffffffffffffff1614158015612da057508273ffffffffffffffffffffffffffffffffffffffff168173ffffffffffffffffffffffffffffffffffffffff1614155b8015612db35750612db18184611e58565b155b15612df557826040517fa9fbf51f000000000000000000000000000000000000000000000000000000008152600401612dec91906133ab565b60405180910390fd5b8115612e5757838573ffffffffffffffffffffffffffffffffffffffff168273ffffffffffffffffffffffffffffffffffffffff167f8c5be1e5ebec7d5bd14f71427d1e84f3dd0314c0f7b2291e5b200ac8c7c3b92560405160405180910390a45b505b836004600085815260200190815260200160002060006101000a81548173ffffffffffffffffffffffffffffffffffffffff021916908373ffffffffffffffffffffffffffffffffffffffff16021790555050505050565b612ebc838383612f99565b612f7057600073ffffffffffffffffffffffffffffffffffffffff168373ffffffffffffffffffffffffffffffffffffffff1603612f3157806040517f7e273289000000000000000000000000000000000000000000000000000000008152600401612f2891906137aa565b60405180910390fd5b81816040517f177e802f000000000000000000000000000000000000000000000000000000008152600401612f67929190614848565b60405180910390fd5b505050565b612f7f838361305a565b612f94612f8a612275565b6000858585612a94565b505050565b60008073ffffffffffffffffffffffffffffffffffffffff168373ffffffffffffffffffffffffffffffffffffffff161415801561305157508273ffffffffffffffffffffffffffffffffffffffff168473ffffffffffffffffffffffffffffffffffffffff16148061301257506130118484611e58565b5b8061305057508273ffffffffffffffffffffffffffffffffffffffff1661303883612238565b73ffffffffffffffffffffffffffffffffffffffff16145b5b90509392505050565b600073ffffffffffffffffffffffffffffffffffffffff168273ffffffffffffffffffffffffffffffffffffffff16036130cc5760006040517f64a0ae920000000000000000000000000000000000000000000000000000000081526004016130c391906133ab565b60405180910390fd5b60006130da838360006122d0565b9050600073ffffffffffffffffffffffffffffffffffffffff168173ffffffffffffffffffffffffffffffffffffffff161461314e5760006040517f73c6ac6e00000000000000000000000000000000000000000000000000000000815260040161314591906133ab565b60405180910390fd5b505050565b60405180606001604052806000815260200160006004811115613179576131786137c5565b5b8152602001606081525090565b6000604051905090565b600080fd5b600080fd5b60007fffffffff0000000000000000000000000000000000000000000000000000000082169050919050565b6131cf8161319a565b81146131da57600080fd5b50565b6000813590506131ec816131c6565b92915050565b60006020828403121561320857613207613190565b5b6000613216848285016131dd565b91505092915050565b60008115159050919050565b6132348161321f565b82525050565b600060208201905061324f600083018461322b565b92915050565b600081519050919050565b600082825260208201905092915050565b60005b8381101561328f578082015181840152602081019050613274565b60008484015250505050565b6000601f19601f8301169050919050565b60006132b782613255565b6132c18185613260565b93506132d1818560208601613271565b6132da8161329b565b840191505092915050565b600060208201905081810360008301526132ff81846132ac565b905092915050565b6000819050919050565b61331a81613307565b811461332557600080fd5b50565b60008135905061333781613311565b92915050565b60006020828403121561335357613352613190565b5b600061336184828501613328565b91505092915050565b600073ffffffffffffffffffffffffffffffffffffffff82169050919050565b60006133958261336a565b9050919050565b6133a58161338a565b82525050565b60006020820190506133c0600083018461339c565b92915050565b6133cf8161338a565b81146133da57600080fd5b50565b6000813590506133ec816133c6565b92915050565b6000806040838503121561340957613408613190565b5b6000613417858286016133dd565b925050602061342885828601613328565b9150509250929050565b6005811061343f57600080fd5b50565b60008135905061345181613432565b92915050565b6000806040838503121561346e5761346d613190565b5b600061347c85828601613328565b925050602061348d85828601613442565b9150509250929050565b6000806000606084860312156134b0576134af613190565b5b60006134be868287016133dd565b93505060206134cf868287016133dd565b92505060406134e086828701613328565b9150509250925092565b600080fd5b600080fd5b7f4e487b7100000000000000000000000000000000000000000000000000000000600052604160045260246000fd5b61352c8261329b565b810181811067ffffffffffffffff8211171561354b5761354a6134f4565b5b80604052505050565b600061355e613186565b905061356a8282613523565b919050565b600067ffffffffffffffff82111561358a576135896134f4565b5b6135938261329b565b9050602081019050919050565b82818337600083830152505050565b60006135c26135bd8461356f565b613554565b9050828152602081018484840111156135de576135dd6134ef565b5b6135e98482856135a0565b509392505050565b600082601f830112613606576136056134ea565b5b81356136168482602086016135af565b91505092915050565b60008060006060848603121561363857613637613190565b5b6000613646868287016133dd565b935050602084013567ffffffffffffffff81111561366757613666613195565b5b613673868287016135f1565b925050604061368486828701613328565b9150509250925092565b6000602082840312156136a4576136a3613190565b5b60006136b2848285016133dd565b91505092915050565b600081519050919050565b600082825260208201905092915050565b6000819050602082019050919050565b6136f081613307565b82525050565b600061370283836136e7565b60208301905092915050565b6000602082019050919050565b6000613726826136bb565b61373081856136c6565b935061373b836136d7565b8060005b8381101561376c57815161375388826136f6565b975061375e8361370e565b92505060018101905061373f565b5085935050505092915050565b60006020820190508181036000830152613793818461371b565b905092915050565b6137a481613307565b82525050565b60006020820190506137bf600083018461379b565b92915050565b7f4e487b7100000000000000000000000000000000000000000000000000000000600052602160045260246000fd5b60038110613805576138046137c5565b5b50565b6000819050613816826137f4565b919050565b600061382682613808565b9050919050565b6138368161381b565b82525050565b6000602082019050613851600083018461382d565b92915050565b6138608161321f565b811461386b57600080fd5b50565b60008135905061387d81613857565b92915050565b6000806040838503121561389a57613899613190565b5b60006138a8858286016133dd565b92505060206138b98582860161386e565b9150509250929050565b600080fd5b600080fd5b60008083601f8401126138e3576138e26134ea565b5b8235905067ffffffffffffffff811115613900576138ff6138c3565b5b60208301915083600182028301111561391c5761391b6138c8565b5b9250929050565b6000806000806060858703121561393d5761393c613190565b5b600061394b87828801613328565b945050602061395c878288016133dd565b935050604085013567ffffffffffffffff81111561397d5761397c613195565b5b613989878288016138cd565b925092505092959194509250565b600067ffffffffffffffff8211156139b2576139b16134f4565b5b6139bb8261329b565b9050602081019050919050565b60006139db6139d684613997565b613554565b9050828152602081018484840111156139f7576139f66134ef565b5b613a028482856135a0565b509392505050565b600082601f830112613a1f57613a1e6134ea565b5b8135613a2f8482602086016139c8565b91505092915050565b60008060008060808587031215613a5257613a51613190565b5b6000613a60878288016133dd565b9450506020613a71878288016133dd565b9350506040613a8287828801613328565b925050606085013567ffffffffffffffff811115613aa357613aa2613195565b5b613aaf87828801613a0a565b91505092959194509250565b600060208284031215613ad157613ad0613190565b5b600082013567ffffffffffffffff811115613aef57613aee613195565b5b613afb848285016135f1565b91505092915050565b60058110613b1557613b146137c5565b5b50565b6000819050613b2682613b04565b919050565b6000613b3682613b18565b9050919050565b613b4681613b2b565b82525050565b6000606082019050613b61600083018661379b565b613b6e6020830185613b3d565b8181036040830152613b8081846132ac565b9050949350505050565b60008060408385031215613ba157613ba0613190565b5b6000613baf858286016133dd565b9250506020613bc0858286016133dd565b9150509250929050565b613bd381613b2b565b82525050565b600082825260208201905092915050565b6000613bf582613255565b613bff8185613bd9565b9350613c0f818560208601613271565b613c188161329b565b840191505092915050565b6000606083016000830151613c3b60008601826136e7565b506020830151613c4e6020860182613bca565b5060408301518482036040860152613c668282613bea565b9150508091505092915050565b60006040820190508181036000830152613c8d8185613c23565b9050613c9c602083018461339c565b9392505050565b7f4e487b7100000000000000000000000000000000000000000000000000000000600052602260045260246000fd5b60006002820490506001821680613cea57607f821691505b602082108103613cfd57613cfc613ca3565b5b50919050565b7f4f6e6c792072656769737465726564207573657273207065726d697474656400600082015250565b6000613d39601f83613260565b9150613d4482613d03565b602082019050919050565b60006020820190508181036000830152613d6881613d2c565b9050919050565b7f4c616e64206e6f7420666f756e64000000000000000000000000000000000000600082015250565b6000613da5600e83613260565b9150613db082613d6f565b602082019050919050565b60006020820190508181036000830152613dd481613d98565b9050919050565b7f4f6e6c79206f776e65722063616e207570646174652073746174757300000000600082015250565b6000613e11601c83613260565b9150613e1c82613ddb565b602082019050919050565b60006020820190508181036000830152613e4081613e04565b9050919050565b6000602082019050613e5c6000830184613b3d565b92915050565b6000606082019050613e77600083018661339c565b613e84602083018561379b565b613e91604083018461339c565b949350505050565b7f4e487b7100000000000000000000000000000000000000000000000000000000600052601160045260246000fd5b6000613ed382613307565b91507fffffffffffffffffffffffffffffffffffffffffffffffffffffffffffffffff8203613f0557613f04613e99565b5b600182019050919050565b60008190508160005260206000209050919050565b60006020601f8301049050919050565b600082821b905092915050565b600060088302613f727fffffffffffffffffffffffffffffffffffffffffffffffffffffffffffffffff82613f35565b613f7c8683613f35565b95508019841693508086168417925050509392505050565b6000819050919050565b6000613fb9613fb4613faf84613307565b613f94565b613307565b9050919050565b6000819050919050565b613fd383613f9e565b613fe7613fdf82613fc0565b848454613f42565b825550505050565b600090565b613ffc613fef565b614007818484613fca565b505050565b5b8181101561402b57614020600082613ff4565b60018101905061400d565b5050565b601f8211156140705761404181613f10565b61404a84613f25565b81016020851015614059578190505b61406d61406585613f25565b83018261400c565b50505b505050565b600082821c905092915050565b600061409360001984600802614075565b1980831691505092915050565b60006140ac8383614082565b9150826002028217905092915050565b6140c582613255565b67ffffffffffffffff8111156140de576140dd6134f4565b5b6140e88254613cd2565b6140f382828561402f565b600060209050601f8311600181146141265760008415614114578287015190505b61411e85826140a0565b865550614186565b601f19841661413486613f10565b60005b8281101561415c57848901518255600182019150602085019450602081019050614137565b868310156141795784890151614175601f891682614082565b8355505b6001600288020188555050505b505050505050565b7f4c616e64206e6f7420666f722073616c65000000000000000000000000000000600082015250565b60006141c4601183613260565b91506141cf8261418e565b602082019050919050565b600060208201905081810360008301526141f3816141b7565b9050919050565b7f496e636f7272656374207061796d656e7420616d6f756e740000000000000000600082015250565b6000614230601883613260565b915061423b826141fa565b602082019050919050565b6000602082019050818103600083015261425f81614223565b9050919050565b7f416c726561647920726567697374657265640000000000000000000000000000600082015250565b600061429c601283613260565b91506142a782614266565b602082019050919050565b600060208201905081810360008301526142cb8161428f565b9050919050565b50565b60006142e2600083613260565b91506142ed826142d2565b600082019050919050565b60006020820190508181036000830152614311816142d5565b9050919050565b7f4f6e6c79206f776e65722063616e20617070726f7665207472616e7366657200600082015250565b600061434e601f83613260565b915061435982614318565b602082019050919050565b6000602082019050818103600083015261437d81614341565b9050919050565b7f4275796572206d69736d61746368000000000000000000000000000000000000600082015250565b60006143ba600e83613260565b91506143c582614384565b602082019050919050565b600060208201905081810360008301526143e9816143ad565b9050919050565b600082905092915050565b61440583836143f0565b67ffffffffffffffff81111561441e5761441d6134f4565b5b6144288254613cd2565b61443382828561402f565b6000601f8311600181146144625760008415614450578287013590505b61445a85826140a0565b8655506144c2565b601f19841661447086613f10565b60005b8281101561449857848901358255600182019150602085019450602081019050614473565b868310156144b557848901356144b1601f891682614082565b8355505b6001600288020188555050505b50505050505050565b7f546f6b656e20646f6573206e6f74206578697374000000000000000000000000600082015250565b6000614501601483613260565b915061450c826144cb565b602082019050919050565b60006020820190508181036000830152614530816144f4565b9050919050565b600081905092915050565b7f697066733a2f2f00000000000000000000000000000000000000000000000000600082015250565b6000614578600783614537565b915061458382614542565b600782019050919050565b6000815461459b81613cd2565b6145a58186614537565b945060018216600081146145c057600181146145d557614608565b60ff1983168652811515820286019350614608565b6145de85613f10565b60005b83811015614600578154818901526001820191506020810190506145e1565b838801955050505b50505092915050565b600061461c8261456b565b9150614628828461458e565b915081905092915050565b600061463e82613307565b915061464983613307565b925082820390508181111561466157614660613e99565b5b92915050565b600061467282613307565b915061467d83613307565b925082820190508082111561469557614694613e99565b5b92915050565b7f4e487b7100000000000000000000000000000000000000000000000000000000600052603260045260246000fd5b7f4c616e6420646f6573206e6f7420657869737400000000000000000000000000600082015250565b6000614700601383613260565b915061470b826146ca565b602082019050919050565b6000602082019050818103600083015261472f816146f3565b9050919050565b7f4e487b7100000000000000000000000000000000000000000000000000000000600052603160045260246000fd5b600081519050919050565b600082825260208201905092915050565b600061478c82614765565b6147968185614770565b93506147a6818560208601613271565b6147af8161329b565b840191505092915050565b60006080820190506147cf600083018761339c565b6147dc602083018661339c565b6147e9604083018561379b565b81810360608301526147fb8184614781565b905095945050505050565b600081519050614815816131c6565b92915050565b60006020828403121561483157614830613190565b5b600061483f84828501614806565b91505092915050565b600060408201905061485d600083018561339c565b61486a602083018461379b565b939250505056fea2646970667358221220cb69c0bcf899d08eba2d1cb9f7ca10cbbf4106586c39f569a8132dad590b5ed764736f6c634300081c0033",
  "linkReferences": {},
  "deployedLinkReferences": {}
}