{
  "_format": "hh-sol-artifact-1",
  "contractName": "LandRegistry",
  "sourceName": "contracts/LandRegistry.sol",
  "abi": [
    {
      "inputs": [],
      "stateMutability": "nonpayable",
      "type": "constructor"
    },
    {
      "inputs": [
        {
          "internalType": "address",
          "name": "sender",
          "type": "address"
        },
        {
          "internalType": "uint256",
          "name": "tokenId",
          "type": "uint256"
        },
        {
          "internalType": "address",
          "name": "owner",
          "type": "address"
        }
      ],
      "name": "ERC721IncorrectOwner",
      "type": "error"
    },
    {
      "inputs": [
        {
          "internalType": "address",
          "name": "operator",
          "type": "address"
        },
        {
          "internalType": "uint256",
          "name": "tokenId",
          "type": "uint256"
        }
      ],
      "name": "ERC721InsufficientApproval",
      "type": "error"
    },
    {
      "inputs": [
        {
          "internalType": "address",
          "name": "approver",
          "type": "address"
        }
      ],
      "name": "ERC721InvalidApprover",
      "type": "error"
    },
    {
      "inputs": [
        {
          "internalType": "address",
          "name": "operator",
          "type": "address"
        }
      ],
      "name": "ERC721InvalidOperator",
      "type": "error"
    },
    {
      "inputs": [
        {
          "internalType": "address",
          "name": "owner",
          "type": "address"
        }
      ],
      "name": "ERC721InvalidOwner",
      "type": "error"
    },
    {
      "inputs": [
        {
          "internalType": "address",
          "name": "receiver",
          "type": "address"
        }
      ],
      "name": "ERC721InvalidReceiver",
      "type": "error"
    },
    {
      "inputs": [
        {
          "internalType": "address",
          "name": "sender",
          "type": "address"
        }
      ],
      "name": "ERC721InvalidSender",
      "type": "error"
    },
    {
      "inputs": [
        {
          "internalType": "uint256",
          "name": "tokenId",
          "type": "uint256"
        }
      ],
      "name": "ERC721NonexistentToken",
      "type": "error"
    },
    {
      "inputs": [
        {
          "internalType": "address",
          "name": "owner",
          "type": "address"
        }
      ],
      "name": "OwnableInvalidOwner",
      "type": "error"
    },
    {
      "inputs": [
        {
          "internalType": "address",
          "name": "account",
          "type": "address"
        }
      ],
      "name": "OwnableUnauthorizedAccount",
      "type": "error"
    },
    {
      "anonymous": false,
      "inputs": [
        {
          "indexed": true,
          "internalType": "address",
          "name": "owner",
          "type": "address"
        },
        {
          "indexed": true,
          "internalType": "address",
          "name": "approved",
          "type": "address"
        },
        {
          "indexed": true,
          "internalType": "uint256",
          "name": "tokenId",
          "type": "uint256"
        }
      ],
      "name": "Approval",
      "type": "event"
    },
    {
      "anonymous": false,
      "inputs": [
        {
          "indexed": true,
          "internalType": "address",
          "name": "owner",
          "type": "address"
        },
        {
          "indexed": true,
          "internalType": "address",
          "name": "operator",
          "type": "address"
        },
        {
          "indexed": false,
          "internalType": "bool",
          "name": "approved",
          "type": "bool"
        }
      ],
      "name": "ApprovalForAll",
      "type": "event"
    },
    {
      "anonymous": false,
      "inputs": [
        {
          "indexed": false,
          "internalType": "uint256",
          "name": "_fromTokenId",
          "type": "uint256"
        },
        {
          "indexed": false,
          "internalType": "uint256",
          "name": "_toTokenId",
          "type": "uint256"
        }
      ],
      "name": "BatchMetadataUpdate",
      "type": "event"
    },
    {
      "anonymous": false,
      "inputs": [
        {
          "indexed": true,
          "internalType": "uint256",
          "name": "landId",
          "type": "uint256"
        },
        {
          "indexed": false,
          "internalType": "uint256",
          "name": "priceWei",
          "type": "uint256"
        }
      ],
      "name": "LandListed",
      "type": "event"
    },
    {
      "anonymous": false,
      "inputs": [
        {
          "indexed": true,
          "internalType": "uint256",
          "name": "landId",
          "type": "uint256"
        },
        {
          "indexed": true,
          "internalType": "address",
          "name": "newOwner",
          "type": "address"
        }
      ],
      "name": "LandOwnershipTransferred",
      "type": "event"
    },
    {
      "anonymous": false,
      "inputs": [
        {
          "indexed": true,
          "internalType": "uint256",
          "name": "landId",
          "type": "uint256"
        },
        {
          "indexed": true,
          "internalType": "address",
          "name": "owner",
          "type": "address"
        },
        {
          "indexed": false,
          "internalType": "string",
          "name": "metadataCID",
          "type": "string"
        }
      ],
      "name": "LandRegistered",
      "type": "event"
    },
    {
      "anonymous": false,
      "inputs": [
        {
          "indexed": true,
          "internalType": "uint256",
          "name": "landId",
          "type": "uint256"
        },
        {
          "indexed": false,
          "internalType": "enum LandRegistry.LandStatus",
          "name": "newStatus",
          "type": "uint8"
        }
      ],
      "name": "LandStatusUpdated",
      "type": "event"
    },
    {
      "anonymous": false,
      "inputs": [
        {
          "indexed": false,
          "internalType": "uint256",
          "name": "_tokenId",
          "type": "uint256"
        }
      ],
      "name": "MetadataUpdate",
      "type": "event"
    },
    {
      "anonymous": false,
      "inputs": [
        {
          "indexed": true,
          "internalType": "address",
          "name": "previousOwner",
          "type": "address"
        },
        {
          "indexed": true,
          "internalType": "address",
          "name": "newOwner",
          "type": "address"
        }
      ],
      "name": "OwnershipTransferred",
      "type": "event"
    },
    {
      "anonymous": false,
      "inputs": [
        {
          "indexed": true,
          "internalType": "uint256",
          "name": "landId",
          "type": "uint256"
        },
        {
          "indexed": true,
          "internalType": "address",
          "name": "buyer",
          "type": "address"
        }
      ],
      "name": "PurchaseRequested",
      "type": "event"
    },
    {
      "anonymous": false,
      "inputs": [
        {
          "indexed": true,
          "internalType": "address",
          "name": "staff",
          "type": "address"
        }
      ],
      "name": "StaffRegistered",
      "type": "event"
    },
    {
      "anonymous": false,
      "inputs": [
        {
          "indexed": true,
          "internalType": "address",
          "name": "from",
          "type": "address"
        },
        {
          "indexed": true,
          "internalType": "address",
          "name": "to",
          "type": "address"
        },
        {
          "indexed": true,
          "internalType": "uint256",
          "name": "tokenId",
          "type": "uint256"
        }
      ],
      "name": "Transfer",
      "type": "event"
    },
    {
      "anonymous": false,
      "inputs": [
        {
          "indexed": true,
          "internalType": "address",
          "name": "user",
          "type": "address"
        },
        {
          "indexed": false,
          "internalType": "string",
          "name": "metadataCID",
          "type": "string"
        }
      ],
      "name": "UserRegistered",
      "type": "event"
    },
    {
      "inputs": [
        {
          "internalType": "address",
          "name": "to",
          "type": "address"
        },
        {
          "internalType": "uint256",
          "name": "tokenId",
          "type": "uint256"
        }
      ],
      "name": "approve",
      "outputs": [],
      "stateMutability": "nonpayable",
      "type": "function"
    },
    {
      "inputs": [
        {
          "internalType": "address",
          "name": "owner",
          "type": "address"
        }
      ],
      "name": "balanceOf",
      "outputs": [
        {
          "internalType": "uint256",
          "name": "",
          "type": "uint256"
        }
      ],
      "stateMutability": "view",
      "type": "function"
    },
    {
      "inputs": [],
      "name": "getAllLandIds",
      "outputs": [
        {
          "internalType": "uint256[]",
          "name": "",
          "type": "uint256[]"
        }
      ],
      "stateMutability": "view",
      "type": "function"
    },
    {
      "inputs": [
        {
          "internalType": "uint256",
          "name": "tokenId",
          "type": "uint256"
        }
      ],
      "name": "getApproved",
      "outputs": [
        {
          "internalType": "address",
          "name": "",
          "type": "address"
        }
      ],
      "stateMutability": "view",
      "type": "function"
    },
    {
      "inputs": [
        {
          "internalType": "uint256",
          "name": "landId",
          "type": "uint256"
        }
      ],
      "name": "getLand",
      "outputs": [
        {
          "components": [
            {
              "internalType": "uint256",
              "name": "landId",
              "type": "uint256"
            },
            {
              "internalType": "enum LandRegistry.LandStatus",
              "name": "status",
              "type": "uint8"
            },
            {
              "internalType": "string",
              "name": "metadataCID",
              "type": "string"
            }
          ],
          "internalType": "struct LandRegistry.Land",
          "name": "land",
          "type": "tuple"
        },
        {
          "internalType": "address",
          "name": "owner",
          "type": "address"
        }
      ],
      "stateMutability": "view",
      "type": "function"
    },
    {
      "inputs": [
        {
          "internalType": "address",
          "name": "owner",
          "type": "address"
        }
      ],
      "name": "getOwnedLands",
      "outputs": [
        {
          "internalType": "uint256[]",
          "name": "",
          "type": "uint256[]"
        }
      ],
      "stateMutability": "view",
      "type": "function"
    },
    {
      "inputs": [
        {
          "internalType": "address",
          "name": "owner",
          "type": "address"
        },
        {
          "internalType": "address",
          "name": "operator",
          "type": "address"
        }
      ],
      "name": "isApprovedForAll",
      "outputs": [
        {
          "internalType": "bool",
          "name": "",
          "type": "bool"
        }
      ],
      "stateMutability": "view",
      "type": "function"
    },
    {
      "inputs": [
        {
          "internalType": "uint256",
          "name": "",
          "type": "uint256"
        }
      ],
      "name": "landPrices",
      "outputs": [
        {
          "internalType": "uint256",
          "name": "",
          "type": "uint256"
        }
      ],
      "stateMutability": "view",
      "type": "function"
    },
    {
      "inputs": [
        {
          "internalType": "uint256",
          "name": "",
          "type": "uint256"
        }
      ],
      "name": "lands",
      "outputs": [
        {
          "internalType": "uint256",
          "name": "landId",
          "type": "uint256"
        },
        {
          "internalType": "enum LandRegistry.LandStatus",
          "name": "status",
          "type": "uint8"
        },
        {
          "internalType": "string",
          "name": "metadataCID",
          "type": "string"
        }
      ],
      "stateMutability": "view",
      "type": "function"
    },
    {
      "inputs": [],
      "name": "name",
      "outputs": [
        {
          "internalType": "string",
          "name": "",
          "type": "string"
        }
      ],
      "stateMutability": "view",
      "type": "function"
    },
    {
      "inputs": [],
      "name": "owner",
      "outputs": [
        {
          "internalType": "address",
          "name": "",
          "type": "address"
        }
      ],
      "stateMutability": "view",
      "type": "function"
    },
    {
      "inputs": [
        {
          "internalType": "uint256",
          "name": "tokenId",
          "type": "uint256"
        }
      ],
      "name": "ownerOf",
      "outputs": [
        {
          "internalType": "address",
          "name": "",
          "type": "address"
        }
      ],
      "stateMutability": "view",
      "type": "function"
    },
    {
      "inputs": [
        {
          "internalType": "address",
          "name": "",
          "type": "address"
        },
        {
          "internalType": "uint256",
          "name": "",
          "type": "uint256"
        }
      ],
      "name": "ownerToLandIds",
      "outputs": [
        {
          "internalType": "uint256",
          "name": "",
          "type": "uint256"
        }
      ],
      "stateMutability": "view",
      "type": "function"
    },
    {
      "inputs": [
        {
          "internalType": "uint256",
          "name": "",
          "type": "uint256"
        }
      ],
      "name": "pendingBuyer",
      "outputs": [
        {
          "internalType": "address",
          "name": "",
          "type": "address"
        }
      ],
      "stateMutability": "view",
      "type": "function"
    },
    {
      "inputs": [
        {
          "internalType": "address",
          "name": "to",
          "type": "address"
        },
        {
          "internalType": "string",
          "name": "metadataCID",
          "type": "string"
        },
        {
          "internalType": "uint256",
          "name": "priceWei",
          "type": "uint256"
        }
      ],
      "name": "registerLand",
      "outputs": [],
      "stateMutability": "nonpayable",
      "type": "function"
    },
    {
      "inputs": [
        {
          "internalType": "address",
          "name": "staff",
          "type": "address"
        }
      ],
      "name": "registerStaff",
      "outputs": [],
      "stateMutability": "nonpayable",
      "type": "function"
    },
    {
      "inputs": [
        {
          "internalType": "string",
          "name": "cid",
          "type": "string"
        }
      ],
      "name": "registerUserWithCID",
      "outputs": [],
      "stateMutability": "nonpayable",
      "type": "function"
    },
    {
      "inputs": [],
      "name": "renounceOwnership",
      "outputs": [],
      "stateMutability": "nonpayable",
      "type": "function"
    },
    {
      "inputs": [
        {
          "internalType": "uint256",
          "name": "landId",
          "type": "uint256"
        }
      ],
      "name": "requestToBuy",
      "outputs": [],
      "stateMutability": "payable",
      "type": "function"
    },
    {
      "inputs": [
        {
          "internalType": "address",
          "name": "",
          "type": "address"
        }
      ],
      "name": "roles",
      "outputs": [
        {
          "internalType": "enum LandRegistry.Role",
          "name": "",
          "type": "uint8"
        }
      ],
      "stateMutability": "view",
      "type": "function"
    },
    {
      "inputs": [
        {
          "internalType": "address",
          "name": "from",
          "type": "address"
        },
        {
          "internalType": "address",
          "name": "to",
          "type": "address"
        },
        {
          "internalType": "uint256",
          "name": "tokenId",
          "type": "uint256"
        }
      ],
      "name": "safeTransferFrom",
      "outputs": [],
      "stateMutability": "nonpayable",
      "type": "function"
    },
    {
      "inputs": [
        {
          "internalType": "address",
          "name": "from",
          "type": "address"
        },
        {
          "internalType": "address",
          "name": "to",
          "type": "address"
        },
        {
          "internalType": "uint256",
          "name": "tokenId",
          "type": "uint256"
        },
        {
          "internalType": "bytes",
          "name": "data",
          "type": "bytes"
        }
      ],
      "name": "safeTransferFrom",
      "outputs": [],
      "stateMutability": "nonpayable",
      "type": "function"
    },
    {
      "inputs": [],
      "name": "selfRegisterUser",
      "outputs": [],
      "stateMutability": "nonpayable",
      "type": "function"
    },
    {
      "inputs": [
        {
          "internalType": "address",
          "name": "operator",
          "type": "address"
        },
        {
          "internalType": "bool",
          "name": "approved",
          "type": "bool"
        }
      ],
      "name": "setApprovalForAll",
      "outputs": [],
      "stateMutability": "nonpayable",
      "type": "function"
    },
    {
      "inputs": [
        {
          "internalType": "bytes4",
          "name": "interfaceId",
          "type": "bytes4"
        }
      ],
      "name": "supportsInterface",
      "outputs": [
        {
          "internalType": "bool",
          "name": "",
          "type": "bool"
        }
      ],
      "stateMutability": "view",
      "type": "function"
    },
    {
      "inputs": [],
      "name": "symbol",
      "outputs": [
        {
          "internalType": "string",
          "name": "",
          "type": "string"
        }
      ],
      "stateMutability": "view",
      "type": "function"
    },
    {
      "inputs": [
        {
          "internalType": "uint256",
          "name": "tokenId",
          "type": "uint256"
        }
      ],
      "name": "tokenURI",
      "outputs": [
        {
          "internalType": "string",
          "name": "",
          "type": "string"
        }
      ],
      "stateMutability": "view",
      "type": "function"
    },
    {
      "inputs": [
        {
          "internalType": "address",
          "name": "from",
          "type": "address"
        },
        {
          "internalType": "address",
          "name": "to",
          "type": "address"
        },
        {
          "internalType": "uint256",
          "name": "tokenId",
          "type": "uint256"
        }
      ],
      "name": "transferFrom",
      "outputs": [],
      "stateMutability": "nonpayable",
      "type": "function"
    },
    {
      "inputs": [
        {
          "internalType": "uint256",
          "name": "landId",
          "type": "uint256"
        },
        {
          "internalType": "address",
          "name": "newOwner",
          "type": "address"
        },
        {
          "internalType": "string",
          "name": "newMetadataCID",
          "type": "string"
        }
      ],
      "name": "transferLandOwnership",
      "outputs": [],
      "stateMutability": "nonpayable",
      "type": "function"
    },
    {
      "inputs": [
        {
          "internalType": "address",
          "name": "newOwner",
          "type": "address"
        }
      ],
      "name": "transferOwnership",
      "outputs": [],
      "stateMutability": "nonpayable",
      "type": "function"
    },
    {
      "inputs": [
        {
          "internalType": "uint256",
          "name": "landId",
          "type": "uint256"
        },
        {
          "internalType": "enum LandRegistry.LandStatus",
          "name": "newStatus",
          "type": "uint8"
        }
      ],
      "name": "updateLandStatus",
      "outputs": [],
      "stateMutability": "nonpayable",
      "type": "function"
    },
    {
      "inputs": [
        {
          "internalType": "address",
          "name": "",
          "type": "address"
        }
      ],
      "name": "userMetadataCID",
      "outputs": [
        {
          "internalType": "string",
          "name": "",
          "type": "string"
        }
      ],
      "stateMutability": "view",
      "type": "function"
    }
  ],
  "bytecode": "0x6080604052600160085534801561001557600080fd5b50336040518060400160405280600781526020017f476f764c616e64000000000000000000000000000000000000000000000000008152506040518060400160405280600381526020017f4d4c4e000000000000000000000000000000000000000000000000000000000081525081600090816100929190610442565b5080600190816100a29190610442565b505050600073ffffffffffffffffffffffffffffffffffffffff168173ffffffffffffffffffffffffffffffffffffffff16036101175760006040517f1e4fbdf700000000000000000000000000000000000000000000000000000000815260040161010e9190610555565b60405180910390fd5b6101268161012c60201b60201c565b50610570565b6000600760009054906101000a900473ffffffffffffffffffffffffffffffffffffffff16905081600760006101000a81548173ffffffffffffffffffffffffffffffffffffffff021916908373ffffffffffffffffffffffffffffffffffffffff1602179055508173ffffffffffffffffffffffffffffffffffffffff168173ffffffffffffffffffffffffffffffffffffffff167f8be0079c531659141344cd1fd0a4f28419497f9722a3daafe3b4186f6b6457e060405160405180910390a35050565b600081519050919050565b7f4e487b7100000000000000000000000000000000000000000000000000000000600052604160045260246000fd5b7f4e487b7100000000000000000000000000000000000000000000000000000000600052602260045260246000fd5b6000600282049050600182168061027357607f821691505b6020821081036102865761028561022c565b5b50919050565b60008190508160005260206000209050919050565b60006020601f8301049050919050565b600082821b905092915050565b6000600883026102ee7fffffffffffffffffffffffffffffffffffffffffffffffffffffffffffffffff826102b1565b6102f886836102b1565b95508019841693508086168417925050509392505050565b6000819050919050565b6000819050919050565b600061033f61033a61033584610310565b61031a565b610310565b9050919050565b6000819050919050565b61035983610324565b61036d61036582610346565b8484546102be565b825550505050565b600090565b610382610375565b61038d818484610350565b505050565b5b818110156103b1576103a660008261037a565b600181019050610393565b5050565b601f8211156103f6576103c78161028c565b6103d0846102a1565b810160208510156103df578190505b6103f36103eb856102a1565b830182610392565b50505b505050565b600082821c905092915050565b6000610419600019846008026103fb565b1980831691505092915050565b60006104328383610408565b9150826002028217905092915050565b61044b826101f2565b67ffffffffffffffff811115610464576104636101fd565b5b61046e825461025b565b6104798282856103b5565b600060209050601f8311600181146104ac576000841561049a578287015190505b6104a48582610426565b86555061050c565b601f1984166104ba8661028c565b60005b828110156104e2578489015182556001820191506020850194506020810190506104bd565b868310156104ff57848901516104fb601f891682610408565b8355505b6001600288020188555050505b505050505050565b600073ffffffffffffffffffffffffffffffffffffffff82169050919050565b600061053f82610514565b9050919050565b61054f81610534565b82525050565b600060208201905061056a6000830184610546565b92915050565b6149198061057f6000396000f3fe6080604052600436106101e35760003560e01c8063715018a611610102578063b88d4fde11610095578063e261f1e511610064578063e261f1e514610717578063e985e9c514610756578063f02dd53f14610793578063f2fde38b146107d1576101e3565b8063b88d4fde1461065d578063bee4918c14610686578063c87b56dd146106af578063d7dee192146106ec576101e3565b806395d89b41116100d157806395d89b41146105a357806399374642146105ce578063a22cb4651461060b578063aa2a906b14610634576101e3565b8063715018a61461050d578063772afef4146105245780637bb2d6db1461053b5780638da5cb5b14610578576101e3565b80634e98b5e01161017a5780636352211e116101495780636352211e146104195780636480a5d21461045657806366f487ed1461049357806370a08231146104d0576101e3565b80634e98b5e01461035a578063519ea705146103835780635b48d9ae146103c05780635c7b0308146103fd576101e3565b8063174a8fe7116101b6578063174a8fe7146102b657806323b872dd146102df57806342842e0e146103085780634bde01f714610331576101e3565b806301ffc9a7146101e857806306fdde0314610225578063081812fc14610250578063095ea7b31461028d575b600080fd5b3480156101f457600080fd5b5061020f600480360381019061020a9190613264565b6107fa565b60405161021c91906132ac565b60405180910390f35b34801561023157600080fd5b5061023a61085b565b6040516102479190613357565b60405180910390f35b34801561025c57600080fd5b50610277600480360381019061027291906133af565b6108ed565b604051610284919061341d565b60405180910390f35b34801561029957600080fd5b506102b460048036038101906102af9190613464565b610909565b005b3480156102c257600080fd5b506102dd60048036038101906102d891906134c9565b61091f565b005b3480156102eb57600080fd5b5061030660048036038101906103019190613509565b610b0a565b005b34801561031457600080fd5b5061032f600480360381019061032a9190613509565b610c0c565b005b34801561033d57600080fd5b5061035860048036038101906103539190613691565b610c2c565b005b34801561036657600080fd5b50610381600480360381019061037c9190613700565b610edc565b005b34801561038f57600080fd5b506103aa60048036038101906103a59190613700565b610f92565b6040516103b791906137eb565b60405180910390f35b3480156103cc57600080fd5b506103e760048036038101906103e29190613700565b611029565b6040516103f49190613357565b60405180910390f35b610417600480360381019061041291906133af565b6110c9565b005b34801561042557600080fd5b50610440600480360381019061043b91906133af565b61136c565b60405161044d919061341d565b60405180910390f35b34801561046257600080fd5b5061047d600480360381019061047891906133af565b61137e565b60405161048a919061341d565b60405180910390f35b34801561049f57600080fd5b506104ba60048036038101906104b59190613464565b6113b1565b6040516104c7919061381c565b60405180910390f35b3480156104dc57600080fd5b506104f760048036038101906104f29190613700565b6113e2565b604051610504919061381c565b60405180910390f35b34801561051957600080fd5b5061052261149c565b005b34801561053057600080fd5b506105396114b0565b005b34801561054757600080fd5b50610562600480360381019061055d91906133af565b611619565b60405161056f919061381c565b60405180910390f35b34801561058457600080fd5b5061058d611631565b60405161059a919061341d565b60405180910390f35b3480156105af57600080fd5b506105b861165b565b6040516105c59190613357565b60405180910390f35b3480156105da57600080fd5b506105f560048036038101906105f09190613700565b6116ed565b60405161060291906138ae565b60405180910390f35b34801561061757600080fd5b50610632600480360381019061062d91906138f5565b61170d565b005b34801561064057600080fd5b5061065b60048036038101906106569190613995565b611723565b005b34801561066957600080fd5b50610684600480360381019061067f9190613aaa565b611af8565b005b34801561069257600080fd5b506106ad60048036038101906106a89190613b2d565b611b1d565b005b3480156106bb57600080fd5b506106d660048036038101906106d191906133af565b611cd6565b6040516106e39190613357565b60405180910390f35b3480156106f857600080fd5b50610701611d5c565b60405161070e91906137eb565b60405180910390f35b34801561072357600080fd5b5061073e600480360381019061073991906133af565b611e0b565b60405161074d93929190613bbe565b60405180910390f35b34801561076257600080fd5b5061077d60048036038101906107789190613bfc565b611eca565b60405161078a91906132ac565b60405180910390f35b34801561079f57600080fd5b506107ba60048036038101906107b591906133af565b611f5e565b6040516107c8929190613ce5565b60405180910390f35b3480156107dd57600080fd5b506107f860048036038101906107f39190613700565b6120ba565b005b6000634906490660e01b7bffffffffffffffffffffffffffffffffffffffffffffffffffffffff1916827bffffffffffffffffffffffffffffffffffffffffffffffffffffffff19161480610854575061085382612140565b5b9050919050565b60606000805461086a90613d44565b80601f016020809104026020016040519081016040528092919081815260200182805461089690613d44565b80156108e35780601f106108b8576101008083540402835291602001916108e3565b820191906000526020600020905b8154815290600101906020018083116108c657829003601f168201915b5050505050905090565b60006108f882612222565b50610902826122aa565b9050919050565b61091b82826109166122e7565b6122ef565b5050565b6001600281111561093357610932613837565b5b600a60003373ffffffffffffffffffffffffffffffffffffffff1673ffffffffffffffffffffffffffffffffffffffff16815260200190815260200160002060009054906101000a900460ff16600281111561099257610991613837565b5b146109d2576040517f08c379a00000000000000000000000000000000000000000000000000000000081526004016109c990613dc1565b60405180910390fd5b6109db82612301565b610a1a576040517f08c379a0000000000000000000000000000000000000000000000000000000008152600401610a1190613e2d565b60405180910390fd5b3373ffffffffffffffffffffffffffffffffffffffff16610a3a8361136c565b73ffffffffffffffffffffffffffffffffffffffff1614610a90576040517f08c379a0000000000000000000000000000000000000000000000000000000008152600401610a8790613e99565b60405180910390fd5b80600b600084815260200190815260200160002060010160006101000a81548160ff02191690836003811115610ac957610ac8613837565b5b0217905550817f6d63dff809eaa3125b19b928b3955c261658ff6781148e3d3e6a939b7bee2ba982604051610afe9190613eb9565b60405180910390a25050565b600073ffffffffffffffffffffffffffffffffffffffff168273ffffffffffffffffffffffffffffffffffffffff1603610b7c5760006040517f64a0ae92000000000000000000000000000000000000000000000000000000008152600401610b73919061341d565b60405180910390fd5b6000610b908383610b8b6122e7565b612342565b90508373ffffffffffffffffffffffffffffffffffffffff168173ffffffffffffffffffffffffffffffffffffffff1614610c06578382826040517f64283d7b000000000000000000000000000000000000000000000000000000008152600401610bfd93929190613ed4565b60405180910390fd5b50505050565b610c2783838360405180602001604052806000815250611af8565b505050565b60016002811115610c4057610c3f613837565b5b600a60003373ffffffffffffffffffffffffffffffffffffffff1673ffffffffffffffffffffffffffffffffffffffff16815260200190815260200160002060009054906101000a900460ff166002811115610c9f57610c9e613837565b5b14610cdf576040517f08c379a0000000000000000000000000000000000000000000000000000000008152600401610cd690613dc1565b60405180910390fd5b600060086000815480929190610cf490613f3a565b919050559050610d04848261255c565b604051806060016040528082815260200160016003811115610d2957610d28613837565b5b815260200184815250600b60008381526020019081526020016000206000820151816000015560208201518160010160006101000a81548160ff02191690836003811115610d7a57610d79613837565b5b02179055506040820151816002019081610d94919061412e565b50905050600c60008573ffffffffffffffffffffffffffffffffffffffff1673ffffffffffffffffffffffffffffffffffffffff1681526020019081526020016000208190806001815401808255809150506001900390600052602060002001600090919091909150558373ffffffffffffffffffffffffffffffffffffffff16817f9c4ad74928fec1ee86181680df0e76bf575b79ea2a0347f7ed270884bdd26ad785604051610e459190613357565b60405180910390a381600d600083815260200190815260200160002081905550807f6d63dff809eaa3125b19b928b3955c261658ff6781148e3d3e6a939b7bee2ba96001604051610e969190613eb9565b60405180910390a2807f2f9b23898410304c2b8c29547330c8ef08ad5f7c80b5204df939744931e2752083604051610ece919061381c565b60405180910390a250505050565b610ee461257a565b6002600a60008373ffffffffffffffffffffffffffffffffffffffff1673ffffffffffffffffffffffffffffffffffffffff16815260200190815260200160002060006101000a81548160ff02191690836002811115610f4757610f46613837565b5b02179055508073ffffffffffffffffffffffffffffffffffffffff167f5621c177a9ee62a68b748024c2ac9151294a4119394714a806566487a374644160405160405180910390a250565b6060600c60008373ffffffffffffffffffffffffffffffffffffffff1673ffffffffffffffffffffffffffffffffffffffff16815260200190815260200160002080548060200260200160405190810160405280929190818152602001828054801561101d57602002820191906000526020600020905b815481526020019060010190808311611009575b50505050509050919050565b6009602052806000526040600020600091509050805461104890613d44565b80601f016020809104026020016040519081016040528092919081815260200182805461107490613d44565b80156110c15780601f10611096576101008083540402835291602001916110c1565b820191906000526020600020905b8154815290600101906020018083116110a457829003601f168201915b505050505081565b600160028111156110dd576110dc613837565b5b600a60003373ffffffffffffffffffffffffffffffffffffffff1673ffffffffffffffffffffffffffffffffffffffff16815260200190815260200160002060009054906101000a900460ff16600281111561113c5761113b613837565b5b1461117c576040517f08c379a000000000000000000000000000000000000000000000000000000000815260040161117390613dc1565b60405180910390fd5b600160038111156111905761118f613837565b5b600b600083815260200190815260200160002060010160009054906101000a900460ff1660038111156111c6576111c5613837565b5b14611206576040517f08c379a00000000000000000000000000000000000000000000000000000000081526004016111fd9061424c565b60405180910390fd5b600d600082815260200190815260200160002054341461125b576040517f08c379a0000000000000000000000000000000000000000000000000000000008152600401611252906142b8565b60405180910390fd5b33600e600083815260200190815260200160002060006101000a81548173ffffffffffffffffffffffffffffffffffffffff021916908373ffffffffffffffffffffffffffffffffffffffff1602179055506002600b600083815260200190815260200160002060010160006101000a81548160ff021916908360038111156112e7576112e6613837565b5b0217905550807f6d63dff809eaa3125b19b928b3955c261658ff6781148e3d3e6a939b7bee2ba9600260405161131d9190613eb9565b60405180910390a23373ffffffffffffffffffffffffffffffffffffffff16817fc09888d0d13bc8be6e776deb914e6e8696b8167f87668e53dc967dd7ebb8a50060405160405180910390a350565b600061137782612222565b9050919050565b600e6020528060005260406000206000915054906101000a900473ffffffffffffffffffffffffffffffffffffffff1681565b600c60205281600052604060002081815481106113cd57600080fd5b90600052602060002001600091509150505481565b60008073ffffffffffffffffffffffffffffffffffffffff168273ffffffffffffffffffffffffffffffffffffffff16036114555760006040517f89c62b6400000000000000000000000000000000000000000000000000000000815260040161144c919061341d565b60405180910390fd5b600360008373ffffffffffffffffffffffffffffffffffffffff1673ffffffffffffffffffffffffffffffffffffffff168152602001908152602001600020549050919050565b6114a461257a565b6114ae6000612601565b565b600060028111156114c4576114c3613837565b5b600a60003373ffffffffffffffffffffffffffffffffffffffff1673ffffffffffffffffffffffffffffffffffffffff16815260200190815260200160002060009054906101000a900460ff16600281111561152357611522613837565b5b14611563576040517f08c379a000000000000000000000000000000000000000000000000000000000815260040161155a90614324565b60405180910390fd5b6001600a60003373ffffffffffffffffffffffffffffffffffffffff1673ffffffffffffffffffffffffffffffffffffffff16815260200190815260200160002060006101000a81548160ff021916908360028111156115c6576115c5613837565b5b02179055503373ffffffffffffffffffffffffffffffffffffffff167f48cac28ad4dc618e15f4c2dd5e97751182f166de97b25618318b2112aa951a2f60405161160f9061436a565b60405180910390a2565b600d6020528060005260406000206000915090505481565b6000600760009054906101000a900473ffffffffffffffffffffffffffffffffffffffff16905090565b60606001805461166a90613d44565b80601f016020809104026020016040519081016040528092919081815260200182805461169690613d44565b80156116e35780601f106116b8576101008083540402835291602001916116e3565b820191906000526020600020905b8154815290600101906020018083116116c657829003601f168201915b5050505050905090565b600a6020528060005260406000206000915054906101000a900460ff1681565b61171f6117186122e7565b83836126c7565b5050565b6001600281111561173757611736613837565b5b600a60003373ffffffffffffffffffffffffffffffffffffffff1673ffffffffffffffffffffffffffffffffffffffff16815260200190815260200160002060009054906101000a900460ff16600281111561179657611795613837565b5b146117d6576040517f08c379a00000000000000000000000000000000000000000000000000000000081526004016117cd90613dc1565b60405180910390fd5b60006117e18561136c565b90503373ffffffffffffffffffffffffffffffffffffffff168173ffffffffffffffffffffffffffffffffffffffff1614611851576040517f08c379a0000000000000000000000000000000000000000000000000000000008152600401611848906143d6565b60405180910390fd5b8373ffffffffffffffffffffffffffffffffffffffff16600e600087815260200190815260200160002060009054906101000a900473ffffffffffffffffffffffffffffffffffffffff1673ffffffffffffffffffffffffffffffffffffffff16146118f2576040517f08c379a00000000000000000000000000000000000000000000000000000000081526004016118e990614442565b60405180910390fd5b6118fc8186612836565b600c60008573ffffffffffffffffffffffffffffffffffffffff1673ffffffffffffffffffffffffffffffffffffffff16815260200190815260200160002085908060018154018082558091505060019003906000526020600020016000909190919091505561196d81858761293d565b8282600b6000888152602001908152602001600020600201918261199292919061446d565b506119e18584848080601f016020809104026020016040519081016040528093929190818152602001838380828437600081840152601f19601f82011690508083019250505050505050612aaa565b6000600d60008781526020019081526020016000205490506000600e600088815260200190815260200160002060006101000a81548173ffffffffffffffffffffffffffffffffffffffff021916908373ffffffffffffffffffffffffffffffffffffffff1602179055506000600d6000888152602001908152602001600020819055508173ffffffffffffffffffffffffffffffffffffffff166108fc829081150290604051600060405180830381858888f19350505050158015611aab573d6000803e3d6000fd5b508473ffffffffffffffffffffffffffffffffffffffff16867f5e569b537d45304a15b956ec8cb2aaa2dfcff5385fdb4828e7c914a388e805cf60405160405180910390a3505050505050565b611b03848484610b0a565b611b17611b0e6122e7565b85858585612b06565b50505050565b60006002811115611b3157611b30613837565b5b600a60003373ffffffffffffffffffffffffffffffffffffffff1673ffffffffffffffffffffffffffffffffffffffff16815260200190815260200160002060009054906101000a900460ff166002811115611b9057611b8f613837565b5b14611bd0576040517f08c379a0000000000000000000000000000000000000000000000000000000008152600401611bc790614324565b60405180910390fd5b6001600a60003373ffffffffffffffffffffffffffffffffffffffff1673ffffffffffffffffffffffffffffffffffffffff16815260200190815260200160002060006101000a81548160ff02191690836002811115611c3357611c32613837565b5b021790555080600960003373ffffffffffffffffffffffffffffffffffffffff1673ffffffffffffffffffffffffffffffffffffffff1681526020019081526020016000209081611c84919061412e565b503373ffffffffffffffffffffffffffffffffffffffff167f48cac28ad4dc618e15f4c2dd5e97751182f166de97b25618318b2112aa951a2f82604051611ccb9190613357565b60405180910390a250565b6060611ce182612301565b611d20576040517f08c379a0000000000000000000000000000000000000000000000000000000008152600401611d1790614589565b60405180910390fd5b600b6000838152602001908152602001600020600201604051602001611d469190614683565b6040516020818303038152906040529050919050565b606060006001600854611d6f91906146a5565b905060008167ffffffffffffffff811115611d8d57611d8c613566565b5b604051908082528060200260200182016040528015611dbb5781602001602082028036833780820191505090505b50905060005b82811015611e0257600181611dd691906146d9565b828281518110611de957611de861470d565b5b6020026020010181815250508080600101915050611dc1565b50809250505090565b600b6020528060005260406000206000915090508060000154908060010160009054906101000a900460ff1690806002018054611e4790613d44565b80601f0160208091040260200160405190810160405280929190818152602001828054611e7390613d44565b8015611ec05780601f10611e9557610100808354040283529160200191611ec0565b820191906000526020600020905b815481529060010190602001808311611ea357829003601f168201915b5050505050905083565b6000600560008473ffffffffffffffffffffffffffffffffffffffff1673ffffffffffffffffffffffffffffffffffffffff16815260200190815260200160002060008373ffffffffffffffffffffffffffffffffffffffff1673ffffffffffffffffffffffffffffffffffffffff16815260200190815260200160002060009054906101000a900460ff16905092915050565b611f666131c5565b6000611f7183612301565b611fb0576040517f08c379a0000000000000000000000000000000000000000000000000000000008152600401611fa790614788565b60405180910390fd5b600b6000848152602001908152602001600020611fcc8461136c565b81604051806060016040529081600082015481526020016001820160009054906101000a900460ff16600381111561200757612006613837565b5b600381111561201957612018613837565b5b815260200160028201805461202d90613d44565b80601f016020809104026020016040519081016040528092919081815260200182805461205990613d44565b80156120a65780601f1061207b576101008083540402835291602001916120a6565b820191906000526020600020905b81548152906001019060200180831161208957829003601f168201915b505050505081525050915091509150915091565b6120c261257a565b600073ffffffffffffffffffffffffffffffffffffffff168173ffffffffffffffffffffffffffffffffffffffff16036121345760006040517f1e4fbdf700000000000000000000000000000000000000000000000000000000815260040161212b919061341d565b60405180910390fd5b61213d81612601565b50565b60007f80ac58cd000000000000000000000000000000000000000000000000000000007bffffffffffffffffffffffffffffffffffffffffffffffffffffffff1916827bffffffffffffffffffffffffffffffffffffffffffffffffffffffff1916148061220b57507f5b5e139f000000000000000000000000000000000000000000000000000000007bffffffffffffffffffffffffffffffffffffffffffffffffffffffff1916827bffffffffffffffffffffffffffffffffffffffffffffffffffffffff1916145b8061221b575061221a82612cb7565b5b9050919050565b60008061222e83612d21565b9050600073ffffffffffffffffffffffffffffffffffffffff168173ffffffffffffffffffffffffffffffffffffffff16036122a157826040517f7e273289000000000000000000000000000000000000000000000000000000008152600401612298919061381c565b60405180910390fd5b80915050919050565b60006004600083815260200190815260200160002060009054906101000a900473ffffffffffffffffffffffffffffffffffffffff169050919050565b600033905090565b6122fc8383836001612d5e565b505050565b60008073ffffffffffffffffffffffffffffffffffffffff1661232383612d21565b73ffffffffffffffffffffffffffffffffffffffff1614159050919050565b60008061234e84612d21565b9050600073ffffffffffffffffffffffffffffffffffffffff168373ffffffffffffffffffffffffffffffffffffffff16146123905761238f818486612f23565b5b600073ffffffffffffffffffffffffffffffffffffffff168173ffffffffffffffffffffffffffffffffffffffff1614612421576123d2600085600080612d5e565b6001600360008373ffffffffffffffffffffffffffffffffffffffff1673ffffffffffffffffffffffffffffffffffffffff168152602001908152602001600020600082825403925050819055505b600073ffffffffffffffffffffffffffffffffffffffff168573ffffffffffffffffffffffffffffffffffffffff16146124a4576001600360008773ffffffffffffffffffffffffffffffffffffffff1673ffffffffffffffffffffffffffffffffffffffff168152602001908152602001600020600082825401925050819055505b846002600086815260200190815260200160002060006101000a81548173ffffffffffffffffffffffffffffffffffffffff021916908373ffffffffffffffffffffffffffffffffffffffff160217905550838573ffffffffffffffffffffffffffffffffffffffff168273ffffffffffffffffffffffffffffffffffffffff167fddf252ad1be2c89b69c2b068fc378daa952ba7f163c4a11628f55a4df523b3ef60405160405180910390a4809150509392505050565b612576828260405180602001604052806000815250612fe7565b5050565b6125826122e7565b73ffffffffffffffffffffffffffffffffffffffff166125a0611631565b73ffffffffffffffffffffffffffffffffffffffff16146125ff576125c36122e7565b6040517f118cdaa70000000000000000000000000000000000000000000000000000000081526004016125f6919061341d565b60405180910390fd5b565b6000600760009054906101000a900473ffffffffffffffffffffffffffffffffffffffff16905081600760006101000a81548173ffffffffffffffffffffffffffffffffffffffff021916908373ffffffffffffffffffffffffffffffffffffffff1602179055508173ffffffffffffffffffffffffffffffffffffffff168173ffffffffffffffffffffffffffffffffffffffff167f8be0079c531659141344cd1fd0a4f28419497f9722a3daafe3b4186f6b6457e060405160405180910390a35050565b600073ffffffffffffffffffffffffffffffffffffffff168273ffffffffffffffffffffffffffffffffffffffff160361273857816040517f5b08ba1800000000000000000000000000000000000000000000000000000000815260040161272f919061341d565b60405180910390fd5b80600560008573ffffffffffffffffffffffffffffffffffffffff1673ffffffffffffffffffffffffffffffffffffffff16815260200190815260200160002060008473ffffffffffffffffffffffffffffffffffffffff1673ffffffffffffffffffffffffffffffffffffffff16815260200190815260200160002060006101000a81548160ff0219169083151502179055508173ffffffffffffffffffffffffffffffffffffffff168373ffffffffffffffffffffffffffffffffffffffff167f17307eab39ab6107e8899845ad3d59bd9653f200f220920489ca2b5937696c318360405161282991906132ac565b60405180910390a3505050565b6000600c60008473ffffffffffffffffffffffffffffffffffffffff1673ffffffffffffffffffffffffffffffffffffffff168152602001908152602001600020905060005b8180549050811015612936578282828154811061289c5761289b61470d565b5b9060005260206000200154036129295781600183805490506128be91906146a5565b815481106128cf576128ce61470d565b5b90600052602060002001548282815481106128ed576128ec61470d565b5b90600052602060002001819055508180548061290c5761290b6147a8565b5b600190038181906000526020600020016000905590555050612939565b808060010191505061287c565b50505b5050565b600073ffffffffffffffffffffffffffffffffffffffff168273ffffffffffffffffffffffffffffffffffffffff16036129af5760006040517f64a0ae920000000000000000000000000000000000000000000000000000000081526004016129a6919061341d565b60405180910390fd5b60006129bd83836000612342565b9050600073ffffffffffffffffffffffffffffffffffffffff168173ffffffffffffffffffffffffffffffffffffffff1603612a3057816040517f7e273289000000000000000000000000000000000000000000000000000000008152600401612a27919061381c565b60405180910390fd5b8373ffffffffffffffffffffffffffffffffffffffff168173ffffffffffffffffffffffffffffffffffffffff1614612aa4578382826040517f64283d7b000000000000000000000000000000000000000000000000000000008152600401612a9b93929190613ed4565b60405180910390fd5b50505050565b80600660008481526020019081526020016000209081612aca919061412e565b507ff8e1a15aba9398e019f0b49df1a4fde98ee17ae345cb5f6b5e2c27f5033e8ce782604051612afa919061381c565b60405180910390a15050565b60008373ffffffffffffffffffffffffffffffffffffffff163b1115612cb0578273ffffffffffffffffffffffffffffffffffffffff1663150b7a02868685856040518563ffffffff1660e01b8152600401612b65949392919061482c565b6020604051808303816000875af1925050508015612ba157506040513d601f19601f82011682018060405250810190612b9e919061488d565b60015b612c25573d8060008114612bd1576040519150601f19603f3d011682016040523d82523d6000602084013e612bd6565b606091505b506000815103612c1d57836040517f64a0ae92000000000000000000000000000000000000000000000000000000008152600401612c14919061341d565b60405180910390fd5b805181602001fd5b63150b7a0260e01b7bffffffffffffffffffffffffffffffffffffffffffffffffffffffff1916817bffffffffffffffffffffffffffffffffffffffffffffffffffffffff191614612cae57836040517f64a0ae92000000000000000000000000000000000000000000000000000000008152600401612ca5919061341d565b60405180910390fd5b505b5050505050565b60007f01ffc9a7000000000000000000000000000000000000000000000000000000007bffffffffffffffffffffffffffffffffffffffffffffffffffffffff1916827bffffffffffffffffffffffffffffffffffffffffffffffffffffffff1916149050919050565b60006002600083815260200190815260200160002060009054906101000a900473ffffffffffffffffffffffffffffffffffffffff169050919050565b8080612d975750600073ffffffffffffffffffffffffffffffffffffffff168273ffffffffffffffffffffffffffffffffffffffff1614155b15612ecb576000612da784612222565b9050600073ffffffffffffffffffffffffffffffffffffffff168373ffffffffffffffffffffffffffffffffffffffff1614158015612e1257508273ffffffffffffffffffffffffffffffffffffffff168173ffffffffffffffffffffffffffffffffffffffff1614155b8015612e255750612e238184611eca565b155b15612e6757826040517fa9fbf51f000000000000000000000000000000000000000000000000000000008152600401612e5e919061341d565b60405180910390fd5b8115612ec957838573ffffffffffffffffffffffffffffffffffffffff168273ffffffffffffffffffffffffffffffffffffffff167f8c5be1e5ebec7d5bd14f71427d1e84f3dd0314c0f7b2291e5b200ac8c7c3b92560405160405180910390a45b505b836004600085815260200190815260200160002060006101000a81548173ffffffffffffffffffffffffffffffffffffffff021916908373ffffffffffffffffffffffffffffffffffffffff16021790555050505050565b612f2e83838361300b565b612fe257600073ffffffffffffffffffffffffffffffffffffffff168373ffffffffffffffffffffffffffffffffffffffff1603612fa357806040517f7e273289000000000000000000000000000000000000000000000000000000008152600401612f9a919061381c565b60405180910390fd5b81816040517f177e802f000000000000000000000000000000000000000000000000000000008152600401612fd99291906148ba565b60405180910390fd5b505050565b612ff183836130cc565b613006612ffc6122e7565b6000858585612b06565b505050565b60008073ffffffffffffffffffffffffffffffffffffffff168373ffffffffffffffffffffffffffffffffffffffff16141580156130c357508273ffffffffffffffffffffffffffffffffffffffff168473ffffffffffffffffffffffffffffffffffffffff16148061308457506130838484611eca565b5b806130c257508273ffffffffffffffffffffffffffffffffffffffff166130aa836122aa565b73ffffffffffffffffffffffffffffffffffffffff16145b5b90509392505050565b600073ffffffffffffffffffffffffffffffffffffffff168273ffffffffffffffffffffffffffffffffffffffff160361313e5760006040517f64a0ae92000000000000000000000000000000000000000000000000000000008152600401613135919061341d565b60405180910390fd5b600061314c83836000612342565b9050600073ffffffffffffffffffffffffffffffffffffffff168173ffffffffffffffffffffffffffffffffffffffff16146131c05760006040517f73c6ac6e0000000000000000000000000000000000000000000000000000000081526004016131b7919061341d565b60405180910390fd5b505050565b604051806060016040528060008152602001600060038111156131eb576131ea613837565b5b8152602001606081525090565b6000604051905090565b600080fd5b600080fd5b60007fffffffff0000000000000000000000000000000000000000000000000000000082169050919050565b6132418161320c565b811461324c57600080fd5b50565b60008135905061325e81613238565b92915050565b60006020828403121561327a57613279613202565b5b60006132888482850161324f565b91505092915050565b60008115159050919050565b6132a681613291565b82525050565b60006020820190506132c1600083018461329d565b92915050565b600081519050919050565b600082825260208201905092915050565b60005b838110156133015780820151818401526020810190506132e6565b60008484015250505050565b6000601f19601f8301169050919050565b6000613329826132c7565b61333381856132d2565b93506133438185602086016132e3565b61334c8161330d565b840191505092915050565b60006020820190508181036000830152613371818461331e565b905092915050565b6000819050919050565b61338c81613379565b811461339757600080fd5b50565b6000813590506133a981613383565b92915050565b6000602082840312156133c5576133c4613202565b5b60006133d38482850161339a565b91505092915050565b600073ffffffffffffffffffffffffffffffffffffffff82169050919050565b6000613407826133dc565b9050919050565b613417816133fc565b82525050565b6000602082019050613432600083018461340e565b92915050565b613441816133fc565b811461344c57600080fd5b50565b60008135905061345e81613438565b92915050565b6000806040838503121561347b5761347a613202565b5b60006134898582860161344f565b925050602061349a8582860161339a565b9150509250929050565b600481106134b157600080fd5b50565b6000813590506134c3816134a4565b92915050565b600080604083850312156134e0576134df613202565b5b60006134ee8582860161339a565b92505060206134ff858286016134b4565b9150509250929050565b60008060006060848603121561352257613521613202565b5b60006135308682870161344f565b93505060206135418682870161344f565b92505060406135528682870161339a565b9150509250925092565b600080fd5b600080fd5b7f4e487b7100000000000000000000000000000000000000000000000000000000600052604160045260246000fd5b61359e8261330d565b810181811067ffffffffffffffff821117156135bd576135bc613566565b5b80604052505050565b60006135d06131f8565b90506135dc8282613595565b919050565b600067ffffffffffffffff8211156135fc576135fb613566565b5b6136058261330d565b9050602081019050919050565b82818337600083830152505050565b600061363461362f846135e1565b6135c6565b9050828152602081018484840111156136505761364f613561565b5b61365b848285613612565b509392505050565b600082601f8301126136785761367761355c565b5b8135613688848260208601613621565b91505092915050565b6000806000606084860312156136aa576136a9613202565b5b60006136b88682870161344f565b935050602084013567ffffffffffffffff8111156136d9576136d8613207565b5b6136e586828701613663565b92505060406136f68682870161339a565b9150509250925092565b60006020828403121561371657613715613202565b5b60006137248482850161344f565b91505092915050565b600081519050919050565b600082825260208201905092915050565b6000819050602082019050919050565b61376281613379565b82525050565b60006137748383613759565b60208301905092915050565b6000602082019050919050565b60006137988261372d565b6137a28185613738565b93506137ad83613749565b8060005b838110156137de5781516137c58882613768565b97506137d083613780565b9250506001810190506137b1565b5085935050505092915050565b60006020820190508181036000830152613805818461378d565b905092915050565b61381681613379565b82525050565b6000602082019050613831600083018461380d565b92915050565b7f4e487b7100000000000000000000000000000000000000000000000000000000600052602160045260246000fd5b6003811061387757613876613837565b5b50565b600081905061388882613866565b919050565b60006138988261387a565b9050919050565b6138a88161388d565b82525050565b60006020820190506138c3600083018461389f565b92915050565b6138d281613291565b81146138dd57600080fd5b50565b6000813590506138ef816138c9565b92915050565b6000806040838503121561390c5761390b613202565b5b600061391a8582860161344f565b925050602061392b858286016138e0565b9150509250929050565b600080fd5b600080fd5b60008083601f8401126139555761395461355c565b5b8235905067ffffffffffffffff81111561397257613971613935565b5b60208301915083600182028301111561398e5761398d61393a565b5b9250929050565b600080600080606085870312156139af576139ae613202565b5b60006139bd8782880161339a565b94505060206139ce8782880161344f565b935050604085013567ffffffffffffffff8111156139ef576139ee613207565b5b6139fb8782880161393f565b925092505092959194509250565b600067ffffffffffffffff821115613a2457613a23613566565b5b613a2d8261330d565b9050602081019050919050565b6000613a4d613a4884613a09565b6135c6565b905082815260208101848484011115613a6957613a68613561565b5b613a74848285613612565b509392505050565b600082601f830112613a9157613a9061355c565b5b8135613aa1848260208601613a3a565b91505092915050565b60008060008060808587031215613ac457613ac3613202565b5b6000613ad28782880161344f565b9450506020613ae38782880161344f565b9350506040613af48782880161339a565b925050606085013567ffffffffffffffff811115613b1557613b14613207565b5b613b2187828801613a7c565b91505092959194509250565b600060208284031215613b4357613b42613202565b5b600082013567ffffffffffffffff811115613b6157613b60613207565b5b613b6d84828501613663565b91505092915050565b60048110613b8757613b86613837565b5b50565b6000819050613b9882613b76565b919050565b6000613ba882613b8a565b9050919050565b613bb881613b9d565b82525050565b6000606082019050613bd3600083018661380d565b613be06020830185613baf565b8181036040830152613bf2818461331e565b9050949350505050565b60008060408385031215613c1357613c12613202565b5b6000613c218582860161344f565b9250506020613c328582860161344f565b9150509250929050565b613c4581613b9d565b82525050565b600082825260208201905092915050565b6000613c67826132c7565b613c718185613c4b565b9350613c818185602086016132e3565b613c8a8161330d565b840191505092915050565b6000606083016000830151613cad6000860182613759565b506020830151613cc06020860182613c3c565b5060408301518482036040860152613cd88282613c5c565b9150508091505092915050565b60006040820190508181036000830152613cff8185613c95565b9050613d0e602083018461340e565b9392505050565b7f4e487b7100000000000000000000000000000000000000000000000000000000600052602260045260246000fd5b60006002820490506001821680613d5c57607f821691505b602082108103613d6f57613d6e613d15565b5b50919050565b7f4f6e6c792072656769737465726564207573657273207065726d697474656400600082015250565b6000613dab601f836132d2565b9150613db682613d75565b602082019050919050565b60006020820190508181036000830152613dda81613d9e565b9050919050565b7f4c616e64206e6f7420666f756e64000000000000000000000000000000000000600082015250565b6000613e17600e836132d2565b9150613e2282613de1565b602082019050919050565b60006020820190508181036000830152613e4681613e0a565b9050919050565b7f4f6e6c79206f776e65722063616e207570646174652073746174757300000000600082015250565b6000613e83601c836132d2565b9150613e8e82613e4d565b602082019050919050565b60006020820190508181036000830152613eb281613e76565b9050919050565b6000602082019050613ece6000830184613baf565b92915050565b6000606082019050613ee9600083018661340e565b613ef6602083018561380d565b613f03604083018461340e565b949350505050565b7f4e487b7100000000000000000000000000000000000000000000000000000000600052601160045260246000fd5b6000613f4582613379565b91507fffffffffffffffffffffffffffffffffffffffffffffffffffffffffffffffff8203613f7757613f76613f0b565b5b600182019050919050565b60008190508160005260206000209050919050565b60006020601f8301049050919050565b600082821b905092915050565b600060088302613fe47fffffffffffffffffffffffffffffffffffffffffffffffffffffffffffffffff82613fa7565b613fee8683613fa7565b95508019841693508086168417925050509392505050565b6000819050919050565b600061402b61402661402184613379565b614006565b613379565b9050919050565b6000819050919050565b61404583614010565b61405961405182614032565b848454613fb4565b825550505050565b600090565b61406e614061565b61407981848461403c565b505050565b5b8181101561409d57614092600082614066565b60018101905061407f565b5050565b601f8211156140e2576140b381613f82565b6140bc84613f97565b810160208510156140cb578190505b6140df6140d785613f97565b83018261407e565b50505b505050565b600082821c905092915050565b6000614105600019846008026140e7565b1980831691505092915050565b600061411e83836140f4565b9150826002028217905092915050565b614137826132c7565b67ffffffffffffffff8111156141505761414f613566565b5b61415a8254613d44565b6141658282856140a1565b600060209050601f8311600181146141985760008415614186578287015190505b6141908582614112565b8655506141f8565b601f1984166141a686613f82565b60005b828110156141ce578489015182556001820191506020850194506020810190506141a9565b868310156141eb57848901516141e7601f8916826140f4565b8355505b6001600288020188555050505b505050505050565b7f4c616e64206e6f7420666f722073616c65000000000000000000000000000000600082015250565b60006142366011836132d2565b915061424182614200565b602082019050919050565b6000602082019050818103600083015261426581614229565b9050919050565b7f496e636f7272656374207061796d656e7420616d6f756e740000000000000000600082015250565b60006142a26018836132d2565b91506142ad8261426c565b602082019050919050565b600060208201905081810360008301526142d181614295565b9050919050565b7f416c726561647920726567697374657265640000000000000000000000000000600082015250565b600061430e6012836132d2565b9150614319826142d8565b602082019050919050565b6000602082019050818103600083015261433d81614301565b9050919050565b50565b60006143546000836132d2565b915061435f82614344565b600082019050919050565b6000602082019050818103600083015261438381614347565b9050919050565b7f4f6e6c79206f776e65722063616e20617070726f7665207472616e7366657200600082015250565b60006143c0601f836132d2565b91506143cb8261438a565b602082019050919050565b600060208201905081810360008301526143ef816143b3565b9050919050565b7f4275796572206d69736d61746368000000000000000000000000000000000000600082015250565b600061442c600e836132d2565b9150614437826143f6565b602082019050919050565b6000602082019050818103600083015261445b8161441f565b9050919050565b600082905092915050565b6144778383614462565b67ffffffffffffffff8111156144905761448f613566565b5b61449a8254613d44565b6144a58282856140a1565b6000601f8311600181146144d457600084156144c2578287013590505b6144cc8582614112565b865550614534565b601f1984166144e286613f82565b60005b8281101561450a578489013582556001820191506020850194506020810190506144e5565b868310156145275784890135614523601f8916826140f4565b8355505b6001600288020188555050505b50505050505050565b7f546f6b656e20646f6573206e6f74206578697374000000000000000000000000600082015250565b60006145736014836132d2565b915061457e8261453d565b602082019050919050565b600060208201905081810360008301526145a281614566565b9050919050565b600081905092915050565b7f697066733a2f2f00000000000000000000000000000000000000000000000000600082015250565b60006145ea6007836145a9565b91506145f5826145b4565b600782019050919050565b6000815461460d81613d44565b61461781866145a9565b9450600182166000811461463257600181146146475761467a565b60ff198316865281151582028601935061467a565b61465085613f82565b60005b8381101561467257815481890152600182019150602081019050614653565b838801955050505b50505092915050565b600061468e826145dd565b915061469a8284614600565b915081905092915050565b60006146b082613379565b91506146bb83613379565b92508282039050818111156146d3576146d2613f0b565b5b92915050565b60006146e482613379565b91506146ef83613379565b925082820190508082111561470757614706613f0b565b5b92915050565b7f4e487b7100000000000000000000000000000000000000000000000000000000600052603260045260246000fd5b7f4c616e6420646f6573206e6f7420657869737400000000000000000000000000600082015250565b60006147726013836132d2565b915061477d8261473c565b602082019050919050565b600060208201905081810360008301526147a181614765565b9050919050565b7f4e487b7100000000000000000000000000000000000000000000000000000000600052603160045260246000fd5b600081519050919050565b600082825260208201905092915050565b60006147fe826147d7565b61480881856147e2565b93506148188185602086016132e3565b6148218161330d565b840191505092915050565b6000608082019050614841600083018761340e565b61484e602083018661340e565b61485b604083018561380d565b818103606083015261486d81846147f3565b905095945050505050565b60008151905061488781613238565b92915050565b6000602082840312156148a3576148a2613202565b5b60006148b184828501614878565b91505092915050565b60006040820190506148cf600083018561340e565b6148dc602083018461380d565b939250505056fea26469706673582212207e814a7b803179e85de77b6501220f663d01bc1f7e6683538f9bafd20f78d13564736f6c634300081c0033",
  "linkReferences": {},
  "deployedLinkReferences": {}
}