{
  "_format": "hh-sol-artifact-1",
  "contractName": "LandRegistry",
  "sourceName": "contracts/LandRegistry.sol",
  "abi": [
    {
      "inputs": [],
      "stateMutability": "nonpayable",
      "type": "constructor"
    },
    {
      "inputs": [
        {
          "internalType": "address",
          "name": "sender",
          "type": "address"
        },
        {
          "internalType": "uint256",
          "name": "tokenId",
          "type": "uint256"
        },
        {
          "internalType": "address",
          "name": "owner",
          "type": "address"
        }
      ],
      "name": "ERC721IncorrectOwner",
      "type": "error"
    },
    {
      "inputs": [
        {
          "internalType": "address",
          "name": "operator",
          "type": "address"
        },
        {
          "internalType": "uint256",
          "name": "tokenId",
          "type": "uint256"
        }
      ],
      "name": "ERC721InsufficientApproval",
      "type": "error"
    },
    {
      "inputs": [
        {
          "internalType": "address",
          "name": "approver",
          "type": "address"
        }
      ],
      "name": "ERC721InvalidApprover",
      "type": "error"
    },
    {
      "inputs": [
        {
          "internalType": "address",
          "name": "operator",
          "type": "address"
        }
      ],
      "name": "ERC721InvalidOperator",
      "type": "error"
    },
    {
      "inputs": [
        {
          "internalType": "address",
          "name": "owner",
          "type": "address"
        }
      ],
      "name": "ERC721InvalidOwner",
      "type": "error"
    },
    {
      "inputs": [
        {
          "internalType": "address",
          "name": "receiver",
          "type": "address"
        }
      ],
      "name": "ERC721InvalidReceiver",
      "type": "error"
    },
    {
      "inputs": [
        {
          "internalType": "address",
          "name": "sender",
          "type": "address"
        }
      ],
      "name": "ERC721InvalidSender",
      "type": "error"
    },
    {
      "inputs": [
        {
          "internalType": "uint256",
          "name": "tokenId",
          "type": "uint256"
        }
      ],
      "name": "ERC721NonexistentToken",
      "type": "error"
    },
    {
      "inputs": [
        {
          "internalType": "address",
          "name": "owner",
          "type": "address"
        }
      ],
      "name": "OwnableInvalidOwner",
      "type": "error"
    },
    {
      "inputs": [
        {
          "internalType": "address",
          "name": "account",
          "type": "address"
        }
      ],
      "name": "OwnableUnauthorizedAccount",
      "type": "error"
    },
    {
      "anonymous": false,
      "inputs": [
        {
          "indexed": true,
          "internalType": "address",
          "name": "owner",
          "type": "address"
        },
        {
          "indexed": true,
          "internalType": "address",
          "name": "approved",
          "type": "address"
        },
        {
          "indexed": true,
          "internalType": "uint256",
          "name": "tokenId",
          "type": "uint256"
        }
      ],
      "name": "Approval",
      "type": "event"
    },
    {
      "anonymous": false,
      "inputs": [
        {
          "indexed": true,
          "internalType": "address",
          "name": "owner",
          "type": "address"
        },
        {
          "indexed": true,
          "internalType": "address",
          "name": "operator",
          "type": "address"
        },
        {
          "indexed": false,
          "internalType": "bool",
          "name": "approved",
          "type": "bool"
        }
      ],
      "name": "ApprovalForAll",
      "type": "event"
    },
    {
      "anonymous": false,
      "inputs": [
        {
          "indexed": false,
          "internalType": "uint256",
          "name": "_fromTokenId",
          "type": "uint256"
        },
        {
          "indexed": false,
          "internalType": "uint256",
          "name": "_toTokenId",
          "type": "uint256"
        }
      ],
      "name": "BatchMetadataUpdate",
      "type": "event"
    },
    {
      "anonymous": false,
      "inputs": [
        {
          "indexed": true,
          "internalType": "uint256",
          "name": "landId",
          "type": "uint256"
        },
        {
          "indexed": false,
          "internalType": "uint256",
          "name": "priceWei",
          "type": "uint256"
        }
      ],
      "name": "LandListed",
      "type": "event"
    },
    {
      "anonymous": false,
      "inputs": [
        {
          "indexed": true,
          "internalType": "uint256",
          "name": "landId",
          "type": "uint256"
        },
        {
          "indexed": true,
          "internalType": "address",
          "name": "newOwner",
          "type": "address"
        }
      ],
      "name": "LandOwnershipTransferred",
      "type": "event"
    },
    {
      "anonymous": false,
      "inputs": [
        {
          "indexed": true,
          "internalType": "uint256",
          "name": "landId",
          "type": "uint256"
        },
        {
          "indexed": true,
          "internalType": "address",
          "name": "owner",
          "type": "address"
        },
        {
          "indexed": false,
          "internalType": "string",
          "name": "metadataCID",
          "type": "string"
        }
      ],
      "name": "LandRegistered",
      "type": "event"
    },
    {
      "anonymous": false,
      "inputs": [
        {
          "indexed": true,
          "internalType": "uint256",
          "name": "landId",
          "type": "uint256"
        },
        {
          "indexed": false,
          "internalType": "enum LandRegistry.LandStatus",
          "name": "newStatus",
          "type": "uint8"
        }
      ],
      "name": "LandStatusUpdated",
      "type": "event"
    },
    {
      "anonymous": false,
      "inputs": [
        {
          "indexed": false,
          "internalType": "uint256",
          "name": "_tokenId",
          "type": "uint256"
        }
      ],
      "name": "MetadataUpdate",
      "type": "event"
    },
    {
      "anonymous": false,
      "inputs": [
        {
          "indexed": true,
          "internalType": "address",
          "name": "previousOwner",
          "type": "address"
        },
        {
          "indexed": true,
          "internalType": "address",
          "name": "newOwner",
          "type": "address"
        }
      ],
      "name": "OwnershipTransferred",
      "type": "event"
    },
    {
      "anonymous": false,
      "inputs": [
        {
          "indexed": true,
          "internalType": "uint256",
          "name": "landId",
          "type": "uint256"
        },
        {
          "indexed": true,
          "internalType": "address",
          "name": "buyer",
          "type": "address"
        }
      ],
      "name": "PurchaseRequested",
      "type": "event"
    },
    {
      "anonymous": false,
      "inputs": [
        {
          "indexed": true,
          "internalType": "address",
          "name": "from",
          "type": "address"
        },
        {
          "indexed": true,
          "internalType": "address",
          "name": "to",
          "type": "address"
        },
        {
          "indexed": true,
          "internalType": "uint256",
          "name": "tokenId",
          "type": "uint256"
        }
      ],
      "name": "Transfer",
      "type": "event"
    },
    {
      "anonymous": false,
      "inputs": [
        {
          "indexed": true,
          "internalType": "address",
          "name": "user",
          "type": "address"
        },
        {
          "indexed": false,
          "internalType": "string",
          "name": "metadataCID",
          "type": "string"
        }
      ],
      "name": "UserRegistered",
      "type": "event"
    },
    {
      "inputs": [
        {
          "internalType": "address",
          "name": "to",
          "type": "address"
        },
        {
          "internalType": "uint256",
          "name": "tokenId",
          "type": "uint256"
        }
      ],
      "name": "approve",
      "outputs": [],
      "stateMutability": "nonpayable",
      "type": "function"
    },
    {
      "inputs": [
        {
          "internalType": "address",
          "name": "owner",
          "type": "address"
        }
      ],
      "name": "balanceOf",
      "outputs": [
        {
          "internalType": "uint256",
          "name": "",
          "type": "uint256"
        }
      ],
      "stateMutability": "view",
      "type": "function"
    },
    {
      "inputs": [],
      "name": "getAllLandIds",
      "outputs": [
        {
          "internalType": "uint256[]",
          "name": "",
          "type": "uint256[]"
        }
      ],
      "stateMutability": "view",
      "type": "function"
    },
    {
      "inputs": [
        {
          "internalType": "uint256",
          "name": "tokenId",
          "type": "uint256"
        }
      ],
      "name": "getApproved",
      "outputs": [
        {
          "internalType": "address",
          "name": "",
          "type": "address"
        }
      ],
      "stateMutability": "view",
      "type": "function"
    },
    {
      "inputs": [
        {
          "internalType": "uint256",
          "name": "landId",
          "type": "uint256"
        }
      ],
      "name": "getLand",
      "outputs": [
        {
          "components": [
            {
              "internalType": "uint256",
              "name": "landId",
              "type": "uint256"
            },
            {
              "internalType": "enum LandRegistry.LandStatus",
              "name": "status",
              "type": "uint8"
            },
            {
              "internalType": "string",
              "name": "metadataCID",
              "type": "string"
            }
          ],
          "internalType": "struct LandRegistry.Land",
          "name": "land",
          "type": "tuple"
        },
        {
          "internalType": "address",
          "name": "owner",
          "type": "address"
        }
      ],
      "stateMutability": "view",
      "type": "function"
    },
    {
      "inputs": [
        {
          "internalType": "address",
          "name": "owner",
          "type": "address"
        }
      ],
      "name": "getOwnedLands",
      "outputs": [
        {
          "internalType": "uint256[]",
          "name": "",
          "type": "uint256[]"
        }
      ],
      "stateMutability": "view",
      "type": "function"
    },
    {
      "inputs": [
        {
          "internalType": "address",
          "name": "owner",
          "type": "address"
        },
        {
          "internalType": "address",
          "name": "operator",
          "type": "address"
        }
      ],
      "name": "isApprovedForAll",
      "outputs": [
        {
          "internalType": "bool",
          "name": "",
          "type": "bool"
        }
      ],
      "stateMutability": "view",
      "type": "function"
    },
    {
      "inputs": [
        {
          "internalType": "uint256",
          "name": "",
          "type": "uint256"
        }
      ],
      "name": "landPrices",
      "outputs": [
        {
          "internalType": "uint256",
          "name": "",
          "type": "uint256"
        }
      ],
      "stateMutability": "view",
      "type": "function"
    },
    {
      "inputs": [
        {
          "internalType": "uint256",
          "name": "",
          "type": "uint256"
        }
      ],
      "name": "lands",
      "outputs": [
        {
          "internalType": "uint256",
          "name": "landId",
          "type": "uint256"
        },
        {
          "internalType": "enum LandRegistry.LandStatus",
          "name": "status",
          "type": "uint8"
        },
        {
          "internalType": "string",
          "name": "metadataCID",
          "type": "string"
        }
      ],
      "stateMutability": "view",
      "type": "function"
    },
    {
      "inputs": [],
      "name": "name",
      "outputs": [
        {
          "internalType": "string",
          "name": "",
          "type": "string"
        }
      ],
      "stateMutability": "view",
      "type": "function"
    },
    {
      "inputs": [],
      "name": "owner",
      "outputs": [
        {
          "internalType": "address",
          "name": "",
          "type": "address"
        }
      ],
      "stateMutability": "view",
      "type": "function"
    },
    {
      "inputs": [
        {
          "internalType": "uint256",
          "name": "tokenId",
          "type": "uint256"
        }
      ],
      "name": "ownerOf",
      "outputs": [
        {
          "internalType": "address",
          "name": "",
          "type": "address"
        }
      ],
      "stateMutability": "view",
      "type": "function"
    },
    {
      "inputs": [
        {
          "internalType": "address",
          "name": "",
          "type": "address"
        },
        {
          "internalType": "uint256",
          "name": "",
          "type": "uint256"
        }
      ],
      "name": "ownerToLandIds",
      "outputs": [
        {
          "internalType": "uint256",
          "name": "",
          "type": "uint256"
        }
      ],
      "stateMutability": "view",
      "type": "function"
    },
    {
      "inputs": [
        {
          "internalType": "uint256",
          "name": "",
          "type": "uint256"
        }
      ],
      "name": "pendingBuyer",
      "outputs": [
        {
          "internalType": "address",
          "name": "",
          "type": "address"
        }
      ],
      "stateMutability": "view",
      "type": "function"
    },
    {
      "inputs": [
        {
          "internalType": "address",
          "name": "to",
          "type": "address"
        },
        {
          "internalType": "string",
          "name": "metadataCID",
          "type": "string"
        },
        {
          "internalType": "string",
          "name": "publicCID",
          "type": "string"
        },
        {
          "internalType": "uint256",
          "name": "priceWei",
          "type": "uint256"
        }
      ],
      "name": "registerLand",
      "outputs": [],
      "stateMutability": "nonpayable",
      "type": "function"
    },
    {
      "inputs": [
        {
          "internalType": "string",
          "name": "cid",
          "type": "string"
        }
      ],
      "name": "registerUserWithCID",
      "outputs": [],
      "stateMutability": "nonpayable",
      "type": "function"
    },
    {
      "inputs": [],
      "name": "renounceOwnership",
      "outputs": [],
      "stateMutability": "nonpayable",
      "type": "function"
    },
    {
      "inputs": [
        {
          "internalType": "uint256",
          "name": "landId",
          "type": "uint256"
        }
      ],
      "name": "requestToBuy",
      "outputs": [],
      "stateMutability": "payable",
      "type": "function"
    },
    {
      "inputs": [
        {
          "internalType": "address",
          "name": "",
          "type": "address"
        }
      ],
      "name": "roles",
      "outputs": [
        {
          "internalType": "enum LandRegistry.Role",
          "name": "",
          "type": "uint8"
        }
      ],
      "stateMutability": "view",
      "type": "function"
    },
    {
      "inputs": [
        {
          "internalType": "address",
          "name": "from",
          "type": "address"
        },
        {
          "internalType": "address",
          "name": "to",
          "type": "address"
        },
        {
          "internalType": "uint256",
          "name": "tokenId",
          "type": "uint256"
        }
      ],
      "name": "safeTransferFrom",
      "outputs": [],
      "stateMutability": "nonpayable",
      "type": "function"
    },
    {
      "inputs": [
        {
          "internalType": "address",
          "name": "from",
          "type": "address"
        },
        {
          "internalType": "address",
          "name": "to",
          "type": "address"
        },
        {
          "internalType": "uint256",
          "name": "tokenId",
          "type": "uint256"
        },
        {
          "internalType": "bytes",
          "name": "data",
          "type": "bytes"
        }
      ],
      "name": "safeTransferFrom",
      "outputs": [],
      "stateMutability": "nonpayable",
      "type": "function"
    },
    {
      "inputs": [],
      "name": "selfRegisterUser",
      "outputs": [],
      "stateMutability": "nonpayable",
      "type": "function"
    },
    {
      "inputs": [
        {
          "internalType": "address",
          "name": "operator",
          "type": "address"
        },
        {
          "internalType": "bool",
          "name": "approved",
          "type": "bool"
        }
      ],
      "name": "setApprovalForAll",
      "outputs": [],
      "stateMutability": "nonpayable",
      "type": "function"
    },
    {
      "inputs": [
        {
          "internalType": "bytes4",
          "name": "interfaceId",
          "type": "bytes4"
        }
      ],
      "name": "supportsInterface",
      "outputs": [
        {
          "internalType": "bool",
          "name": "",
          "type": "bool"
        }
      ],
      "stateMutability": "view",
      "type": "function"
    },
    {
      "inputs": [],
      "name": "symbol",
      "outputs": [
        {
          "internalType": "string",
          "name": "",
          "type": "string"
        }
      ],
      "stateMutability": "view",
      "type": "function"
    },
    {
      "inputs": [
        {
          "internalType": "uint256",
          "name": "tokenId",
          "type": "uint256"
        }
      ],
      "name": "tokenURI",
      "outputs": [
        {
          "internalType": "string",
          "name": "",
          "type": "string"
        }
      ],
      "stateMutability": "view",
      "type": "function"
    },
    {
      "inputs": [
        {
          "internalType": "address",
          "name": "from",
          "type": "address"
        },
        {
          "internalType": "address",
          "name": "to",
          "type": "address"
        },
        {
          "internalType": "uint256",
          "name": "tokenId",
          "type": "uint256"
        }
      ],
      "name": "transferFrom",
      "outputs": [],
      "stateMutability": "nonpayable",
      "type": "function"
    },
    {
      "inputs": [
        {
          "internalType": "uint256",
          "name": "landId",
          "type": "uint256"
        },
        {
          "internalType": "address",
          "name": "newOwner",
          "type": "address"
        },
        {
          "internalType": "string",
          "name": "newMetadataCID",
          "type": "string"
        }
      ],
      "name": "transferLandOwnership",
      "outputs": [],
      "stateMutability": "nonpayable",
      "type": "function"
    },
    {
      "inputs": [
        {
          "internalType": "address",
          "name": "newOwner",
          "type": "address"
        }
      ],
      "name": "transferOwnership",
      "outputs": [],
      "stateMutability": "nonpayable",
      "type": "function"
    },
    {
      "inputs": [
        {
          "internalType": "uint256",
          "name": "landId",
          "type": "uint256"
        },
        {
          "internalType": "enum LandRegistry.LandStatus",
          "name": "newStatus",
          "type": "uint8"
        }
      ],
      "name": "updateLandStatus",
      "outputs": [],
      "stateMutability": "nonpayable",
      "type": "function"
    },
    {
      "inputs": [
        {
          "internalType": "address",
          "name": "",
          "type": "address"
        }
      ],
      "name": "userMetadataCID",
      "outputs": [
        {
          "internalType": "string",
          "name": "",
          "type": "string"
        }
      ],
      "stateMutability": "view",
      "type": "function"
    }
  ],
  "bytecode": "0x6080604052600067ffffffffffffffff81111561001f5761001e610331565b5b60405190808252806020026020018201604052801561005257816020015b606081526020019060019003908161003d5790505b5060089080519060200190610068929190610257565b50600160095534801561007a57600080fd5b50336040518060400160405280600781526020017f476f764c616e64000000000000000000000000000000000000000000000000008152506040518060400160405280600381526020017f4d4c4e000000000000000000000000000000000000000000000000000000000081525081600090816100f79190610581565b5080600190816101079190610581565b505050600073ffffffffffffffffffffffffffffffffffffffff168173ffffffffffffffffffffffffffffffffffffffff160361017c5760006040517f1e4fbdf70000000000000000000000000000000000000000000000000000000081526004016101739190610694565b60405180910390fd5b61018b8161019160201b60201c565b506106af565b6000600760009054906101000a900473ffffffffffffffffffffffffffffffffffffffff16905081600760006101000a81548173ffffffffffffffffffffffffffffffffffffffff021916908373ffffffffffffffffffffffffffffffffffffffff1602179055508173ffffffffffffffffffffffffffffffffffffffff168173ffffffffffffffffffffffffffffffffffffffff167f8be0079c531659141344cd1fd0a4f28419497f9722a3daafe3b4186f6b6457e060405160405180910390a35050565b82805482825590600052602060002090810192821561029f579160200282015b8281111561029e57825182908161028e9190610581565b5091602001919060010190610277565b5b5090506102ac91906102b0565b5090565b5b808211156102d057600081816102c791906102d4565b506001016102b1565b5090565b5080546102e09061039a565b6000825580601f106102f25750610311565b601f0160209004906000526020600020908101906103109190610314565b5b50565b5b8082111561032d576000816000905550600101610315565b5090565b7f4e487b7100000000000000000000000000000000000000000000000000000000600052604160045260246000fd5b600081519050919050565b7f4e487b7100000000000000000000000000000000000000000000000000000000600052602260045260246000fd5b600060028204905060018216806103b257607f821691505b6020821081036103c5576103c461036b565b5b50919050565b60008190508160005260206000209050919050565b60006020601f8301049050919050565b600082821b905092915050565b60006008830261042d7fffffffffffffffffffffffffffffffffffffffffffffffffffffffffffffffff826103f0565b61043786836103f0565b95508019841693508086168417925050509392505050565b6000819050919050565b6000819050919050565b600061047e6104796104748461044f565b610459565b61044f565b9050919050565b6000819050919050565b61049883610463565b6104ac6104a482610485565b8484546103fd565b825550505050565b600090565b6104c16104b4565b6104cc81848461048f565b505050565b5b818110156104f0576104e56000826104b9565b6001810190506104d2565b5050565b601f82111561053557610506816103cb565b61050f846103e0565b8101602085101561051e578190505b61053261052a856103e0565b8301826104d1565b50505b505050565b600082821c905092915050565b60006105586000198460080261053a565b1980831691505092915050565b60006105718383610547565b9150826002028217905092915050565b61058a82610360565b67ffffffffffffffff8111156105a3576105a2610331565b5b6105ad825461039a565b6105b88282856104f4565b600060209050601f8311600181146105eb57600084156105d9578287015190505b6105e38582610565565b86555061064b565b601f1984166105f9866103cb565b60005b82811015610621578489015182556001820191506020850194506020810190506105fc565b8683101561063e578489015161063a601f891682610547565b8355505b6001600288020188555050505b505050505050565b600073ffffffffffffffffffffffffffffffffffffffff82169050919050565b600061067e82610653565b9050919050565b61068e81610673565b82525050565b60006020820190506106a96000830184610685565b92915050565b614921806106be6000396000f3fe6080604052600436106101d85760003560e01c8063715018a611610102578063b88d4fde11610095578063e261f1e511610064578063e261f1e5146106e3578063e985e9c514610722578063f02dd53f1461075f578063f2fde38b1461079d576101d8565b8063b88d4fde14610629578063bee4918c14610652578063c87b56dd1461067b578063d7dee192146106b8576101d8565b806395d89b41116100d157806395d89b411461056f578063993746421461059a578063a22cb465146105d7578063aa2a906b14610600576101d8565b8063715018a6146104d9578063772afef4146104f05780637bb2d6db146105075780638da5cb5b14610544576101d8565b806342842e0e1161017a5780636352211e116101495780636352211e146103e55780636480a5d21461042257806366f487ed1461045f57806370a082311461049c576101d8565b806342842e0e14610326578063519ea7051461034f5780635b48d9ae1461038c5780635c7b0308146103c9576101d8565b8063081812fc116101b6578063081812fc1461026e578063095ea7b3146102ab578063174a8fe7146102d457806323b872dd146102fd576101d8565b806301ffc9a7146101dd5780630551035e1461021a57806306fdde0314610243575b600080fd5b3480156101e957600080fd5b5061020460048036038101906101ff919061323c565b6107c6565b6040516102119190613284565b60405180910390f35b34801561022657600080fd5b50610241600480360381019061023c9190613479565b610827565b005b34801561024f57600080fd5b50610258610ae1565b6040516102659190613597565b60405180910390f35b34801561027a57600080fd5b50610295600480360381019061029091906135b9565b610b73565b6040516102a291906135f5565b60405180910390f35b3480156102b757600080fd5b506102d260048036038101906102cd9190613610565b610b8f565b005b3480156102e057600080fd5b506102fb60048036038101906102f69190613675565b610ba5565b005b34801561030957600080fd5b50610324600480360381019061031f91906136b5565b610d90565b005b34801561033257600080fd5b5061034d600480360381019061034891906136b5565b610e92565b005b34801561035b57600080fd5b5061037660048036038101906103719190613708565b610eb2565b60405161038391906137f3565b60405180910390f35b34801561039857600080fd5b506103b360048036038101906103ae9190613708565b610f49565b6040516103c09190613597565b60405180910390f35b6103e360048036038101906103de91906135b9565b610fe9565b005b3480156103f157600080fd5b5061040c600480360381019061040791906135b9565b61128c565b60405161041991906135f5565b60405180910390f35b34801561042e57600080fd5b50610449600480360381019061044491906135b9565b61129e565b60405161045691906135f5565b60405180910390f35b34801561046b57600080fd5b5061048660048036038101906104819190613610565b6112d1565b6040516104939190613824565b60405180910390f35b3480156104a857600080fd5b506104c360048036038101906104be9190613708565b611302565b6040516104d09190613824565b60405180910390f35b3480156104e557600080fd5b506104ee6113bc565b005b3480156104fc57600080fd5b506105056113d0565b005b34801561051357600080fd5b5061052e600480360381019061052991906135b9565b611539565b60405161053b9190613824565b60405180910390f35b34801561055057600080fd5b50610559611551565b60405161056691906135f5565b60405180910390f35b34801561057b57600080fd5b5061058461157b565b6040516105919190613597565b60405180910390f35b3480156105a657600080fd5b506105c160048036038101906105bc9190613708565b61160d565b6040516105ce91906138b6565b60405180910390f35b3480156105e357600080fd5b506105fe60048036038101906105f991906138fd565b61162d565b005b34801561060c57600080fd5b506106276004803603810190610622919061399d565b611643565b005b34801561063557600080fd5b50610650600480360381019061064b9190613ab2565b611a90565b005b34801561065e57600080fd5b5061067960048036038101906106749190613b35565b611ab5565b005b34801561068757600080fd5b506106a2600480360381019061069d91906135b9565b611c6e565b6040516106af9190613597565b60405180910390f35b3480156106c457600080fd5b506106cd611cf4565b6040516106da91906137f3565b60405180910390f35b3480156106ef57600080fd5b5061070a600480360381019061070591906135b9565b611da3565b60405161071993929190613bc6565b60405180910390f35b34801561072e57600080fd5b5061074960048036038101906107449190613c04565b611e62565b6040516107569190613284565b60405180910390f35b34801561076b57600080fd5b50610786600480360381019061078191906135b9565b611ef6565b604051610794929190613ced565b60405180910390f35b3480156107a957600080fd5b506107c460048036038101906107bf9190613708565b612052565b005b6000634906490660e01b7bffffffffffffffffffffffffffffffffffffffffffffffffffffffff1916827bffffffffffffffffffffffffffffffffffffffffffffffffffffffff19161480610820575061081f826120d8565b5b9050919050565b6001600281111561083b5761083a61383f565b5b600b60003373ffffffffffffffffffffffffffffffffffffffff1673ffffffffffffffffffffffffffffffffffffffff16815260200190815260200160002060009054906101000a900460ff16600281111561089a5761089961383f565b5b146108da576040517f08c379a00000000000000000000000000000000000000000000000000000000081526004016108d190613d69565b60405180910390fd5b6000600960008154809291906108ef90613db8565b9190505590506108ff85826121ba565b6040518060600160405280828152602001600160048111156109245761092361383f565b5b815260200185815250600c60008381526020019081526020016000206000820151816000015560208201518160010160006101000a81548160ff021916908360048111156109755761097461383f565b5b0217905550604082015181600201908161098f919061400c565b50905050600d60008673ffffffffffffffffffffffffffffffffffffffff1673ffffffffffffffffffffffffffffffffffffffff168152602001908152602001600020819080600181540180825580915050600190039060005260206000200160009091909190915055610a02836121d8565b8473ffffffffffffffffffffffffffffffffffffffff16817f9c4ad74928fec1ee86181680df0e76bf575b79ea2a0347f7ed270884bdd26ad786604051610a499190613597565b60405180910390a381600e600083815260200190815260200160002081905550807f6d63dff809eaa3125b19b928b3955c261658ff6781148e3d3e6a939b7bee2ba96001604051610a9a91906140de565b60405180910390a2807f2f9b23898410304c2b8c29547330c8ef08ad5f7c80b5204df939744931e2752083604051610ad29190613824565b60405180910390a25050505050565b606060008054610af090613e2f565b80601f0160208091040260200160405190810160405280929190818152602001828054610b1c90613e2f565b8015610b695780601f10610b3e57610100808354040283529160200191610b69565b820191906000526020600020905b815481529060010190602001808311610b4c57829003601f168201915b5050505050905090565b6000610b7e82612218565b50610b88826122a0565b9050919050565b610ba18282610b9c6122dd565b6122e5565b5050565b60016002811115610bb957610bb861383f565b5b600b60003373ffffffffffffffffffffffffffffffffffffffff1673ffffffffffffffffffffffffffffffffffffffff16815260200190815260200160002060009054906101000a900460ff166002811115610c1857610c1761383f565b5b14610c58576040517f08c379a0000000000000000000000000000000000000000000000000000000008152600401610c4f90613d69565b60405180910390fd5b610c61826122f7565b610ca0576040517f08c379a0000000000000000000000000000000000000000000000000000000008152600401610c9790614145565b60405180910390fd5b3373ffffffffffffffffffffffffffffffffffffffff16610cc08361128c565b73ffffffffffffffffffffffffffffffffffffffff1614610d16576040517f08c379a0000000000000000000000000000000000000000000000000000000008152600401610d0d906141b1565b60405180910390fd5b80600c600084815260200190815260200160002060010160006101000a81548160ff02191690836004811115610d4f57610d4e61383f565b5b0217905550817f6d63dff809eaa3125b19b928b3955c261658ff6781148e3d3e6a939b7bee2ba982604051610d8491906140de565b60405180910390a25050565b600073ffffffffffffffffffffffffffffffffffffffff168273ffffffffffffffffffffffffffffffffffffffff1603610e025760006040517f64a0ae92000000000000000000000000000000000000000000000000000000008152600401610df991906135f5565b60405180910390fd5b6000610e168383610e116122dd565b612338565b90508373ffffffffffffffffffffffffffffffffffffffff168173ffffffffffffffffffffffffffffffffffffffff1614610e8c578382826040517f64283d7b000000000000000000000000000000000000000000000000000000008152600401610e83939291906141d1565b60405180910390fd5b50505050565b610ead83838360405180602001604052806000815250611a90565b505050565b6060600d60008373ffffffffffffffffffffffffffffffffffffffff1673ffffffffffffffffffffffffffffffffffffffff168152602001908152602001600020805480602002602001604051908101604052809291908181526020018280548015610f3d57602002820191906000526020600020905b815481526020019060010190808311610f29575b50505050509050919050565b600a6020528060005260406000206000915090508054610f6890613e2f565b80601f0160208091040260200160405190810160405280929190818152602001828054610f9490613e2f565b8015610fe15780601f10610fb657610100808354040283529160200191610fe1565b820191906000526020600020905b815481529060010190602001808311610fc457829003601f168201915b505050505081565b60016002811115610ffd57610ffc61383f565b5b600b60003373ffffffffffffffffffffffffffffffffffffffff1673ffffffffffffffffffffffffffffffffffffffff16815260200190815260200160002060009054906101000a900460ff16600281111561105c5761105b61383f565b5b1461109c576040517f08c379a000000000000000000000000000000000000000000000000000000000815260040161109390613d69565b60405180910390fd5b600160048111156110b0576110af61383f565b5b600c600083815260200190815260200160002060010160009054906101000a900460ff1660048111156110e6576110e561383f565b5b14611126576040517f08c379a000000000000000000000000000000000000000000000000000000000815260040161111d90614254565b60405180910390fd5b600e600082815260200190815260200160002054341461117b576040517f08c379a0000000000000000000000000000000000000000000000000000000008152600401611172906142c0565b60405180910390fd5b33600f600083815260200190815260200160002060006101000a81548173ffffffffffffffffffffffffffffffffffffffff021916908373ffffffffffffffffffffffffffffffffffffffff1602179055506002600c600083815260200190815260200160002060010160006101000a81548160ff021916908360048111156112075761120661383f565b5b0217905550807f6d63dff809eaa3125b19b928b3955c261658ff6781148e3d3e6a939b7bee2ba9600260405161123d91906140de565b60405180910390a23373ffffffffffffffffffffffffffffffffffffffff16817fc09888d0d13bc8be6e776deb914e6e8696b8167f87668e53dc967dd7ebb8a50060405160405180910390a350565b600061129782612218565b9050919050565b600f6020528060005260406000206000915054906101000a900473ffffffffffffffffffffffffffffffffffffffff1681565b600d60205281600052604060002081815481106112ed57600080fd5b90600052602060002001600091509150505481565b60008073ffffffffffffffffffffffffffffffffffffffff168273ffffffffffffffffffffffffffffffffffffffff16036113755760006040517f89c62b6400000000000000000000000000000000000000000000000000000000815260040161136c91906135f5565b60405180910390fd5b600360008373ffffffffffffffffffffffffffffffffffffffff1673ffffffffffffffffffffffffffffffffffffffff168152602001908152602001600020549050919050565b6113c4612552565b6113ce60006125d9565b565b600060028111156113e4576113e361383f565b5b600b60003373ffffffffffffffffffffffffffffffffffffffff1673ffffffffffffffffffffffffffffffffffffffff16815260200190815260200160002060009054906101000a900460ff1660028111156114435761144261383f565b5b14611483576040517f08c379a000000000000000000000000000000000000000000000000000000000815260040161147a9061432c565b60405180910390fd5b6001600b60003373ffffffffffffffffffffffffffffffffffffffff1673ffffffffffffffffffffffffffffffffffffffff16815260200190815260200160002060006101000a81548160ff021916908360028111156114e6576114e561383f565b5b02179055503373ffffffffffffffffffffffffffffffffffffffff167f48cac28ad4dc618e15f4c2dd5e97751182f166de97b25618318b2112aa951a2f60405161152f90614372565b60405180910390a2565b600e6020528060005260406000206000915090505481565b6000600760009054906101000a900473ffffffffffffffffffffffffffffffffffffffff16905090565b60606001805461158a90613e2f565b80601f01602080910402602001604051908101604052809291908181526020018280546115b690613e2f565b80156116035780601f106115d857610100808354040283529160200191611603565b820191906000526020600020905b8154815290600101906020018083116115e657829003601f168201915b5050505050905090565b600b6020528060005260406000206000915054906101000a900460ff1681565b61163f6116386122dd565b838361269f565b5050565b600160028111156116575761165661383f565b5b600b60003373ffffffffffffffffffffffffffffffffffffffff1673ffffffffffffffffffffffffffffffffffffffff16815260200190815260200160002060009054906101000a900460ff1660028111156116b6576116b561383f565b5b146116f6576040517f08c379a00000000000000000000000000000000000000000000000000000000081526004016116ed90613d69565b60405180910390fd5b60006117018561128c565b90503373ffffffffffffffffffffffffffffffffffffffff168173ffffffffffffffffffffffffffffffffffffffff1614611771576040517f08c379a0000000000000000000000000000000000000000000000000000000008152600401611768906143de565b60405180910390fd5b8373ffffffffffffffffffffffffffffffffffffffff16600f600087815260200190815260200160002060009054906101000a900473ffffffffffffffffffffffffffffffffffffffff1673ffffffffffffffffffffffffffffffffffffffff1614611812576040517f08c379a00000000000000000000000000000000000000000000000000000000081526004016118099061444a565b60405180910390fd5b61181c818661280e565b600d60008573ffffffffffffffffffffffffffffffffffffffff1673ffffffffffffffffffffffffffffffffffffffff16815260200190815260200160002085908060018154018082558091505060019003906000526020600020016000909190919091505561188d818587612915565b8282600c600088815260200190815260200160002060020191826118b2929190614475565b506119018584848080601f016020809104026020016040519081016040528093929190818152602001838380828437600081840152601f19601f82011690508083019250505050505050612a82565b6003600c600087815260200190815260200160002060010160006101000a81548160ff0219169083600481111561193b5761193a61383f565b5b0217905550847f6d63dff809eaa3125b19b928b3955c261658ff6781148e3d3e6a939b7bee2ba9600360405161197191906140de565b60405180910390a26000600e60008781526020019081526020016000205490506000600f600088815260200190815260200160002060006101000a81548173ffffffffffffffffffffffffffffffffffffffff021916908373ffffffffffffffffffffffffffffffffffffffff1602179055506000600e6000888152602001908152602001600020819055508173ffffffffffffffffffffffffffffffffffffffff166108fc829081150290604051600060405180830381858888f19350505050158015611a43573d6000803e3d6000fd5b508473ffffffffffffffffffffffffffffffffffffffff16867f5e569b537d45304a15b956ec8cb2aaa2dfcff5385fdb4828e7c914a388e805cf60405160405180910390a3505050505050565b611a9b848484610d90565b611aaf611aa66122dd565b85858585612ade565b50505050565b60006002811115611ac957611ac861383f565b5b600b60003373ffffffffffffffffffffffffffffffffffffffff1673ffffffffffffffffffffffffffffffffffffffff16815260200190815260200160002060009054906101000a900460ff166002811115611b2857611b2761383f565b5b14611b68576040517f08c379a0000000000000000000000000000000000000000000000000000000008152600401611b5f9061432c565b60405180910390fd5b6001600b60003373ffffffffffffffffffffffffffffffffffffffff1673ffffffffffffffffffffffffffffffffffffffff16815260200190815260200160002060006101000a81548160ff02191690836002811115611bcb57611bca61383f565b5b021790555080600a60003373ffffffffffffffffffffffffffffffffffffffff1673ffffffffffffffffffffffffffffffffffffffff1681526020019081526020016000209081611c1c919061400c565b503373ffffffffffffffffffffffffffffffffffffffff167f48cac28ad4dc618e15f4c2dd5e97751182f166de97b25618318b2112aa951a2f82604051611c639190613597565b60405180910390a250565b6060611c79826122f7565b611cb8576040517f08c379a0000000000000000000000000000000000000000000000000000000008152600401611caf90614591565b60405180910390fd5b600c6000838152602001908152602001600020600201604051602001611cde919061468b565b6040516020818303038152906040529050919050565b606060006001600954611d0791906146ad565b905060008167ffffffffffffffff811115611d2557611d24613318565b5b604051908082528060200260200182016040528015611d535781602001602082028036833780820191505090505b50905060005b82811015611d9a57600181611d6e91906146e1565b828281518110611d8157611d80614715565b5b6020026020010181815250508080600101915050611d59565b50809250505090565b600c6020528060005260406000206000915090508060000154908060010160009054906101000a900460ff1690806002018054611ddf90613e2f565b80601f0160208091040260200160405190810160405280929190818152602001828054611e0b90613e2f565b8015611e585780601f10611e2d57610100808354040283529160200191611e58565b820191906000526020600020905b815481529060010190602001808311611e3b57829003601f168201915b5050505050905083565b6000600560008473ffffffffffffffffffffffffffffffffffffffff1673ffffffffffffffffffffffffffffffffffffffff16815260200190815260200160002060008373ffffffffffffffffffffffffffffffffffffffff1673ffffffffffffffffffffffffffffffffffffffff16815260200190815260200160002060009054906101000a900460ff16905092915050565b611efe61319d565b6000611f09836122f7565b611f48576040517f08c379a0000000000000000000000000000000000000000000000000000000008152600401611f3f90614790565b60405180910390fd5b600c6000848152602001908152602001600020611f648461128c565b81604051806060016040529081600082015481526020016001820160009054906101000a900460ff166004811115611f9f57611f9e61383f565b5b6004811115611fb157611fb061383f565b5b8152602001600282018054611fc590613e2f565b80601f0160208091040260200160405190810160405280929190818152602001828054611ff190613e2f565b801561203e5780601f106120135761010080835404028352916020019161203e565b820191906000526020600020905b81548152906001019060200180831161202157829003601f168201915b505050505081525050915091509150915091565b61205a612552565b600073ffffffffffffffffffffffffffffffffffffffff168173ffffffffffffffffffffffffffffffffffffffff16036120cc5760006040517f1e4fbdf70000000000000000000000000000000000000000000000000000000081526004016120c391906135f5565b60405180910390fd5b6120d5816125d9565b50565b60007f80ac58cd000000000000000000000000000000000000000000000000000000007bffffffffffffffffffffffffffffffffffffffffffffffffffffffff1916827bffffffffffffffffffffffffffffffffffffffffffffffffffffffff191614806121a357507f5b5e139f000000000000000000000000000000000000000000000000000000007bffffffffffffffffffffffffffffffffffffffffffffffffffffffff1916827bffffffffffffffffffffffffffffffffffffffffffffffffffffffff1916145b806121b357506121b282612c8f565b5b9050919050565b6121d4828260405180602001604052806000815250612cf9565b5050565b6121e0612552565b600881908060018154018082558091505060019003906000526020600020016000909190919091509081612214919061400c565b5050565b60008061222483612d1d565b9050600073ffffffffffffffffffffffffffffffffffffffff168173ffffffffffffffffffffffffffffffffffffffff160361229757826040517f7e27328900000000000000000000000000000000000000000000000000000000815260040161228e9190613824565b60405180910390fd5b80915050919050565b60006004600083815260200190815260200160002060009054906101000a900473ffffffffffffffffffffffffffffffffffffffff169050919050565b600033905090565b6122f28383836001612d5a565b505050565b60008073ffffffffffffffffffffffffffffffffffffffff1661231983612d1d565b73ffffffffffffffffffffffffffffffffffffffff1614159050919050565b60008061234484612d1d565b9050600073ffffffffffffffffffffffffffffffffffffffff168373ffffffffffffffffffffffffffffffffffffffff161461238657612385818486612f1f565b5b600073ffffffffffffffffffffffffffffffffffffffff168173ffffffffffffffffffffffffffffffffffffffff1614612417576123c8600085600080612d5a565b6001600360008373ffffffffffffffffffffffffffffffffffffffff1673ffffffffffffffffffffffffffffffffffffffff168152602001908152602001600020600082825403925050819055505b600073ffffffffffffffffffffffffffffffffffffffff168573ffffffffffffffffffffffffffffffffffffffff161461249a576001600360008773ffffffffffffffffffffffffffffffffffffffff1673ffffffffffffffffffffffffffffffffffffffff168152602001908152602001600020600082825401925050819055505b846002600086815260200190815260200160002060006101000a81548173ffffffffffffffffffffffffffffffffffffffff021916908373ffffffffffffffffffffffffffffffffffffffff160217905550838573ffffffffffffffffffffffffffffffffffffffff168273ffffffffffffffffffffffffffffffffffffffff167fddf252ad1be2c89b69c2b068fc378daa952ba7f163c4a11628f55a4df523b3ef60405160405180910390a4809150509392505050565b61255a6122dd565b73ffffffffffffffffffffffffffffffffffffffff16612578611551565b73ffffffffffffffffffffffffffffffffffffffff16146125d75761259b6122dd565b6040517f118cdaa70000000000000000000000000000000000000000000000000000000081526004016125ce91906135f5565b60405180910390fd5b565b6000600760009054906101000a900473ffffffffffffffffffffffffffffffffffffffff16905081600760006101000a81548173ffffffffffffffffffffffffffffffffffffffff021916908373ffffffffffffffffffffffffffffffffffffffff1602179055508173ffffffffffffffffffffffffffffffffffffffff168173ffffffffffffffffffffffffffffffffffffffff167f8be0079c531659141344cd1fd0a4f28419497f9722a3daafe3b4186f6b6457e060405160405180910390a35050565b600073ffffffffffffffffffffffffffffffffffffffff168273ffffffffffffffffffffffffffffffffffffffff160361271057816040517f5b08ba1800000000000000000000000000000000000000000000000000000000815260040161270791906135f5565b60405180910390fd5b80600560008573ffffffffffffffffffffffffffffffffffffffff1673ffffffffffffffffffffffffffffffffffffffff16815260200190815260200160002060008473ffffffffffffffffffffffffffffffffffffffff1673ffffffffffffffffffffffffffffffffffffffff16815260200190815260200160002060006101000a81548160ff0219169083151502179055508173ffffffffffffffffffffffffffffffffffffffff168373ffffffffffffffffffffffffffffffffffffffff167f17307eab39ab6107e8899845ad3d59bd9653f200f220920489ca2b5937696c31836040516128019190613284565b60405180910390a3505050565b6000600d60008473ffffffffffffffffffffffffffffffffffffffff1673ffffffffffffffffffffffffffffffffffffffff168152602001908152602001600020905060005b818054905081101561290e578282828154811061287457612873614715565b5b90600052602060002001540361290157816001838054905061289691906146ad565b815481106128a7576128a6614715565b5b90600052602060002001548282815481106128c5576128c4614715565b5b9060005260206000200181905550818054806128e4576128e36147b0565b5b600190038181906000526020600020016000905590555050612911565b8080600101915050612854565b50505b5050565b600073ffffffffffffffffffffffffffffffffffffffff168273ffffffffffffffffffffffffffffffffffffffff16036129875760006040517f64a0ae9200000000000000000000000000000000000000000000000000000000815260040161297e91906135f5565b60405180910390fd5b600061299583836000612338565b9050600073ffffffffffffffffffffffffffffffffffffffff168173ffffffffffffffffffffffffffffffffffffffff1603612a0857816040517f7e2732890000000000000000000000000000000000000000000000000000000081526004016129ff9190613824565b60405180910390fd5b8373ffffffffffffffffffffffffffffffffffffffff168173ffffffffffffffffffffffffffffffffffffffff1614612a7c578382826040517f64283d7b000000000000000000000000000000000000000000000000000000008152600401612a73939291906141d1565b60405180910390fd5b50505050565b80600660008481526020019081526020016000209081612aa2919061400c565b507ff8e1a15aba9398e019f0b49df1a4fde98ee17ae345cb5f6b5e2c27f5033e8ce782604051612ad29190613824565b60405180910390a15050565b60008373ffffffffffffffffffffffffffffffffffffffff163b1115612c88578273ffffffffffffffffffffffffffffffffffffffff1663150b7a02868685856040518563ffffffff1660e01b8152600401612b3d9493929190614834565b6020604051808303816000875af1925050508015612b7957506040513d601f19601f82011682018060405250810190612b769190614895565b60015b612bfd573d8060008114612ba9576040519150601f19603f3d011682016040523d82523d6000602084013e612bae565b606091505b506000815103612bf557836040517f64a0ae92000000000000000000000000000000000000000000000000000000008152600401612bec91906135f5565b60405180910390fd5b805181602001fd5b63150b7a0260e01b7bffffffffffffffffffffffffffffffffffffffffffffffffffffffff1916817bffffffffffffffffffffffffffffffffffffffffffffffffffffffff191614612c8657836040517f64a0ae92000000000000000000000000000000000000000000000000000000008152600401612c7d91906135f5565b60405180910390fd5b505b5050505050565b60007f01ffc9a7000000000000000000000000000000000000000000000000000000007bffffffffffffffffffffffffffffffffffffffffffffffffffffffff1916827bffffffffffffffffffffffffffffffffffffffffffffffffffffffff1916149050919050565b612d038383612fe3565b612d18612d0e6122dd565b6000858585612ade565b505050565b60006002600083815260200190815260200160002060009054906101000a900473ffffffffffffffffffffffffffffffffffffffff169050919050565b8080612d935750600073ffffffffffffffffffffffffffffffffffffffff168273ffffffffffffffffffffffffffffffffffffffff1614155b15612ec7576000612da384612218565b9050600073ffffffffffffffffffffffffffffffffffffffff168373ffffffffffffffffffffffffffffffffffffffff1614158015612e0e57508273ffffffffffffffffffffffffffffffffffffffff168173ffffffffffffffffffffffffffffffffffffffff1614155b8015612e215750612e1f8184611e62565b155b15612e6357826040517fa9fbf51f000000000000000000000000000000000000000000000000000000008152600401612e5a91906135f5565b60405180910390fd5b8115612ec557838573ffffffffffffffffffffffffffffffffffffffff168273ffffffffffffffffffffffffffffffffffffffff167f8c5be1e5ebec7d5bd14f71427d1e84f3dd0314c0f7b2291e5b200ac8c7c3b92560405160405180910390a45b505b836004600085815260200190815260200160002060006101000a81548173ffffffffffffffffffffffffffffffffffffffff021916908373ffffffffffffffffffffffffffffffffffffffff16021790555050505050565b612f2a8383836130dc565b612fde57600073ffffffffffffffffffffffffffffffffffffffff168373ffffffffffffffffffffffffffffffffffffffff1603612f9f57806040517f7e273289000000000000000000000000000000000000000000000000000000008152600401612f969190613824565b60405180910390fd5b81816040517f177e802f000000000000000000000000000000000000000000000000000000008152600401612fd59291906148c2565b60405180910390fd5b505050565b600073ffffffffffffffffffffffffffffffffffffffff168273ffffffffffffffffffffffffffffffffffffffff16036130555760006040517f64a0ae9200000000000000000000000000000000000000000000000000000000815260040161304c91906135f5565b60405180910390fd5b600061306383836000612338565b9050600073ffffffffffffffffffffffffffffffffffffffff168173ffffffffffffffffffffffffffffffffffffffff16146130d75760006040517f73c6ac6e0000000000000000000000000000000000000000000000000000000081526004016130ce91906135f5565b60405180910390fd5b505050565b60008073ffffffffffffffffffffffffffffffffffffffff168373ffffffffffffffffffffffffffffffffffffffff161415801561319457508273ffffffffffffffffffffffffffffffffffffffff168473ffffffffffffffffffffffffffffffffffffffff16148061315557506131548484611e62565b5b8061319357508273ffffffffffffffffffffffffffffffffffffffff1661317b836122a0565b73ffffffffffffffffffffffffffffffffffffffff16145b5b90509392505050565b604051806060016040528060008152602001600060048111156131c3576131c261383f565b5b8152602001606081525090565b6000604051905090565b600080fd5b600080fd5b60007fffffffff0000000000000000000000000000000000000000000000000000000082169050919050565b613219816131e4565b811461322457600080fd5b50565b60008135905061323681613210565b92915050565b600060208284031215613252576132516131da565b5b600061326084828501613227565b91505092915050565b60008115159050919050565b61327e81613269565b82525050565b60006020820190506132996000830184613275565b92915050565b600073ffffffffffffffffffffffffffffffffffffffff82169050919050565b60006132ca8261329f565b9050919050565b6132da816132bf565b81146132e557600080fd5b50565b6000813590506132f7816132d1565b92915050565b600080fd5b600080fd5b6000601f19601f8301169050919050565b7f4e487b7100000000000000000000000000000000000000000000000000000000600052604160045260246000fd5b61335082613307565b810181811067ffffffffffffffff8211171561336f5761336e613318565b5b80604052505050565b60006133826131d0565b905061338e8282613347565b919050565b600067ffffffffffffffff8211156133ae576133ad613318565b5b6133b782613307565b9050602081019050919050565b82818337600083830152505050565b60006133e66133e184613393565b613378565b90508281526020810184848401111561340257613401613302565b5b61340d8482856133c4565b509392505050565b600082601f83011261342a576134296132fd565b5b813561343a8482602086016133d3565b91505092915050565b6000819050919050565b61345681613443565b811461346157600080fd5b50565b6000813590506134738161344d565b92915050565b60008060008060808587031215613493576134926131da565b5b60006134a1878288016132e8565b945050602085013567ffffffffffffffff8111156134c2576134c16131df565b5b6134ce87828801613415565b935050604085013567ffffffffffffffff8111156134ef576134ee6131df565b5b6134fb87828801613415565b925050606061350c87828801613464565b91505092959194509250565b600081519050919050565b600082825260208201905092915050565b60005b83811015613552578082015181840152602081019050613537565b60008484015250505050565b600061356982613518565b6135738185613523565b9350613583818560208601613534565b61358c81613307565b840191505092915050565b600060208201905081810360008301526135b1818461355e565b905092915050565b6000602082840312156135cf576135ce6131da565b5b60006135dd84828501613464565b91505092915050565b6135ef816132bf565b82525050565b600060208201905061360a60008301846135e6565b92915050565b60008060408385031215613627576136266131da565b5b6000613635858286016132e8565b925050602061364685828601613464565b9150509250929050565b6005811061365d57600080fd5b50565b60008135905061366f81613650565b92915050565b6000806040838503121561368c5761368b6131da565b5b600061369a85828601613464565b92505060206136ab85828601613660565b9150509250929050565b6000806000606084860312156136ce576136cd6131da565b5b60006136dc868287016132e8565b93505060206136ed868287016132e8565b92505060406136fe86828701613464565b9150509250925092565b60006020828403121561371e5761371d6131da565b5b600061372c848285016132e8565b91505092915050565b600081519050919050565b600082825260208201905092915050565b6000819050602082019050919050565b61376a81613443565b82525050565b600061377c8383613761565b60208301905092915050565b6000602082019050919050565b60006137a082613735565b6137aa8185613740565b93506137b583613751565b8060005b838110156137e65781516137cd8882613770565b97506137d883613788565b9250506001810190506137b9565b5085935050505092915050565b6000602082019050818103600083015261380d8184613795565b905092915050565b61381e81613443565b82525050565b60006020820190506138396000830184613815565b92915050565b7f4e487b7100000000000000000000000000000000000000000000000000000000600052602160045260246000fd5b6003811061387f5761387e61383f565b5b50565b60008190506138908261386e565b919050565b60006138a082613882565b9050919050565b6138b081613895565b82525050565b60006020820190506138cb60008301846138a7565b92915050565b6138da81613269565b81146138e557600080fd5b50565b6000813590506138f7816138d1565b92915050565b60008060408385031215613914576139136131da565b5b6000613922858286016132e8565b9250506020613933858286016138e8565b9150509250929050565b600080fd5b600080fd5b60008083601f84011261395d5761395c6132fd565b5b8235905067ffffffffffffffff81111561397a5761397961393d565b5b60208301915083600182028301111561399657613995613942565b5b9250929050565b600080600080606085870312156139b7576139b66131da565b5b60006139c587828801613464565b94505060206139d6878288016132e8565b935050604085013567ffffffffffffffff8111156139f7576139f66131df565b5b613a0387828801613947565b925092505092959194509250565b600067ffffffffffffffff821115613a2c57613a2b613318565b5b613a3582613307565b9050602081019050919050565b6000613a55613a5084613a11565b613378565b905082815260208101848484011115613a7157613a70613302565b5b613a7c8482856133c4565b509392505050565b600082601f830112613a9957613a986132fd565b5b8135613aa9848260208601613a42565b91505092915050565b60008060008060808587031215613acc57613acb6131da565b5b6000613ada878288016132e8565b9450506020613aeb878288016132e8565b9350506040613afc87828801613464565b925050606085013567ffffffffffffffff811115613b1d57613b1c6131df565b5b613b2987828801613a84565b91505092959194509250565b600060208284031215613b4b57613b4a6131da565b5b600082013567ffffffffffffffff811115613b6957613b686131df565b5b613b7584828501613415565b91505092915050565b60058110613b8f57613b8e61383f565b5b50565b6000819050613ba082613b7e565b919050565b6000613bb082613b92565b9050919050565b613bc081613ba5565b82525050565b6000606082019050613bdb6000830186613815565b613be86020830185613bb7565b8181036040830152613bfa818461355e565b9050949350505050565b60008060408385031215613c1b57613c1a6131da565b5b6000613c29858286016132e8565b9250506020613c3a858286016132e8565b9150509250929050565b613c4d81613ba5565b82525050565b600082825260208201905092915050565b6000613c6f82613518565b613c798185613c53565b9350613c89818560208601613534565b613c9281613307565b840191505092915050565b6000606083016000830151613cb56000860182613761565b506020830151613cc86020860182613c44565b5060408301518482036040860152613ce08282613c64565b9150508091505092915050565b60006040820190508181036000830152613d078185613c9d565b9050613d1660208301846135e6565b9392505050565b7f4f6e6c792072656769737465726564207573657273207065726d697474656400600082015250565b6000613d53601f83613523565b9150613d5e82613d1d565b602082019050919050565b60006020820190508181036000830152613d8281613d46565b9050919050565b7f4e487b7100000000000000000000000000000000000000000000000000000000600052601160045260246000fd5b6000613dc382613443565b91507fffffffffffffffffffffffffffffffffffffffffffffffffffffffffffffffff8203613df557613df4613d89565b5b600182019050919050565b7f4e487b7100000000000000000000000000000000000000000000000000000000600052602260045260246000fd5b60006002820490506001821680613e4757607f821691505b602082108103613e5a57613e59613e00565b5b50919050565b60008190508160005260206000209050919050565b60006020601f8301049050919050565b600082821b905092915050565b600060088302613ec27fffffffffffffffffffffffffffffffffffffffffffffffffffffffffffffffff82613e85565b613ecc8683613e85565b95508019841693508086168417925050509392505050565b6000819050919050565b6000613f09613f04613eff84613443565b613ee4565b613443565b9050919050565b6000819050919050565b613f2383613eee565b613f37613f2f82613f10565b848454613e92565b825550505050565b600090565b613f4c613f3f565b613f57818484613f1a565b505050565b5b81811015613f7b57613f70600082613f44565b600181019050613f5d565b5050565b601f821115613fc057613f9181613e60565b613f9a84613e75565b81016020851015613fa9578190505b613fbd613fb585613e75565b830182613f5c565b50505b505050565b600082821c905092915050565b6000613fe360001984600802613fc5565b1980831691505092915050565b6000613ffc8383613fd2565b9150826002028217905092915050565b61401582613518565b67ffffffffffffffff81111561402e5761402d613318565b5b6140388254613e2f565b614043828285613f7f565b600060209050601f8311600181146140765760008415614064578287015190505b61406e8582613ff0565b8655506140d6565b601f19841661408486613e60565b60005b828110156140ac57848901518255600182019150602085019450602081019050614087565b868310156140c957848901516140c5601f891682613fd2565b8355505b6001600288020188555050505b505050505050565b60006020820190506140f36000830184613bb7565b92915050565b7f4c616e64206e6f7420666f756e64000000000000000000000000000000000000600082015250565b600061412f600e83613523565b915061413a826140f9565b602082019050919050565b6000602082019050818103600083015261415e81614122565b9050919050565b7f4f6e6c79206f776e65722063616e207570646174652073746174757300000000600082015250565b600061419b601c83613523565b91506141a682614165565b602082019050919050565b600060208201905081810360008301526141ca8161418e565b9050919050565b60006060820190506141e660008301866135e6565b6141f36020830185613815565b61420060408301846135e6565b949350505050565b7f4c616e64206e6f7420666f722073616c65000000000000000000000000000000600082015250565b600061423e601183613523565b915061424982614208565b602082019050919050565b6000602082019050818103600083015261426d81614231565b9050919050565b7f496e636f7272656374207061796d656e7420616d6f756e740000000000000000600082015250565b60006142aa601883613523565b91506142b582614274565b602082019050919050565b600060208201905081810360008301526142d98161429d565b9050919050565b7f416c726561647920726567697374657265640000000000000000000000000000600082015250565b6000614316601283613523565b9150614321826142e0565b602082019050919050565b6000602082019050818103600083015261434581614309565b9050919050565b50565b600061435c600083613523565b91506143678261434c565b600082019050919050565b6000602082019050818103600083015261438b8161434f565b9050919050565b7f4f6e6c79206f776e65722063616e20617070726f7665207472616e7366657200600082015250565b60006143c8601f83613523565b91506143d382614392565b602082019050919050565b600060208201905081810360008301526143f7816143bb565b9050919050565b7f4275796572206d69736d61746368000000000000000000000000000000000000600082015250565b6000614434600e83613523565b915061443f826143fe565b602082019050919050565b6000602082019050818103600083015261446381614427565b9050919050565b600082905092915050565b61447f838361446a565b67ffffffffffffffff81111561449857614497613318565b5b6144a28254613e2f565b6144ad828285613f7f565b6000601f8311600181146144dc57600084156144ca578287013590505b6144d48582613ff0565b86555061453c565b601f1984166144ea86613e60565b60005b82811015614512578489013582556001820191506020850194506020810190506144ed565b8683101561452f578489013561452b601f891682613fd2565b8355505b6001600288020188555050505b50505050505050565b7f546f6b656e20646f6573206e6f74206578697374000000000000000000000000600082015250565b600061457b601483613523565b915061458682614545565b602082019050919050565b600060208201905081810360008301526145aa8161456e565b9050919050565b600081905092915050565b7f697066733a2f2f00000000000000000000000000000000000000000000000000600082015250565b60006145f26007836145b1565b91506145fd826145bc565b600782019050919050565b6000815461461581613e2f565b61461f81866145b1565b9450600182166000811461463a576001811461464f57614682565b60ff1983168652811515820286019350614682565b61465885613e60565b60005b8381101561467a5781548189015260018201915060208101905061465b565b838801955050505b50505092915050565b6000614696826145e5565b91506146a28284614608565b915081905092915050565b60006146b882613443565b91506146c383613443565b92508282039050818111156146db576146da613d89565b5b92915050565b60006146ec82613443565b91506146f783613443565b925082820190508082111561470f5761470e613d89565b5b92915050565b7f4e487b7100000000000000000000000000000000000000000000000000000000600052603260045260246000fd5b7f4c616e6420646f6573206e6f7420657869737400000000000000000000000000600082015250565b600061477a601383613523565b915061478582614744565b602082019050919050565b600060208201905081810360008301526147a98161476d565b9050919050565b7f4e487b7100000000000000000000000000000000000000000000000000000000600052603160045260246000fd5b600081519050919050565b600082825260208201905092915050565b6000614806826147df565b61481081856147ea565b9350614820818560208601613534565b61482981613307565b840191505092915050565b600060808201905061484960008301876135e6565b61485660208301866135e6565b6148636040830185613815565b818103606083015261487581846147fb565b905095945050505050565b60008151905061488f81613210565b92915050565b6000602082840312156148ab576148aa6131da565b5b60006148b984828501614880565b91505092915050565b60006040820190506148d760008301856135e6565b6148e46020830184613815565b939250505056fea264697066735822122005865c4950b05bf591e0988eaf273e56e3434b5eae8094c8a4ca3373c798ed6964736f6c634300081c0033",
  "linkReferences": {},
  "deployedLinkReferences": {}
}